:020000040000fa
:04000c009604000056
:020000040000fa
:0400b40096040000ae
:020000040000fa
:0400b00096040000b2
:020000040000fa
:040140009604000021
:020000040000fa
:0400700096040000f2
:020000040000fa
:0400740096040000ee
:020000040000fa
:04013400960400002d
:020000040000fa
:04015c009604000005
:020000040000fa
:040060009604000002
:020000040000fa
:0400880096040000da
:020000040000fa
:0400b80096040000aa
:020000040000fa
:04001c009604000046
:020000040000fa
:040010009604000052
:020000040000fa
:04002c009604000036
:020000040000fa
:04003c009604000026
:020000040000fa
:0400bc0096040000a6
:020000040000fa
:0400c00096040000a2
:020000040000fa
:040260009604000000
:020000040000fa
:04002800960400003a
:020000040000fa
:0400780096040000ea
:020000040000fa
:04009c0096040000c6
:020000040000fa
:0401b80096040000a9
:020000040000fa
:0401bc0096040000a5
:020000040000fa
:0401c00096040000a1
:020000040000fa
:0401c400960400009d
:020000040000fa
:0401c8009604000099
:020000040000fa
:0401cc009604000095
:020000040000fa
:0401d0009604000091
:020000040000fa
:0401d400960400008d
:020000040000fa
:0401d8009604000089
:020000040000fa
:0401dc009604000085
:020000040000fa
:0401e0009604000081
:020000040000fa
:0401e400960400007d
:020000040000fa
:0401e8009604000079
:020000040000fa
:0401ec009604000075
:020000040000fa
:0401f0009604000071
:020000040000fa
:0401f400960400006d
:020000040000fa
:0401f8009604000069
:020000040000fa
:0401fc009604000065
:020000040000fa
:040200009604000060
:020000040000fa
:04020400960400005c
:020000040000fa
:040208009604000058
:020000040000fa
:04020c009604000054
:020000040000fa
:040210009604000050
:020000040000fa
:04021400960400004c
:020000040000fa
:040218009604000048
:020000040000fa
:04021c009604000044
:020000040000fa
:040220009604000040
:020000040000fa
:04022400960400003c
:020000040000fa
:040228009604000038
:020000040000fa
:04022c009604000034
:020000040000fa
:040230009604000030
:020000040000fa
:04023400960400002c
:020000040000fa
:040238009604000028
:020000040000fa
:04023c009604000024
:020000040000fa
:040240009604000020
:020000040000fa
:04024400960400001c
:020000040000fa
:040248009604000018
:020000040000fa
:04024c009604000014
:020000040000fa
:040250009604000010
:020000040000fa
:04025400960400000c
:020000040000fa
:040258009604000008
:020000040000fa
:04025c009604000004
:020000040000fa
:0402680096040000f8
:020000040000fa
:0400640096040000fe
:020000040000fa
:04007c0096040000e6
:020000040000fa
:0400800096040000e2
:020000040000fa
:0400840096040000de
:020000040000fa
:0400c400960400009e
:020000040000fa
:0400c800960400009a
:020000040000fa
:0400cc009604000096
:020000040000fa
:0400d0009604000092
:020000040000fa
:0400d400960400008e
:020000040000fa
:0400d800960400008a
:020000040000fa
:0400dc009604000086
:020000040000fa
:0400e0009604000082
:020000040000fa
:0400e400960400007e
:020000040000fa
:0400e800960400007a
:020000040000fa
:0400f400960400006e
:020000040000fa
:0400f800960400006a
:020000040000fa
:0400fc009604000066
:020000040000fa
:040100009604000061
:020000040000fa
:04010400960400005d
:020000040000fa
:040108009604000059
:020000040000fa
:04011400960400004d
:020000040000fa
:040118009604000049
:020000040000fa
:04011c009604000045
:020000040000fa
:040120009604000041
:020000040000fa
:04012400960400003d
:020000040000fa
:040128009604000039
:020000040000fa
:040138009604000029
:020000040000fa
:04013c009604000025
:020000040000fa
:04014400960400001d
:020000040000fa
:040148009604000019
:020000040000fa
:04014c009604000015
:020000040000fa
:040150009604000011
:020000040000fa
:04015400960400000d
:020000040000fa
:040158009604000009
:020000040000fa
:040160009604000001
:020000040000fa
:0401640096040000fd
:020000040000fa
:0401680096040000f9
:020000040000fa
:04016c0096040000f5
:020000040000fa
:0401700096040000f1
:020000040000fa
:0401740096040000ed
:020000040000fa
:0401780096040000e9
:020000040000fa
:04017c0096040000e5
:020000040000fa
:0401800096040000e1
:020000040000fa
:0401840096040000dd
:020000040000fa
:0401880096040000d9
:020000040000fa
:04018c0096040000d5
:020000040000fa
:0401900096040000d1
:020000040000fa
:0401940096040000cd
:020000040000fa
:0401980096040000c9
:020000040000fa
:04019c0096040000c5
:020000040000fa
:0401ac0096040000b5
:020000040000fa
:0401b00096040000b1
:020000040000fa
:0401b40096040000ad
:020000040000fa
:0402640096040000fc
:020000040000fa
:04006c0096040000f6
:020000040000fa
:0400f0009604000072
:020000040000fa
:04001800960400004a
:020000040000fa
:040030009604000032
:020000040000fa
:040040009604000022
:020000040000fa
:04008c0096040000d6
:020000040000fa
:0400900096040000d2
:020000040000fa
:04000800960400005a
:020000040000fa
:0402740096040000ec
:020000040000fa
:0402780096040000e8
:020000040000fa
:04027c0096040000e4
:020000040000fa
:0402800096040000e0
:020000040000fa
:04026c0096040000f4
:020000040000fa
:0402700096040000f0
:020000040000fa
:0401a00096040000c1
:020000040000fa
:0401a40096040000bd
:020000040000fa
:0401a80096040000b9
:020000040000fa
:04010c009604000055
:020000040000fa
:040110009604000051
:020000040000fa
:04002400960400003e
:020000040000fa
:0400680096040000fa
:020000040000fa
:0400ec009604000076
:020000040000fa
:04004c009604000016
:020000040000fa
:040050009604000012
:020000040000fa
:0400a80096040000ba
:020000040000fa
:0400ac0096040000b6
:020000040000fa
:040020009604000042
:020000040000fa
:04001400960400004e
:020000040000fa
:04003400960400002e
:020000040000fa
:04004400960400001e
:020000040000fa
:04004800960400001a
:020000040000fa
:0400940096040000ce
:020000040000fa
:0400980096040000ca
:020000040000fa
:04012c009604000035
:020000040000fa
:040130009604000031
:020000040000fa
:0400a00096040000c2
:020000040000fa
:0400a40096040000be
:020000040000fa
:080000000002040000000000f2
:020000040000fa
:100400006f3521000eff27000e018800000000005c
:10041000000020000000e000020032000001200087
:100420002002880014000700420107000000e000dd
:1004300003003a0020c42000010020000200370021
:100440000000200001002000810f70000100320038
:100450000f000700000020000000e0000200320052
:1004600000000200000000000a0b02000000000073
:100470000040da000000fe00a00020000000e000c4
:1004800002003200002020009001880000000600d9
:10049000a1028800800478000000eb001f003700f4
:1004a000e284440054a0b4009905ba00e2844400f8
:1004b00054a0b4009906ba00e284440054a0b400e9
:1004c0000006eb00476fde00fd07b200ae018800ba
:1004d000636ce10003003a000ad801000000eb0061
:1004e0000e003700606ce10008003a00004deb00a0
:1004f0000a05e800020039003420ec000af0a000f0
:100500008b05e900f9ff3e00040037006168e10057
:10051000010032000086eb000b00070019c7ba008b
:100520000e04e0001905ba0003003a000a00e000da
:10053000dbff3a0000000600fe07b200ae028800b2
:100540008a047800f5ff37000cd0a300e20f4d00bd
:100550001c00390089027800354dba000a05e80010
:10056000020039003420ec000af0a0008b05e900fd
:100570000f003200254dba000a05e80002003900dc
:100580003420ec000af0a0008b05e90008003200de
:100590000c00e0000600320015cdba000a05e800a4
:1005a000020039003420ec000af0a0008b05e900bd
:1005b0008984e80054a0b4000b00e000e2ff3a0098
:1005c000000006009902ba00055d78008b05e9007d
:1005d000f7ff3200c82ade00055d78008b05e900d0
:1005e000f3ff32000c00e000f1ff320019ddba0029
:1005f000eeff37003600f800809fbe00829fbe00ed
:10060000849fbe00869fbe003200f8003400f800d0
:1006100010002000a0018800002020009001880028
:10062000000000000003f8005013f90001a8a90021
:100630004633ed004613e20003003a00500020006c
:10064000309a88005213a8004833ed004813e200a6
:1006500003003a00401f2000409a88005233a8004f
:100660004a33ed004a13e20003003a0080382100cb
:10067000509a88005253a8004c33ed004c13e2000e
:1006800003003a0000712200609a88005273a800ab
:100690004e33ed004e13e20003003a0000e2240066
:1006a000709a88005293a8005b02070001a8ab0073
:1006b00036003a0042a0a80042c0a9005413ab0083
:1006c00032003a005213ab00060032005413a80067
:1006d0005213a9006c0207005213ab00fcff3a0052
:1006e0005413a9005433ab0028003a005233ab0036
:1006f000060032005433a8005233a900d602070086
:100700005233ab00fcff3a005433a9005453ab0002
:100710001e003a005253ab00060032005453a800aa
:100720005253a900e40207005253ab00fcff3a0009
:100730005453a9005473ab0014003a005273ab0039
:10074000060032005473a8005273a900e9020700a2
:100750005273ab00fcff3a005473a9005493ab00f2
:100760000a003a005293ab00060032005493a800ee
:100770005293a900ed0207005293ab00fcff3a0030
:100780005493a90042c0a80042a0a9003400f90077
:100790003200f9004f03be004f02be004f01be0001
:1007a0004f00be003600f9000040060000a0fe0029
:1007b000841f78003200f8003400f8001400200094
:1007c000a40188000420200094018800000000009b
:1007d00001948000109480000168a9002202ab00ff
:1007e00013003a001a0037000000e0000c0032004d
:1007f0000000e90001948000321180008100420075
:1008000082487800019480008100e8000381600044
:10081000029488002202ab00f3ff3a000c0037007c
:10082000301180002202ab00fdff3a0008003700c3
:10083000008050000080ea00f007b200f8ff3200ac
:100840000000e90004202100f3072000e9ff370041
:100850002222ab00010032002222a9003400f9005c
:100860003200f9004f0278000080fe0000400600d0
:1008700000a0fe00849fbe003200f8003400f800a3
:1008800014002000a40188000420200094018800a6
:1008900000000000309880002322ab000f003a00d7
:1008a0000413e3000d00320044282100f307200068
:1008b00002202000800042009180fb00211188006e
:1008c0000000e80003006000151180008500610051
:1008d00002003a000413e300f6ff3a003098880063
:1008e0000188a9003400f9003200f9004f02be006f
:1008f0000080fe00004006003600f800809fbe0029
:10090000829fbe00849fbe00869fbe00b103070089
:100910000088a9004f03be004f02be004f01be0079
:100920004f00be003600f900004006000040da002b
:080930000000fe0000000500bc
:020000040000fa
:04005c00fa020000a4
:020000040000fa
:04005400d6030000cf
:020000040000fa
:040058003804000068
:020000040000fa
:020000040005f5
:045ff000baff0000f4
:020000040000fa
:020000040005f5
:045fec0078ff00003a
:020000040000fa
:020000040005f5
:045fe8007fff000037
:020000040000fa
:020000040005f5
:045fe000cfff0000ef
:020000040000fa
:040038007c04000044
:020000040000fa
:10093800b80b0000000000000100000000000000eb
:040948002e1300006a
:020000040000fa
:10094c00e10f50000800320005003900e20f5000a2
:10095c0007003200e30f500008003a000600370091
:10096c0001eba8000500370011eba80003003700cd
:10097c0021eba8000100370031eba80000000600b5
:10098c00e10f50000900320005003900e20f500061
:10099c0009003200e30f50000c003a000900370048
:1009ac0021588800062bef0008003700a15888005a
:1009bc00162bef000500370021598800262bef007d
:1009cc0002003700a1598800362bef00000006000a
:1009dc00e10f50000800320005003900e20f500012
:1009ec0007003200e30f500008003a000600370001
:1009fc006158880005003700e15888000300370073
:100a0c006159880001003700e15988000000060098
:100a1c00889fbe008a9fbe000080fb004401dd0061
:100a2c000300210002814100120178000208a3009a
:100a3c000c003a004311dd004511de008001eb0093
:100a4c008288be0042c0b300c24098004401dd0061
:100a5c000300210002814100120178006201610053
:100a6c001f003700c4ff2100040161008001eb006e
:100a7c00c012dd00040020008488be00c401dd002b
:100a8c00060021000301430012059000f2ff200034
:100a9c00020565008005eb00465cdd00ca54de00f3
:100aac00890474004654dd000802420089824a0021
:100abc008488be00e4814100830143001301780067
:100acc004a11de0004034100e0834a008688be0020
:100adc0032c0b300c2409800022020001301610014
:100aec000200e0000300320020c0b300d0409800a8
:100afc002000370012c0b300d24098004400dd0043
:100b0c00e60140000200210083014100934378007c
:100b1c00f74098009341900083489800e80140000a
:100b2c00830141001342780094489800934190004f
:100b3c00a3489800ea014000830141001343780068
:100b4c00b648980093419000c3489800ec014000cf
:100b5c008301410093437800d7489800934190005b
:100b6c00e348980000004100200090006f406000b6
:100b7c00e04098004f05be004f04be000000060088
:100b8c0041419000e44f51000a003a00f27f2000ee
:100b9c00110161004211dd00020878000001eb0038
:100bac0012009800614190006f01610022009800d2
:100bbc00150037001102780091029000c2ff21004d
:100bcc00050161000200a000020878001101780004
:100bdc0091019000c61ade004a1bdd004612de00b1
:100bec0004027300f3ff200003016200120098005e
:100bfc0091017800ca19dd00614190006f0161001c
:100c0c00028141002200980081499000c819dd0042
:100c1c00714190000281fb0002814100320098007a
:100c2c00a1499000c819dd00114990000281fb0018
:100c3c000281410042009800c1499000c819dd00b2
:100c4c00314990000281fb00028141005200980062
:100c5c00614990004811dd00d14890008180fb0073
:100c6c008100410061009800000006002468a90082
:100c7c000c24ef00f08f2f000004b60000a0a000a1
:100c8c0000208800020e20000108200003208000b4
:100c9c0003006100810f5000fcff3a00200020008f
:100cac0080208800801a20009020880040002c00b2
:100cbc003020880010002000a02088000024ef00c5
:100ccc000004a800c3ff2f008041200010886100a1
:100cdc00822180007f01610001e02f008280700082
:100cec0081218800f101200042432000128960001c
:100cfc0080432000108860000243200012896100ac
:100d0c00404320001088610082432000128961005a
:100d1c003224ef003624ef003a24ef003064a900af
:100d2c003464a9003864a90002228000010161002a
:100d3c0001462200828070000122880000442000bd
:100d4c00108861004224ef004064a900f0002000ec
:100d5c002024b7000004a90030e4a80031e4a80066
:100d6c0032e4a80033e4a80034e4a90035e4a90077
:100d7c0036e4a90037e4a90002432000128961007f
:100d8c00f1cf2f0000432000108860002243200088
:100d9c00128961002043200010886000424320002b
:100dac0012896100404320001088600062432000db
:100dbc001289610063432000938960002024ef00b6
:100dcc002224ef002824ef002a24ef000a24a90093
:100ddc00f08f2f000024b600010e200002208000ae
:100dec0002806000fdff3a00000006002144200054
:100dfc0010002000f6fe070001002100100020006a
:100e0c00dffe070010002000cdfe070000000600ea
:100e1c00014420000000eb00edfe07000100210062
:100e2c000000eb00d6fe07000000eb00c4fe07003c
:100e3c0000000600889fbe00800478000000eb00d4
:100e4c000343200003044000184178000204e00032
:100e5c000e003d000238a3000c003a004400dd00f7
:100e6c00020021000200400045ff0700e3c46400bb
:100e7c00c0cfb30018406000094070000034a000df
:100e8c00004c780010c0b300040037000000e800ec
:100e9c00e40f5000ebff3a000040eb004f04be00a3
:100eac0000000600889fbe00800078000a44ab005a
:100ebc00030032000a44a9000040eb001e0037007a
:100ecc0048208000f803b200ef0f540003003e00ee
:100edc000221800088047800020037001221800073
:100eec00f00454000911de000040eb000208a300de
:100efc001100320008407800c5fe0700ef0f5400c7
:100f0c0007003e00100020008900dd008180ea000f
:100f1c000221800081006100012188000600370059
:100f2c00100020008900dd008180ea001221800081
:100f3c0081006100112188004f04be0000000600f2
:100f4c00502080004200dd004f00de000000060053
:100f5c00502080004400dd004f00de000000060041
:100f6c00502080004300dd004f00de000000060032
:100f7c00032180000000eb000300e00009003200b8
:100f8c0080007800010078000119de000208a3003f
:100f9c00010032000000e8008100e800f08f5000f2
:100fac00f9ff3a00132180000300e0000800320032
:100fbc008000eb000119de000208a30001003200e2
:100fcc000000e8008100e800f08f5000f9ff3a00c3
:100fdc00000006000ac4a9000cc4a8002468a800dc
:100fec00f08f2f000004b6000080a00000208800c5
:100ffc00020e20000102200003208000030061008b
:10100c00810f5000fcff3a00000006005013f8005e
:10101c000a13f90090708000e0988000e1762100be
:10102c00810f500001003600f07621001e13e20003
:10103c0003003200609888000e33ef000200370086
:10104c000c33ef0070988800048ea800020ed500b7
:10105c00610060004300dd00217080000130a100c0
:10106c0081007000217088000c13f8000609f9004b
:10107c000e13f8001009f9000000060093708000b0
:10108c00cc19de00e1c16100907080004d00de00e3
:10109c0061406000947080004e22de00614262006c
:1010ac00927080004f11de000040400021002000b3
:1010bc008120dd008140400083c0400030002000d2
:1010cc000010dd0080c0400081c0ea00efc060006d
:1010dc0080322100014878002098800030988000f0
:1010ec00209880004228210000014100014978002d
:1010fc000000e800f007b200209888002188a900c1
:10110c000188a900309880002322ab000f003a0020
:10111c000413e3000d00320044282100f3072000e3
:10112c0002202000800042009180fb0021118800e9
:10113c000000e800030060001511800085006100cc
:10114c0002003a000413e300f6ff3a0030988800de
:10115c000413e300010032002188a800c601f80046
:10116c001013f900cc01f8000813f9002202ab00af
:10117c00220032002168a9000194800010948000a4
:10118c002202ab0013003a001a0037000000e00006
:10119c000c0032000000e900019480003211800044
:1011ac008100420082487800019480008100e800b0
:1011bc0003816000029488002202ab00f3ff3a0026
:1011cc000c003700301180002202ab00fdff3a000a
:1011dc0008003700008050000080ea00f007b200e1
:1011ec00f8ff32000000e90004202100f307200082
:1011fc00e9ff37000168a9002168a800109480005d
:10120c008012e3000a00320001202100808040009f
:10121c009142780093322100854978000000e80063
:10122c00f007b20010948800100020000500370071
:10123c002222ab00010032002222a9002973ef0008
:10124c000000eb009098880000000600a2322100fc
:10125c00ea0051006a805000c70007008000780047
:10126c00a19888000000eb000100e00006003200ad
:10127c00b09880000092b20000f0a7000000ea00d5
:10128c000000e9004f00de00c0988800b198800093
:10129c008100e800d198880003322100a23221009d
:1012ac00124178008f000700000006002dd3bf000c
:1012bc00e1006000a27080000200a10002817000b9
:1012cc00a2708800e2006000a27080000210a100f1
:1012dc0002817000a27088000040e800634060004a
:1012ec002df3b700000006002bd3bf008080fb005d
:1012fc0081804000c24928008100410091007800a3
:10130c00e19888000040e800e14f500002003600f0
:10131c002b73ef00010037002bf3b7000000060021
:10132c002cd3bf008080fb008180e80081804000ce
:10133c00c24928008100410091007800f198880092
:10134c000040e800e14f5000020036002c73ef0023
:10135c00010037002cf3b70000000600803021009c
:10136c00120009000018eb002823ef002623ef00e1
:10137c00f0ff2100201988002223ef00f0f82f0045
:10138c004608b6000050a0003042880001a8a90011
:10139c0021a8a80029000700e2c02100024888000b
:1013ac00f109210011488800f076210020488800be
:1013bc005248880061488800704888005009200015
:1013cc00401188008000280000118800803fb00088
:1013dc001011880080ff2f004608b6005000b300a3
:1013ec00304288000188a9002188a800f1ff28005c
:1013fc002042800080806000000025000100700009
:10140c00204288000168a9002168a800e221ef00b1
:10141c00e021ef00de21ef00dca1ef00000027004f
:10142c00100e880000802900000e8800800e20001d
:10143c00e0988800f09888000000060080ff2f00dc
:10144c004208b6000000a00010428800f0ff2800ff
:10145c005008b60000c0a0008042880003fe0700c0
:10146c00ad000700f20b2000103a80000001610073
:10147c00600420007105200023742000804978004e
:10148c00814978008249780002f82f00a336800049
:10149c00030161008202b300a2368800f30f2c0016
:1014ac00323480008281610002e02000030171006f
:1014bc0032348800123a80000260a00023742000ad
:1014cc00804978008149780082497800d80007006b
:1014dc00d9000700c3e8a8000000000000000000cd
:1014ec00000006001000fa00881f78000000e000e1
:1014fc001e0032006108b800f0b79f0081bf9f004a
:10150c0040c0b300a0f79f0010c0b300b0f79f001d
:10151c00c2f79f0013407800d0f79f001340900053
:10152c00e0f79f0023409000f0f79f0033409000bd
:10153c0080ff9f004340900090ff9f00534090001d
:10154c00a0ff9f0063409000b0ff9f00f34190000c
:10155c00c3ff9f0018002000f2805700080078009d
:10156c00b70007000004e000fbff32004f047800d6
:10157c000080fa00000006001000fa00889fbe00f0
:10158c008a9fbe00000578008104780082057800ef
:10159c0077fe07000084fb001600320078805700ad
:1015ac00a90007004fb09700000d78006fe8970076
:1015bc00804d78007fe89700804c78000ff0970002
:1015cc00904498001ff09700a04498002ff09700cb
:1015dc00b04498003ff09700c04498004ff097003b
:1015ec00d04498005ff09700e04498006ff09700ab
:1015fc00f0449800080078004f05be004f04be0070
:10160c000080fa00000006004387ab001600320091
:10161c0043c7ab0014003a00a10920000001eb0005
:10162c0080072000337420008049780081497800bd
:10163c00824978007105200012002000600420000f
:10164c002374200080497800814978008249780011
:10165c00000000000000000000002700123a80008b
:10166c0082006000fdff3a0061042000313a8800de
:10167c0010002000203a8800a3092000340020002c
:10168c008207200035742000824a7800834a780053
:10169c00844a780072052000237420008149780068
:1016ac00824978008049780070708800c100200061
:1016bc00f170880071622200e1358800510220002f
:1016cc002136880010348800100121004034880035
:1016dc0070fe2f0000708800c01e2f0080708800e4
:1016ec000100270000002300133a800003816000f2
:1016fc00800f5100fcff3a0000022000123a8000db
:10170c0082006000fdff320014ff0700400e28002d
:10171c0000198800ffff37000002200000588800e5
:10172c000080e80010588800062bef000000210014
:10173c00205888000a2bef00082bef000c2bef0031
:10174c0071002000715888000088a9002088a8002a
:10175c0002022200825888006204200092588800fd
:10176c00162bef00a05888001a2bef00182bef0057
:10177c001c2bef00f158880001c8a900202bef00aa
:10178c00222bef00262bef00205988002a2bef008c
:10179c00282bef002c2bef002e2bef000308a900b9
:1017ac00302bef00322bef00362bef00a0598800c6
:1017bc003a2bef00382bef003c2bef003e2bef00c9
:1017cc000488a900000006000000060000000600c6
:1017dc0001c8ab0002003200fcff070001c8a900e1
:1017ec0000000600000006000308ab0002003200f7
:1017fc00fcff07000308a90000000600000006001b
:10180c000488ab0002003200fcff07000488a9002a
:10181c0000000600000006000000060000000600a4
:10182c00000006000000060010fd07000000060086
:10183c006efd07000000060075fd070000000600a5
:10184c007cfd07000000060096fd07000000060066
:10185c00bbfd070000000600bdfd070000000600f0
:10186c00bffd070000000600c1fd070000000600d8
:08187c00d8fd07000000060082
:020000040000fa
:101884005013000006000000800000004613000012
:101894000a000000820000000100010000010000b5
:1018a400010001000000000000120000840000009c
:1018b400800000008412000084000000800000000a
:1018c4000010000000020000800000000813000067
:0c18d4003e00000080000000000000004a
:00000001FF
