:020000040000fa
:080000000418040000000000d8
:020000040000fa
:10000800041a0000081a00000c1a0000101a000058
:10001800141a0000181a00001c1a0000001a000028
:10002800201a0000241a0000281a00002c1a0000c8
:10003800301a0000341a0000381a00003c1a000078
:10004800401a0000441a0000481a00004c1a000028
:10005800501a0000541a0000581a0000001a000034
:100068005c1a0000601a0000641a0000681a000098
:100078006c1a0000001a0000001a0000001a0000a4
:10008800701a0000741a0000781a00007c1a000028
:10009800801a0000841a0000881a00008c1a0000d8
:1000a800901a0000941a0000981a00009c1a000088
:1000b800a01a0000a41a0000a81a0000001a0000e4
:1000c800001a0000001a0000001a0000001a0000c0
:1000d800001a0000001a0000001a0000001a0000b0
:1000e800001a0000ac1a0000b01a0000001a000044
:1000f800001a0000001a0000001a0000001a000090
:10010800001a0000b41a0000b81a0000001a000013
:10011800001a0000001a0000001a0000001a00006f
:10012800001a0000bc1a0000c01a0000c41a00001f
:10013800001a0000001a0000c81a0000001a000087
:10014800001a0000001a0000001a0000001a00003f
:10015800001a0000cc1a0000001a0000001a000063
:10016800001a0000001a0000001a0000001a00001f
:10017800001a0000001a0000001a0000001a00000f
:10018800001a0000001a0000001a0000001a0000ff
:10019800001a0000001a0000d01a0000d41a00004b
:1001a800d81a0000001a0000001a0000001a000007
:1001b800001a0000001a0000001a0000001a0000cf
:1001c800001a0000001a0000001a0000001a0000bf
:1001d800001a0000001a0000001a0000001a0000af
:1001e800001a0000001a0000001a0000001a00009f
:1001f800001a0000001a0000001a0000001a00008f
:10020800001a0000001a0000001a0000001a00007e
:10021800001a0000001a0000001a0000001a00006e
:10022800001a0000001a0000001a0000001a00005e
:10023800001a0000001a0000001a0000001a00004e
:10024800001a0000001a0000001a0000001a00003e
:10025800001a0000001a0000dc1a0000e01a000072
:10026800001a0000e41a0000e81a0000ec1a000066
:10027800f01a0000f41a0000f81a0000001a000032
:10028800001a0000001a0000001a0000001a0000fe
:10029800001a0000001a0000001a0000001a0000ee
:1002a800001a0000001a0000001a0000001a0000de
:1002b800001a0000001a0000001a0000001a0000ce
:1002c800001a0000001a0000001a0000001a0000be
:1002d800001a0000001a0000001a0000001a0000ae
:1002e800001a0000001a0000001a0000001a00009e
:1002f800001a0000001a0000001a0000001a00008e
:10030800001a0000001a0000001a0000001a00007d
:10031800001a0000001a0000001a0000001a00006d
:10032800001a0000001a0000001a0000001a00005d
:10033800001a0000001a0000001a0000001a00004d
:10034800001a0000001a0000001a0000001a00003d
:10035800001a0000001a0000001a0000001a00002d
:10036800001a0000001a0000001a0000001a00001d
:10037800001a0000001a0000001a0000001a00000d
:10038800001a0000001a0000001a0000001a0000fd
:10039800001a0000001a0000001a0000001a0000ed
:1003a800001a0000001a0000001a0000001a0000dd
:1003b800001a0000001a0000001a0000001a0000cd
:1003c800001a0000001a0000001a0000001a0000bd
:1003d800001a0000001a0000001a0000001a0000ad
:1003e800001a0000001a0000001a0000001a00009d
:0803f800001a0000001a0000c9
:020000040000fa
:083000000418040000000000a8
:020000040000fa
:103008004f0221000eff28000e018800000000007a
:10301800000020000000e000020032000001200053
:103028002002880014000700eb0007000000e00001
:1030380003003a0000d02100010020000200370000
:103048000000200001002000810f70000100320004
:103058000f000700000020000000e000020032001e
:103068000000020000000000ea1c0200000000004e
:103078000040da000000fe00200020000000e00010
:1030880002003200100020009001880000000600b5
:10309800a1028800800478000000eb001f003700c0
:1030a800e284440054a0b4009905ba00e2844400c4
:1030b80054a0b4009906ba00e284440054a0b400b5
:1030c8000006eb00476fde00fd07b200ae01880086
:1030d800636ce10003003a000ad801000000eb002d
:1030e8000e003700606ce10008003a00004deb006c
:1030f8000a05e800020039003420ec000af0a000bc
:103108008b05e900f9ff3e00040037006168e10023
:10311800010032000086eb000b00070019c7ba0057
:103128000e04e0001905ba0003003a000a00e000a6
:10313800dbff3a0000000600fe07b200ae0288007e
:103148008a047800f5ff37000cd0a300e20f4d0089
:103158001c00390089027800354dba000a05e800dc
:10316800020039003420ec000af0a0008b05e900c9
:103178000f003200254dba000a05e80002003900a8
:103188003420ec000af0a0008b05e90008003200aa
:103198000c00e0000600320015cdba000a05e80070
:1031a800020039003420ec000af0a0008b05e90089
:1031b8008984e80054a0b4000b00e000e2ff3a0064
:1031c800000006009902ba00055d78008b05e90049
:1031d800f7ff3200c82ade00055d78008b05e9009c
:1031e800f3ff32000c00e000f1ff320019ddba00f5
:1031f800eeff37003600f800809fbe00829fbe00b9
:10320800849fbe00869fbe000000fa00c028a90067
:103218000000eb00e10107000080fa004f03be0048
:103228004f02be004f01be004f00be003600f9003d
:10323800004006003600f800809fbe00829fbe0056
:10324800849fbe00869fbe000000fa00d8010700d8
:10325800c048a90010002000d00107000080fa0033
:103268004f03be004f02be004f01be004f00be001c
:103278003600f900004006003600f800809fbe00c6
:10328800829fbe00849fbe00869fbe000000fa0099
:10329800c068a90020002000c00107000080fa00d3
:1032a8004f03be004f02be004f01be004f00be00dc
:1032b8003600f900004006003600f800809fbe0086
:1032c800829fbe00849fbe00869fbe000000fa0059
:1032d800c088a90030002000b00107000080fa0073
:1032e8004f03be004f02be004f01be004f00be009c
:1032f8003600f900004006003600f800809fbe0046
:10330800829fbe00849fbe00869fbe000000fa0018
:10331800c0a8a90040002000a00107000080fa0012
:103328004f03be004f02be004f01be004f00be005b
:103338003600f900004006003600f800809fbe0005
:10334800829fbe00849fbe00869fbe000000fa00d8
:10335800c608a90070002000900107000080fa004c
:103368004f03be004f02be004f01be004f00be001b
:103378003600f900004006003600f800809fbe00c5
:10338800829fbe00849fbe00869fbe000000fa0098
:103398002146800000022000008060000000e0005c
:1033a80003003200c4a8a900900020007b01070098
:1033b80020468000700060000000e000030032003a
:1033c800c488a900a000200074010700ffff37008f
:0c33d8000040da000000fe0000000500cc
:020000040000fa
:1033e4000000fa000080fa0000000600ffff37002a
:020000040000fa
:08340000ec19040000000000bb
:020000040000fa
:08340800fe18040000000000a2
:020000040000fa
:08341000401904000000000057
:020000040000fa
:08341800a019040000000000ef
:020000040000fa
:083420001e1904000000000069
:020000040000fa
:0834280060190400000000001f
:020000040000fa
:083430008019040000000000f7
:020000040000fa
:08343800c019040000000000af
:020000040000fa
:08344000001a04000000000066
:020000040000fa
:08344800001a0400000000005e
:020000040000fa
:08345000001a04000000000056
:020000040000fa
:08345800001a0400000000004e
:020000040000fa
:08346000001a04000000000046
:020000040000fa
:08346800001a0400000000003e
:020000040000fa
:08347000001a04000000000036
:020000040000fa
:08347800001a0400000000002e
:020000040000fa
:08348000001a04000000000026
:020000040000fa
:08348800001a0400000000001e
:020000040000fa
:08349000001a04000000000016
:020000040000fa
:08349800001a0400000000000e
:020000040000fa
:0834a000001a04000000000006
:020000040000fa
:0834a800001a040000000000fe
:020000040000fa
:0834b000001a040000000000f6
:020000040000fa
:0834b800001a040000000000ee
:020000040000fa
:0834c000001a040000000000e6
:020000040000fa
:0834c800001a040000000000de
:020000040000fa
:0834d000001a040000000000d6
:020000040000fa
:0834d800001a040000000000ce
:020000040000fa
:0834e000001a040000000000c6
:020000040000fa
:0834e800001a040000000000be
:020000040000fa
:0834f000001a040000000000b6
:020000040000fa
:0834f800001a040000000000ae
:020000040000fa
:08350000001a040000000000a5
:020000040000fa
:08350800001a0400000000009d
:020000040000fa
:08351000001a04000000000095
:020000040000fa
:08351800001a0400000000008d
:020000040000fa
:08352000001a04000000000085
:020000040000fa
:08352800001a0400000000007d
:020000040000fa
:08353000001a04000000000075
:020000040000fa
:08353800001a0400000000006d
:020000040000fa
:08354000001a04000000000065
:020000040000fa
:08354800001a0400000000005d
:020000040000fa
:08355000001a04000000000055
:020000040000fa
:08355800001a0400000000004d
:020000040000fa
:08356000001a04000000000045
:020000040000fa
:08356800001a0400000000003d
:020000040000fa
:08357000001a04000000000035
:020000040000fa
:08357800001a0400000000002d
:020000040000fa
:08358000001a04000000000025
:020000040000fa
:08358800001a0400000000001d
:020000040000fa
:08359000001a04000000000015
:020000040000fa
:08359800001a0400000000000d
:020000040000fa
:0835a000001a04000000000005
:020000040000fa
:0835a800001a040000000000fd
:020000040000fa
:0835b000001a040000000000f5
:020000040000fa
:0835b800001a040000000000ed
:020000040000fa
:0835c000001a040000000000e5
:020000040000fa
:0835c800001a040000000000dd
:020000040000fa
:0835d000001a040000000000d5
:020000040000fa
:0835d800001a040000000000cd
:020000040000fa
:0835e000001a040000000000c5
:020000040000fa
:0835e800001a040000000000bd
:020000040000fa
:0835f000001a040000000000b5
:020000040000fa
:1035f8000000fa00003a80000080fa00000006008f
:103608000200fa00faff0700000f78001e00780099
:10361800240007000004e000020032000000280037
:10362800710007001e0078002a0007000004e0006f
:1036380002003200000024006b0007001e00780022
:10364800320007000004e0000200320000202000e1
:10365800650007001e0078003a0007000004e0003b
:1036680002003200000820005f0007001e007800fa
:10367800420007000004e0000200320000042000bd
:10368800590007001e0078004a0007000004e00007
:103698000200320000012000530007000080fa00f9
:1036a800000006000400fa00100798000040eb0034
:1036b800004f78001e0090000000e00002003d006e
:1036c80010c0b300004f78001e4078000080fa0058
:1036d800000006000400fa00100798000040eb0004
:1036e800004f78009e0090000000240000806000d9
:1036f8000000e0000200320010c0b300004f780064
:103708001e4078000080fa00000006000400fa005d
:10371800100798000040eb00004f78009e009000d2
:1037280000202000008060000000e000020032005d
:1037380010c0b300004f78001e4078000080fa00e7
:10374800000006000400fa00100798000040eb0093
:10375800004f78009e009000000820000080600064
:103768000000e0000200320010c0b300004f7800f3
:103778001e4078000080fa00000006000400fa00ed
:10378800100798000040eb00004f78009e00900062
:1037980000042000008060000000e0000200320009
:1037a80010c0b300004f78001e4078000080fa0077
:1037b800000006000400fa00100798000040eb0023
:1037c800004f78001e009000700060000000e000cc
:1037d8000200320010c0b300004f78001e4078008d
:1037e8000080fa00000006000200fa00000f7800ce
:1037f8009e80ea00003a800000806000003a88005d
:103808000080fa00000006000000fa004027ef00e0
:103818000080fa00000006000000fa0000142300ef
:10382800203a88004827ef004e27ef00e0022000ea
:10383800303a88006027ef006227ef006427ef0026
:103848006627ef006a27ef006c27ef0032002000a0
:1038580080072000a10920003374200080497800e7
:103868008149780082497800120020006004200015
:103878007105200023742000804978008149780070
:103888008249780000000000103a80006100600062
:103898000000e000fcff3a0000000000113a800040
:1038a80000022000008060000000e000fbff320002
:1038b8000080fa00000006000200fa00000f7800fd
:1038c80021028000200f2000008060001e00700090
:1038d800200288000080fa00000006000000fa00bc
:1038e800c3e8a80000000000000000000080fa0003
:1038f800000006000000fa0007000700b7fe0700f6
:10390800c5ff0700f5ff070000022000eaff0700d7
:103918000080fa00000006000000fa00042eef0004
:10392800142eef007001200000708800c0ff2f00e7
:10393800807088000c2eef001c2eef000a2eef007e
:103948001a2eef00062eef00162eef003001200091
:103958007070880000102000f07088000080fa0065
:043968000000060055
:020000040000fa
:10396c00f03fb1000180b10006003500ee03090004
:10397c0000000000403fb1000180b100fbff3d00a2
:10398c001000b000203fb00002003500008009009c
:08399c0000000000000006001d
:020000040000fa
:1039a4000200fa00000f78009e0078001180880061
:1039b400ffff37000000fa00400021008007780074
:1039c400c0012100000188000080fa000000060008
:1039d4000000fa00c8ff07000068290081092000e0
:1039e400e1ff0700140ea8000068290081092000e7
:0c39f400ddff0700140ea900f7ff3700ec
:020000040000fa
:103a00000010000002000000800000000410000010
:103a100020000000800000000210000002000000f2
:0c3a200082000000ffff0000000000001a
:020000040000fa
:020000040005f5
:045fe000cfff0000ef
:020000040000fa
:020000040005f5
:045fe400cfff0000eb
:020000040000fa
:020000040005f5
:045fe8007fff000037
:020000040000fa
:020000040005f5
:045fec005cff000056
:020000040000fa
:020000040005f5
:045ff00078ff000036
:020000040000fa
:020000040005f5
:045ff400ffff0000ab
:00000001FF
