:10000000FC1A040000000000041A0000081A000096
:100010000C1A0000101A0000141A0000181A000030
:100020001C1A0000001A0000201A0000241A000008
:10003000281A00002C1A0000301A0000341A0000A0
:10004000381A00003C1A0000401A0000441A000050
:10005000481A00004C1A0000501A0000541A000000
:10006000581A0000001A00005C1A0000601A000014
:10007000641A0000681A00006C1A0000001A0000E0
:10008000001A0000001A0000701A0000741A000024
:10009000781A00007C1A0000801A0000841A000000
:1000A000881A00008C1A0000901A0000941A0000B0
:1000B000981A00009C1A0000A01A0000A41A000060
:1000C000A81A0000001A0000001A0000001A000020
:1000D000001A0000001A0000001A0000001A0000B8
:1000E000001A0000001A0000001A0000AC1A0000FC
:1000F000B01A0000001A0000001A0000001A0000E8
:10010000001A0000001A0000001A0000B41A0000D3
:10011000B81A0000001A0000001A0000001A0000BF
:10012000001A0000001A0000001A0000BC1A0000AB
:10013000C01A0000C41A0000001A0000001A0000D3
:10014000C81A0000001A0000001A0000001A00007F
:10015000001A0000001A0000001A0000CC1A00006B
:10016000001A0000001A0000001A0000001A000027
:10017000001A0000001A0000001A0000001A000017
:10018000001A0000001A0000001A0000001A000007
:10019000001A0000001A0000001A0000001A0000F7
:1001A000D01A0000D41A0000D81A0000001A00006B
:1001B000001A0000001A0000001A0000001A0000D7
:1001C000001A0000001A0000001A0000001A0000C7
:1001D000001A0000001A0000001A0000001A0000B7
:1001E000001A0000001A0000001A0000001A0000A7
:1001F000001A0000001A0000001A0000001A000097
:10020000001A0000001A0000001A0000001A000086
:10021000001A0000001A0000001A0000001A000076
:10022000001A0000001A0000001A0000001A000066
:10023000001A0000001A0000001A0000001A000056
:10024000001A0000001A0000001A0000001A000046
:10025000001A0000001A0000001A0000001A000036
:10026000DC1A0000E01A0000001A0000E41A000086
:10027000E81A0000EC1A0000F01A0000F41A00005E
:10028000F81A0000001A0000001A0000001A00000E
:10029000001A0000001A0000001A0000001A0000F6
:1002A000001A0000001A0000001A0000001A0000E6
:1002B000001A0000001A0000001A0000001A0000D6
:1002C000001A0000001A0000001A0000001A0000C6
:1002D000001A0000001A0000001A0000001A0000B6
:1002E000001A0000001A0000001A0000001A0000A6
:1002F000001A0000001A0000001A0000001A000096
:10030000001A0000001A0000001A0000001A000085
:10031000001A0000001A0000001A0000001A000075
:10032000001A0000001A0000001A0000001A000065
:10033000001A0000001A0000001A0000001A000055
:10034000001A0000001A0000001A0000001A000045
:10035000001A0000001A0000001A0000001A000035
:10036000001A0000001A0000001A0000001A000025
:10037000001A0000001A0000001A0000001A000015
:10038000001A0000001A0000001A0000001A000005
:10039000001A0000001A0000001A0000001A0000F5
:1003A000001A0000001A0000001A0000001A0000E5
:1003B000001A0000001A0000001A0000001A0000D5
:1003C000001A0000001A0000001A0000001A0000C5
:1003D000001A0000001A0000001A0000001A0000B5
:1003E000001A0000001A0000001A0000001A0000A5
:1003F000001A0000001A0000001A0000001A000095
:10300000FC1A0400000000000000FA00003A8000F2
:103010000080FA00000006000200FA00FAFF070034
:10302000000F78001E007800240007000004E00074
:103030000200320000002800710007001E00780026
:103040002A0007000004E000020032000000240013
:103050006B0007001E007800320007000004E0004B
:103060000200320000202000650007001E007800EA
:103070003A0007000004E0000200320000082000CF
:103080005F0007001E007800420007000004E00017
:103090000200320000042000590007001E007800E2
:1030A0004A0007000004E000020032000001200096
:1030B000530007000080FA00000006000400FA0038
:1030C000100798000040EB00004F78001E009000B1
:1030D0000000E00002003D0010C0B300004F780087
:1030E0001E4078000080FA00000006000400FA008C
:1030F000100798000040EB00004F78009E00900001
:1031000000002400008060000000E00002003200A7
:1031100010C0B300004F78001E4078000080FA0015
:10312000000006000400FA00100798000040EB00C1
:10313000004F78009E00900000202000008060007A
:103140000000E0000200320010C0B300004F780021
:103150001E4078000080FA00000006000400FA001B
:10316000100798000040EB00004F78009E00900090
:1031700000082000008060000000E0000200320033
:1031800010C0B300004F78001E4078000080FA00A5
:10319000000006000400FA00100798000040EB0051
:1031A000004F78009E009000000420000080600026
:1031B0000000E0000200320010C0B300004F7800B1
:1031C0001E4078000080FA00000006000400FA00AB
:1031D000100798000040EB00004F78001E009000A0
:1031E000700060000000E0000200320010C0B30078
:1031F000004F78001E4078000080FA0000000600B2
:103200000200FA00000F78009E80EA00003A800079
:1032100000806000003A88000080FA00000006008C
:103220000000FA004027EF000080FA0000000600CE
:103230000000FA0000022000005888002002200050
:1032400010588800062BEF0000002100205888004D
:103250000A2BEF00082BEF000C2BEF007000200072
:10326000705888000088A900000222008058880059
:103270006004200090588800162BEF000000210009
:10328000A05888001A2BEF00182BEF001C2BEF0022
:1032900070002000F058880001C8A900202BEF0022
:1032A000222BEF00262BEF00000021002059880080
:1032B0002A2BEF00282BEF002C2BEF002E2BEF00FA
:1032C0000308A900302BEF00322BEF00362BEF0064
:1032D00000002100A05988003A2BEF00382BEF00A6
:1032E0003C2BEF003E2BEF000488A9000080FA0081
:1032F000000006000000FA000080FA00000006004E
:103300000000FA0000408000700060000000E00053
:1033100002003200F7FF07000088A9000080FA00D1
:10332000000006000000FA000080FA00000006001D
:103330000000FA00014080000000240000806000CE
:103340000000E00002003200F6FF070001C8A900FB
:103350000080FA00000006000000FA000080FA0079
:10336000000006000000FA0011408000001020005C
:10337000008060000000E00002003200F6FF07005D
:103380000308A9000080FA00000006000000FA000F
:103390000080FA00000006000000FA0020408000D3
:1033A000700060000000E00002003200F7FF07003C
:1033B0000488A9000080FA0000000600F03FB10078
:1033C0000180B10006003500EE0309000000000096
:1033D000403FB1000180B100FBFF3D001000B00094
:1033E000203FB0000200350000800900000000000E
:1033F000000006000000FA000080FA00000006004D
:103400001A1D040000000000FA1B04000000000068
:103410003C1C0400000000009C1C04000000000094
:103420001A1C0400000000005C1C040000000000E6
:103430007C1C040000000000BC1C04000000000014
:10344000001A040000000000001A04000000000040
:10345000001A040000000000001A04000000000030
:10346000001A040000000000001A04000000000020
:10347000001A040000000000001A04000000000010
:10348000001A040000000000001A04000000000000
:10349000001A040000000000001A040000000000F0
:1034A000001A040000000000001A040000000000E0
:1034B000001A040000000000001A040000000000D0
:1034C000001A040000000000001A040000000000C0
:1034D000001A040000000000001A040000000000B0
:1034E000001A040000000000001A040000000000A0
:1034F000001A040000000000001A04000000000090
:10350000001A040000000000001A0400000000007F
:10351000001A040000000000001A0400000000006F
:10352000001A040000000000001A0400000000005F
:10353000001A040000000000E81C04000000000065
:10354000001A040000000000001A0400000000003F
:10355000001A040000000000001A0400000000002F
:10356000001A040000000000001A0400000000001F
:10357000001A040000000000001A0400000000000F
:10358000001A040000000000001A040000000000FF
:10359000001A040000000000001A040000000000EF
:1035A000001A040000000000001A040000000000DF
:1035B000001A040000000000001A040000000000CF
:1035C000001A040000000000001A040000000000BF
:1035D000001A040000000000001A040000000000AF
:1035E000001A040000000000001A0400000000009F
:1035F000001A0400000000000F4021000EFF280008
:103600000E01880000000000000020000000E00023
:103610000200320000012000200288001400070090
:103620001A0107000000E00003003A0000A0220099
:1036300001002000020037000000200001002000EF
:10364000810F7000010032000F0007000000200011
:103650000000E00002003200000002000000000054
:10366000442A0200000000000040DA000000FE00D2
:10367000200020000000E0000200320010002000C6
:103680009001880000000600A102880080047800F4
:103690000000EB001F003700E284440054A0B40097
:1036A0009905BA00E284440054A0B4009906BA0017
:1036B000E284440054A0B4000006EB00476FDE0033
:1036C000FD07B200AE018800636CE10003003A0020
:1036D0000AD801000000EB000E003700606CE1002A
:1036E00008003A00004DEB000A05E800020039002E
:1036F0003420EC000AF0A0008B05E900F9FF3E0041
:10370000040037006168E100010032000086EB0030
:103710000B00070019C7BA000E04E0001905BA0033
:1037200003003A000A00E000DBFF3A000000060058
:10373000FE07B200AE0288008A047800F5FF370069
:103740000CD0A300E20F4D001C0039008902780064
:10375000354DBA000A05E800020039003420EC00BB
:103760000AF0A0008B05E9000F003200254DBA00D9
:103770000A05E800020039003420EC000AF0A0003D
:103780008B05E900080032000C00E0000600320062
:1037900015CDBA000A05E800020039003420EC001B
:1037A0000AF0A0008B05E9008984E80054A0B40069
:1037B0000B00E000E2FF3A00000006009902BA00A8
:1037C000055D78008B05E900F7FF3200C82ADE00AE
:1037D000055D78008B05E900F3FF32000C00E00086
:1037E000F1FF320019DDBA00EEFF370014250400A6
:1037F000000000003600F800809FBE00829FBE00DF
:10380000849FBE00869FBE000000FA00C028A90069
:103810000000EB00100707000080FA004F03BE0015
:103820004F02BE004F01BE004F00BE003600F9003F
:10383000004006003600F800809FBE00829FBE0058
:10384000849FBE00869FBE000000FA0007070700A5
:10385000C048A90010002000FF0607000080FA0001
:103860004F03BE004F02BE004F01BE004F00BE001E
:103870003600F900004006003600F800809FBE00C8
:10388000829FBE00849FBE00869FBE000000FA009B
:10389000C068A90020002000EF0607000080FA00A1
:1038A0004F03BE004F02BE004F01BE004F00BE00DE
:1038B0003600F900004006003600F800809FBE0088
:1038C000829FBE00849FBE00869FBE000000FA005B
:1038D000C088A90030002000DF0607000080FA0041
:1038E0004F03BE004F02BE004F01BE004F00BE009E
:1038F0003600F900004006003600F800809FBE0048
:10390000829FBE00849FBE00869FBE000000FA001A
:10391000C0A8A90040002000CF0607000080FA00E0
:103920004F03BE004F02BE004F01BE004F00BE005D
:103930003600F900004006003600F800809FBE0007
:10394000829FBE00849FBE00869FBE000000FA00DA
:10395000C608A90070002000BF0607000080FA001A
:103960004F03BE004F02BE004F01BE004F00BE001D
:103970003600F900004006003600F800809FBE00C7
:10398000829FBE00849FBE00869FBE000000FA009A
:103990002146800000022000008060000000E0005E
:1039A00003003200C4A8A90090002000AA06070066
:1039B00020468000700060000000E000030032003C
:1039C000C488A900A0002000A3060700FFFF37005D
:1039D0003600F800809FBE00829FBE00849FBE001C
:1039E000869FBE000000FA005120800000042000E5
:1039F000008060000000E0000600320020808000AF
:103A00000000E00002003200208080000000010081
:103A10000AC4A9000468A9000080FA004F03BE0090
:103A20004F02BE004F01BE004F00BE003600F9003D
:103A3000004006000040DA000000FE000800FA0026
:103A4000100798002107980032079800BE009000E8
:103A5000010F7800070037002E009000104078001A
:103A6000AE0090008100E80021079800A105070042
:103A70001E0FE9001E0078000000E000F6FF3A008B
:103A80003E0090000080FA000000060000000500E3
:103A90000200FA00000F78001E007800E10F5000CD
:103AA00009003200E10F500005003900E20F50001C
:103AB00007003200E30F5000070032000800370013
:103AC00001EBA8000600370011EBA8000400370046
:103AD00021EBA8000200370031EBA8000000000035
:103AE0000080FA00000006000400FA00000F7800D1
:103AF000110798001E007800E10F50000B00320003
:103B0000E10F500005003900E20F50000B003200B9
:103B1000E30F50000D003200100037009E009000AF
:103B200021588800062BEF000C0037009E00900003
:103B3000A1588800162BEF00080037009E00900067
:103B400021598800262BEF00040037009E009000CA
:103B5000A1598800362BEF00000000000080FA0019
:103B6000000006000400FA00000F7800110798001A
:103B70001E007800E10F50000A003200E10F5000F3
:103B800005003900E20F500009003200E30F500039
:103B90000A0032000C0037009E0090006158880037
:103BA000090037009E009000E158880006003700A9
:103BB0009E00900061598800030037009E0090002D
:103BC000E1598800000000000080FA0000000600B3
:103BD0000C00FA00004F9800510798000000EB001D
:103BE000100798000000EB00000F78006000B8009C
:103BF00020079800310798000E4890000080FB00D5
:103C0000C400DD000020210000804000100078008A
:103C100061006000100798001E0090000000E000A6
:103C200018003A000E4890000080FB00C400DD0040
:103C3000002021000080400090007800C0FF21009B
:103C4000008060004200DE008000EB005E0190001A
:103C50000089BE005E009000A00090000100A1005D
:103C6000210098000E4890000080FB00C400DD0099
:103C7000002021000080400010007800620F6000EA
:103C80006C0037000E4890000080FB00C400DD008F
:103C90000020210000804000100078006101B80081
:103CA000C0FF21000100200002027800030178001B
:103CB00080017800010078000302620000006100CA
:103CC0008000EB00C000DD00000020000001BE000D
:103CD0006120B80000017100818171002207980005
:103CE000330798002E009000BE009000C000DD0059
:103CF000000020005E0190000089BE005E00900080
:103D000010027800900290000E4890000080FB00A6
:103D10004400DD008080E800002021000080400099
:103D2000100078006101B800F0FF200001002000C1
:103D30000203780003017800800178000100780018
:103D400003036300000061008000EB00C000DD00A1
:103D5000000020000001BE006130B80000017100C9
:103D6000818171004618DD00CA10DE0081007000FC
:103D70004610DD0004004000858048005E01900090
:103D80000089BE005E009000100278009002900052
:103D90000E4890000080FB004400DD00E40040007D
:103DA0000020210000804000100078004A00DE0062
:103DB0006101B800F0FF2F0001002000020378002D
:103DC000030178008001780001007800030363009C
:103DD000000061008000EB00C000DD00000020005A
:103DE0000001BE006130B8000001710081817100E6
:103DF00004004100858049005E0190000089BE00FA
:103E00005E009000A00090000100A000210098003A
:103E10000E4890000080FB004400DD00E4004000FC
:103E20000020210000804000900078000020200049
:103E3000008F60001E0078000000E00005003200E6
:103E40005E009000A00090000110A00021009800EA
:103E50007B0037005E009000A00090000110A100E0
:103E6000210098005E009000300090008E48900085
:103E70008180FB00C408DD00668140000120210034
:103E8000810041009100780081407800014878006D
:103E90005E009000300090000000E8008E48900026
:103EA0008180FB00C408DD00668140000120210004
:103EB0008100410091007800C808DE008140780050
:103EC000014878005E009000300090000080E8001B
:103ED0008E4890008180FB00C408DD0068814000AE
:103EE000012021008100410091007800814078008C
:103EF000014878005E0090003000900063004000B0
:103F00008E4890008180FB00C408DD00688140007D
:103F1000012021008100410091007800C808DE00E6
:103F200081407800014878005E00900030009000E9
:103F3000640040008E4890008180FB00C408DD00D2
:103F40006A81400001202100810041009100780039
:103F500081407800014878005E00900030009000B9
:103F6000650040008E4890008180FB00C408DD00A1
:103F70006A81400001202100810041009100780009
:103F8000C808DE0081407800014878005E0090009B
:103F900030009000660040008E4890008180FB0059
:103FA000C408DD006C814000012021008100410037
:103FB0009100780081407800014878005E00900010
:103FC00030009000670040008E4890008180FB0028
:103FD000C408DD006C814000012021008100410007
:103FE00091007800C808DE00814078000148780020
:103FF0000E4890000080FB004400DD00E40040001B
:10400000002021000080400010007800004078006F
:104010006F4060006F4060006F406000DE00900005
:104020000080FB006F0060004200DD00A1019000F5
:1040300032FC2F000281610002007000A000980095
:104040000080FA00000006000400FA00000F78006B
:10405000110798001E009000200090006100600091
:104060000000E00015003A001E0090009000900053
:104070001000780080007800F07F20000080600051
:10408000C200DD001E007800010878001E80E800F4
:104090008000EB00010878009E00780064804000FA
:1040A0009E009000A1009000C208DE00EFC06000FA
:1040B0008180FB0001087800250037001E00900079
:1040C00090009000100078004008DE00800078002A
:1040D000C0FF210000806000800078000100A00087
:1040E0001E007800010878001E81E8001E00900084
:1040F0009000900010007800CA09DD004600DE0044
:1041000000807100C608DE0080007800F0FF20000B
:1041100000806000000978009E0078006481400003
:104120001E009000200090004200DE006F40600002
:104130008081FB001E00900090009000100078002D
:10414000000078004A00DD0000804100000978008E
:104150001E009000300090000000E0003B003200A4
:104160009E017800668041009E009000B1009000A2
:104170008100E800914078008180FB004809DD0063
:104180009E009000B1009000914078008180FB007B
:1041900081004100010878009E007800688040009E
:1041A0009E009000B1009000E380400091407800B4
:1041B0008180FB004809DD009E009000B100900066
:1041C0008180E800914078008180FB0081004100FF
:1041D000010878009E0178006A8041009E009000EE
:1041E000B1009000E5804000914078008180FB00A4
:1041F0004809DD009E009000B1009000E48040007E
:10420000914078008180FB00810041000108780026
:104210009E0078006C8040009E009000B1009000ED
:10422000E7804000914078008180FB004809DD0074
:104230009E009000B1009000E68040009140780020
:104240008180FB0081004100010878000080FA00B5
:10425000000006000000FA002468A9000C24EF000A
:1042600001208000F08F2F000080600000A0A000DF
:10427000002088000000000001208000000E2000C7
:104280008080600000082000808F5000FAFF3A0014
:104290002000200080208800801A200090208800C4
:1042A00080002C003020880010002000A020880012
:1042B0000024EF000004A800C1208000C0FF2F00F0
:1042C00000806000C02088008121800000FE2F0057
:1042D0000100700080218800A02180007F00600024
:1042E000A0218800C02180007F006000C0218800DC
:1042F00081218000C0FF2F000080600080218800A5
:10430000A1218000C0FF2F0000806000A021880054
:10431000C1218000C0FF2F0000806000C021880004
:104320003224EF003624EF003A24EF003064A90075
:104330003464A9003864A90000228000FF006000F6
:104340000046220001007000002288000122800047
:10435000C0FF2F0000806000002288004224EF0090
:104360004064A90000218000F000B3000021880013
:104370000004A90030E4A80031E4A80032E4A80059
:1043800033E4A80034E4A80035E4A80036E4A8002B
:1043900037E4A80081218000C0FF2F00008060006A
:1043A0008021880081218000F0CF2F0000806000F4
:1043B0008021880091218000C0FF2F0000806000D4
:1043C0009021880091218000F0CF2F0000806000B4
:1043D00090218800A1218000C0FF2F000080600094
:1043E000A0218800A1218000F0CF2F000080600074
:1043F000A0218800B1218000C0FF2F000080600054
:10440000B0218800B1218000F0CF2F000080600033
:10441000B02188002024EF002224EF002824EF00A0
:104420002A24EF000A24A90001208000F08F2F0029
:104430000080600000208800000000000120800053
:10444000000E2000008060000000E000FBFF3A004A
:1044500040512200770107002468A8000080FA007C
:10446000000006000000FA002044200080007800D0
:1044700010002000BBFD0700002021008000780014
:104480001000200098FD07001000200080FD0700AC
:104490000080FA00000006000000FA00004420003E
:1044A000800078000000EB00AEFD07000020210036
:1044B000800078000000EB008BFD07000000EB009F
:1044C00073FD07000080FA00000006000400FA00F7
:1044D000100798000000EB00000F78002100070093
:1044E000E40F5000060032001E009000E10F500063
:1044F000030032001E009000E40F500014003A0048
:104500001E00900000407800674060000080FB00C3
:10451000670060004800DD0002208000F18F2F005E
:104520008100610001007000002088000000000090
:10453000002080004500DE00674060008080FB00B6
:104540001E009000808F5000F9FF3A0002003700F3
:1045500010002000000F78001E0078000080FA0094
:10456000000006000000FA00002080004500DE0088
:10457000674060000080FB000080FA000000060039
:104580000C00FA0040079800510798000000EB006B
:10459000000F780000432000100798000040EB0057
:1045A000604798005E009000200090004200DE000E
:1045B0006F4060000080FB00E80F500001003400F5
:1045C0001E00A0000000EB00200798002800370024
:1045D0001E0090009040780000C8B30000C060004A
:1045E0000004E0001C0032001E0090001040780023
:1045F000684060000004E00017003A00012021003C
:104600002E0090004400DD0000804000DE0090009D
:104610008DFE07004E00900000407800E3406000EF
:104620001E009000E3C0600090417800C2CFB3004C
:1046300002C1610081407100014878001E009000B5
:10464000904078000134A0000148780010C0B30009
:1046500060479800090037001E0090000000E80045
:10466000100798002E0090000000E8002007980036
:104670002E009000E70F5000D5FF36006E409000EE
:104680000004A2000004E000020032009E00780056
:10469000638F70001E0078000080FA0000000600A2
:1046A0000A00FA00400798000040EB0020479800FD
:1046B00050208000640060000000E0000300320031
:1046C0000A44A9002E409000390037004E009000A7
:1046D000300090000000E00002003A002E40900000
:1046E000330037004020800000407800F043B200E3
:1046F0000080FB00300798003E009000EF0F500054
:1047000005003E000121800021079800BE009000B6
:10471000010F780004003700112180002107980064
:104720003E009000700F50001E007800AE00900018
:104730000008DE0061006000004078000004E00036
:104740001A0032003E00900000407800CE00900039
:104750001FFD07003E009000EF0F500009003E00D3
:104760001E007800110020000008DD000080EA0033
:104770008000780000218000008060000021880017
:10478000080037001E007800110020000008DD003E
:104790000080EA0080007800102180000080600026
:1047A0001021880010C0B300204798002E409000D0
:1047B0000080FA00000006000000FA00502080008F
:1047C0004D00DE00614060000080FB0000F0A700AB
:1047D0000000EA000000EA004F00DE000040780020
:1047E0000080FA00000006000000FA00502080005F
:1047F0004B00DE00614060000080FB0000F0A7007D
:104800000000EA000000EA004F00DE0000407800EF
:104810000080FA00000006000000FA00502080002E
:104820004900DE00614060000080FB0000F0A7004E
:104830000000EA000000EA004F00DE0000407800BF
:104840000080FA00000006000200FA000040EB00C1
:10485000004F78000EC4BF000004E00005003200E5
:104860000EC4BF000004E0000200350010C0B30019
:10487000004F78001E4078000080FA00000006001B
:104880000000FA00502080004C00DE006140600013
:104890000080FB0000F0A7000000EA000000EA0032
:1048A0004F00DE00004078000080FA0000000600A3
:1048B0000000FA00502080004A00DE0061406000E5
:1048C0000080FB0000F0A7000000EA000000EA0002
:1048D0004F00DE00004078000080FA000000060073
:1048E0000200FA000040EB00004F78000FC4BF0048
:1048F0000004E000050032000FC4BF000004E00027
:104900000200350010C0B300004F78001E40780050
:104910000080FA00000006000600FA000000EB002C
:10492000000F780001218000210798002E009000E0
:104930000000E000110032000000EB0010079800BA
:104940000B0037001E009000AE0090000008DE0053
:1049500061006000004078000004E00001003200C7
:104960001E0FE8001E0090000000E80010079800ED
:104970001E009000EF0F5000F2FF36001121800062
:10498000210798002E0090000000E0001100320086
:104990000000EB00100798000B0037001E0090008D
:1049A000AE0090000008DE0061006000004078006A
:1049B0000004E000010032001E0FE8001E0090001D
:1049C0000000E800100798001E009000EF0F500054
:1049D000F2FF36001E007800004078000080FA00E8
:1049E000000006000000FA000AC4A9000CC4A800D8
:1049F00001208000F08F2F00008060000080A00068
:104A0000002088000000000001208000000E20002F
:104A10008080600000022000808F5000FAFF3A0082
:104A20000080FA00000006000000FA000080FA0092
:104A3000000006000200FA00000F78001E00780057
:104A4000208088000080FA00000006001400FA00B0
:104A5000000F9800110F980003000900001FEB00E1
:104A60008E00B1007E0798001E0890009000900014
:104A70001000780040079800510798001E08900029
:104A800040409000614060000080FB0061006000D9
:104A9000EE0090000100A100010070006007980086
:104AA0001E08900050409000614060000080FB00B4
:104AB0006100600000004000EE0090000110A100C5
:104AC00001007000600798001E0890006040900090
:104AD0006F4060000080FB006F0060004200DD005E
:104AE0006E01900031FC2F00810061000100700018
:104AF000600798007E0090009E089000F1409000B2
:104B0000014878007E0090000000E8009E089000B8
:104B100081489000014878007E0090000080E80005
:104B20009E08900091489000014878007E00900017
:104B3000630040009E089000A14890000148780062
:104B40007E009000640040009E089000B1489000F4
:104B5000014878007E009000650040009E089000AB
:104B6000C1489000014878007E0090006600400037
:104B70009E089000D1489000014878007E00900087
:104B8000670040009E089000E148900001487800CE
:104B900068004700800078000E08900078FE07004B
:104BA00000F0A7000000EA000000EA004F00DE006D
:104BB000004078000080FA00000006001400FA00AF
:104BC000100F98000040EB00004F7800E100470014
:104BD000070009008058EB000E00E800000F980065
:104BE0006A004700AEFE07000004E0004300320008
:104BF0005E009000EE0090001E0990000089BE004B
:104C00007E00900061406000804078001E089000A7
:104C1000414098007E009000620060000000E000CB
:104C2000040032001E08900021C0B30051409800DB
:104C3000030037001E08900011C0B30051409800D7
:104C40000E089000904078001E0890007140980077
:104C50000E0890000000E800904078001E089000C8
:104C6000014898000E0890000080E800904078000D
:104C70001E089000114898000E0890006300400044
:104C8000904078001E089000214898000E0890007F
:104C900064004000904078001E0890003148980061
:104CA0000E08900065004000904078001E089000BB
:104CB000414898000E08900066004000904078003F
:104CC0001E089000514898000E08900067004000B0
:104CD000904078001E089000614898007E00900087
:104CE0004200DE006F406000804078001E089000A7
:104CF0006140980010C0B300004F78001E4078005B
:104D00000080FA00000006000000FA005020800039
:104D10004D00DE00614060000080FB0000F0A70055
:104D20000000EA000000EA004F00DE0000407800CA
:104D30000080FA00000006000000FA005020800009
:104D40004B00DE00614060000080FB0000F0A70027
:104D50000000EA000000EA004F00DE00004078009A
:104D60000080FA00000006000000FA0050208000D9
:104D70004C00DE00614060000080FB0000F0A700F6
:104D80000000EA000000EA004F00DE00004078006A
:104D90000080FA00000006000600FA000000EB00A8
:104DA000000F780001218000210798002E0090005C
:104DB0000000E000110032000000EB001007980036
:104DC0000B0037001E009000AE0090000008DE00CF
:104DD00061006000004078000004E0000100320043
:104DE0001E0FE8001E0090000000E8001007980069
:104DF0001E009000EF0F5000F2FF360011218000DE
:104E0000210798002E0090000000E0001100320001
:104E10000000EB00100798000B0037001E00900008
:104E2000AE0090000008DE006100600000407800E5
:104E30000004E000010032001E0FE8001E00900098
:104E40000000E800100798001E009000EF0F5000CF
:104E5000F2FF36001E007800004078000080FA0063
:104E6000000006000000FA000AC4A9000CC4A80053
:104E700001208000F08F2F00008060000080A000E3
:104E8000002088000000000001208000000E2000AB
:104E90008080600000022000808F5000FAFF3A00FE
:104EA0000080FA00000006000000FE0062022100FF
:104EB0000019780001097800000006000000FE00DB
:104EC0000000EB008000EB00F8FF07002E27EF004A
:104ED000000006000000FE000000FE00801F7800B9
:104EE000811F7800821F7800610221001246800035
:104EF000C3E8A900310078007039880011007800FB
:104F00007039880029E7A8000000000000000000B8
:104F100029E7AF00FEFF370002F0A700C3E8A800B2
:104F20004F017800CF0078004F00780000000600A5
:104F30000000FE00A2028000A10288009080BA005A
:104F40001000BA00A2028800000006000000FE0067
:104F5000A2028000A10288001000BA00A20288000C
:104F6000000006000000FE00F27F2000000161004A
:104F700008003A0032002400423988005039880085
:104F8000613988006E270200000000001000200038
:104F900029A7AF0000002000000006000000FE006E
:104FA00029E7AF00FEFF37000000A700130037001D
:104FB0000010A700110037006139880050398800BF
:104FC0001000240040398800A0028000A10F2000BA
:104FD000A1028800010020008208BB008398BB006A
:104FE0008408BB008598BB006E270200000000000B
:104FF000A00288001000200029A7AF0000002000B8
:10500000000006000000FE0029E7AF00FEFF3700A9
:105010000000A700140037000010A700120037009E
:105020006139880050398800A102800010002400F6
:1050300040398800A00F2000A00288000000200056
:105040000208BB00F20F20000298BB000308BB005F
:105050000298BB006E27020000000000A102880039
:105060001000200029A7AF0000002000000006006B
:10507000F27F2000000061000000060002802F0087
:1050800000006100F2FF2F008100610000000600B7
:105090000000FA0080002000001188002222EF00AA
:1050A000C03020004011880021E2A8002342A8005F
:1050B0000080FA00000006000000FA000000000076
:1050C00010118000610060000000E000FCFF320071
:1050D00010118000620060000000E000010032005A
:1050E0002222A90030118000004078000080FA00E0
:1050F000000006000200FA00004F780000000000E7
:105100001111800000202000008060000000E000FD
:10511000FBFF3A001E80FB00201188000080FA008F
:10512000000006000000FA00101180000040780026
:10513000614060000080FB0000F0A7000000EA0072
:105140000000EA004F00DE00004078000080FA0016
:10515000000006000000FA0011118000002020006D
:10516000008060000000E00007003A00111180009C
:1051700000402000008060000000E00002003200DB
:1051800010002000010037000000EB000040780014
:105190000080FA00000006000000FA0010118000F4
:1051A0004800DE00614060000080FB0000F0A700C6
:1051B0000000EA000000EA004F00DE000040780036
:1051C0000080FA00000006000000FA0010118000C4
:1051D0000080FA00000006000000FA0021E2A800AA
:1051E0002342A8000080FA00000006000000FA0038
:1051F00021E2A9002342A9000080FA000000060075
:105200000000FA00042EEF0000012000A0708800CA
:105210007001200000708800F0DE2F008070880090
:105220000C2EEF001C2EEF000A2EEF001A2EEF00BE
:10523000062EEF00162EEF0030012000707088005F
:1052400030002000F0708800113A8000F00B200040
:10525000008160006004200071052000237420009C
:1052600080497800814978008249780021368000A1
:1052700000F82F00808060005002200001007000C4
:10528000203688001134800000FC2F000080600070
:105290000000A0001034880031348000F00F2C0092
:1052A0008080600000E02000010070003034880041
:1052B000A136800000F82F0080806000800220006E
:1052C00001007000A0368800103A800000017800CC
:1052D0000260A000600420007105200023742000FB
:1052E0008049780081497800824978000080FA007E
:1052F000000006000000FA0000142300203A880095
:105300004827EF004E27EF00E0022000303A8800E7
:105310006027EF006227EF006427EF006627EF00A9
:105320006A27EF006C27EF00320020008007200082
:10533000A109200033742000804978008149780059
:1053400082497800120020006004200071052000CE
:1053500023742000804978008149780082497800D0
:1053600000000000103A8000610060000000E000D2
:10537000FCFF3A0000000000113A8000000220000B
:10538000008060000000E000FBFF32000080FA00B7
:10539000000006000200FA00000F780021028000E1
:1053A000200F2000008060001E0070002002880096
:1053B0000080FA00000006000000FA00C3E8A80020
:1053C00000000000000000000080FA00000006005D
:1053D0000000FA008AFF0700C6FF070005F8070073
:1053E0002BFF07009BFB070091F70700F2FF070068
:1053F00000022000E7FF07000080FA00000006001E
:1054000006100000200000008000000000100000D6
:105410000200000082000000FFFF000002100000F8
:1054200002000000800000002610000004000000C0
:1054300082000000FFFFFF00FF00000000120000DC
:1054400000020000800000000410000002000000C4
:1054500080000000000000000200FA00000F780049
:105460009E00780001808800FFFF37000000FA00EE
:105470006000210080077800E00121000001880021
:105480000080FA00000006000000FA00D0FF0700CC
:10549000100EA9000068290081092000C7F7070045
:1054A000140EA8000068290081092000C3F7070036
:0C54B000140EA900F7FF3700FFFF3700C3
:020000040005F5
:105FE000CFFF0000CFFF00007FFF00005CFF00003C
:085FF00078FF0000FFFF000034
:00000001FF
