:100000000002040000000000041A0000081A0000AA
:100010000C1A0000101A0000141A0000181A000030
:100020001C1A0000001A0000201A0000241A000008
:10003000281A00002C1A0000301A0000341A0000A0
:10004000381A00003C1A0000401A0000441A000050
:10005000481A00004C1A0000501A0000541A000000
:10006000581A0000001A00005C1A0000601A000014
:10007000641A0000681A00006C1A0000001A0000E0
:10008000001A0000001A0000701A0000741A000024
:10009000781A00007C1A0000801A0000841A000000
:1000A000881A00008C1A0000901A0000941A0000B0
:1000B000981A00009C1A0000A01A0000A41A000060
:1000C000A81A0000001A0000001A0000001A000020
:1000D000001A0000001A0000001A0000001A0000B8
:1000E000001A0000001A0000001A0000AC1A0000FC
:1000F000B01A0000001A0000001A0000001A0000E8
:10010000001A0000001A0000001A0000B41A0000D3
:10011000B81A0000001A0000001A0000001A0000BF
:10012000001A0000001A0000001A0000BC1A0000AB
:10013000C01A0000C41A0000001A0000001A0000D3
:10014000C81A0000001A0000001A0000001A00007F
:10015000001A0000001A0000001A0000CC1A00006B
:10016000001A0000001A0000001A0000001A000027
:10017000001A0000001A0000001A0000001A000017
:10018000001A0000001A0000001A0000001A000007
:10019000001A0000001A0000001A0000001A0000F7
:1001A000D01A0000D41A0000D81A0000001A00006B
:1001B000001A0000001A0000001A0000001A0000D7
:1001C000001A0000001A0000001A0000001A0000C7
:1001D000001A0000001A0000001A0000001A0000B7
:1001E000001A0000001A0000001A0000001A0000A7
:1001F000001A0000001A0000001A0000001A000097
:10020000001A0000001A0000001A0000001A000086
:10021000001A0000001A0000001A0000001A000076
:10022000001A0000001A0000001A0000001A000066
:10023000001A0000001A0000001A0000001A000056
:10024000001A0000001A0000001A0000001A000046
:10025000001A0000001A0000001A0000001A000036
:10026000DC1A0000E01A0000001A0000E41A000086
:10027000E81A0000EC1A0000F01A0000F41A00005E
:10028000F81A0000001A0000001A0000001A00000E
:10029000001A0000001A0000001A0000001A0000F6
:1002A000001A0000001A0000001A0000001A0000E6
:1002B000001A0000001A0000001A0000001A0000D6
:1002C000001A0000001A0000001A0000001A0000C6
:1002D000001A0000001A0000001A0000001A0000B6
:1002E000001A0000001A0000001A0000001A0000A6
:1002F000001A0000001A0000001A0000001A000096
:10030000001A0000001A0000001A0000001A000085
:10031000001A0000001A0000001A0000001A000075
:10032000001A0000001A0000001A0000001A000065
:10033000001A0000001A0000001A0000001A000055
:10034000001A0000001A0000001A0000001A000045
:10035000001A0000001A0000001A0000001A000035
:10036000001A0000001A0000001A0000001A000025
:10037000001A0000001A0000001A0000001A000015
:10038000001A0000001A0000001A0000001A000005
:10039000001A0000001A0000001A0000001A0000F5
:1003A000001A0000001A0000001A0000001A0000E5
:1003B000001A0000001A0000001A0000001A0000D5
:1003C000001A0000001A0000001A0000001A0000C5
:1003D000001A0000001A0000001A0000001A0000B5
:1003E000001A0000001A0000001A0000001A0000A5
:1003F000001A0000001A0000001A0000001A000095
:100400000F4021000EFF28000E01880000000000B0
:10041000000020000000E000020032000001200087
:100420002002880014000700060107000000E00019
:1004300003003A00004021000100200002003700C4
:100440000000200001002000810F70000100320038
:100450000F000700000020000000E0000200320052
:1004600000000200000000005C1602000000000016
:100470000040DA000000FE00200020000000E00044
:1004800002003200100020009001880000000600E9
:10049000A1028800800478000000EB001F003700F4
:1004A000E284440054A0B4009905BA00E2844400F8
:1004B00054A0B4009906BA00E284440054A0B400E9
:1004C0000006EB00476FDE00FD07B200AE018800BA
:1004D000636CE10003003A000AD801000000EB0061
:1004E0000E003700606CE10008003A00004DEB00A0
:1004F0000A05E800020039003420EC000AF0A000F0
:100500008B05E900F9FF3E00040037006168E10057
:10051000010032000086EB000B00070019C7BA008B
:100520000E04E0001905BA0003003A000A00E000DA
:10053000DBFF3A0000000600FE07B200AE028800B2
:100540008A047800F5FF37000CD0A300E20F4D00BD
:100550001C00390089027800354DBA000A05E80010
:10056000020039003420EC000AF0A0008B05E900FD
:100570000F003200254DBA000A05E80002003900DC
:100580003420EC000AF0A0008B05E90008003200DE
:100590000C00E0000600320015CDBA000A05E800A4
:1005A000020039003420EC000AF0A0008B05E900BD
:1005B0008984E80054A0B4000B00E000E2FF3A0098
:1005C000000006009902BA00055D78008B05E9007D
:1005D000F7FF3200C82ADE00055D78008B05E900D0
:1005E000F3FF32000C00E000F1FF320019DDBA0029
:1005F000EEFF370074160400000000003600F8001B
:10060000809FBE00829FBE00849FBE00869FBE006A
:100610000000FA00C028A9000000EB00A1090700B3
:100620000080FA004F03BE004F02BE004F01BE0023
:100630004F00BE003600F900004006003600F8000A
:10064000809FBE00829FBE00849FBE00869FBE002A
:100650000000FA0079090700C048A9001000200036
:10066000900907000080FA004F03BE004F02BE0051
:100670004F01BE004F00BE003600F90000400600EA
:100680003600F800809FBE00829FBE00849FBE009F
:10069000869FBE000000FA00C068A900200020006C
:1006A000800907000080FA004F03BE004F02BE0021
:1006B0004F01BE004F00BE003600F90000400600AA
:1006C0003600F800809FBE00829FBE00849FBE005F
:1006D000869FBE000000FA00C088A90030002000FC
:1006E000700907000080FA004F03BE004F02BE00F1
:1006F0004F01BE004F00BE003600F900004006006A
:100700003600F800809FBE00829FBE00849FBE001E
:10071000869FBE000000FA00C0A8A900400020008B
:10072000600907000080FA004F03BE004F02BE00C0
:100730004F01BE004F00BE003600F9000040060029
:100740003600F800809FBE00829FBE00849FBE00DE
:10075000869FBE000000FA00C608A90070002000B5
:10076000500907000080FA004F03BE004F02BE0090
:100770004F01BE004F00BE003600F90000400600E9
:100780003600F800809FBE00829FBE00849FBE009E
:10079000869FBE000000FA00214680000002200073
:1007A000008060000000E00003003200C4A8A9003F
:1007B000900020003B090700204680007000600088
:1007C0000000E00003003200C488A900A00020005F
:1007D00034090700FFFF37003600F800809FBE0095
:1007E000829FBE00849FBE00869FBE000000FA006C
:1007F0005120800000042000008060000000E00024
:1008000006003200608080000000E000020032003C
:1008100060808000000001000AC4A9000468A900EB
:100820000080FA004F03BE004F02BE004F01BE0021
:100830004F00BE003600F900004006000040DA001C
:100840000000FE00000005000001EB0006000700AC
:10085000040032000200200003F8230001F0A6008B
:100860008100070000000600889FBE008A9FBE002E
:100870000003BE00660007008505780082815200F3
:10088000020020006220E10004003A00F307B100FA
:10089000040035007718E100040035000600BE00B2
:1008A000140037006000B8000F003700F50F20007B
:1008B000FAFF2F008502D1000A85D3008301E900E9
:1008C000FCFF3B008184620000046500890F740016
:1008D000F2FF32008582EA000A85EA008184620024
:1008E000000465002400070007F0A70001F0A00045
:1008F0000081EB000200E0004F05BE004F04BE0087
:10090000000006000001BE00410007000470A700BF
:1009100003F0A10003F8A30013003A006509B10039
:1009200010003200090035006928E100020035009E
:100930000100280000000500000040008180480000
:100940008502E900FCFF3A0000000600F88F420033
:10095000050035008100D1000080D3008502E80049
:10096000FCFF3A00000006008000EB0000000500DC
:100970006011B800990037008100200061805500A7
:100980000B003D000B00200061FE2F000100E10084
:100990001D00340082817100610164008904D1006E
:1009A0000884D3000000E800FAFF3A00710020003C
:1009B0006100640003007000020060000900320062
:1009C00061044400E0844C000988A5000500320061
:1009D0008B05E8006808E10002003A008904D100B4
:1009E0000884D300F20F20000258E10005003D000A
:1009F000C75DDD00F907B200898075000800780046
:100A0000000006000BF827008B00780000000500AE
:100A1000C70ADE00F107B200F50FB200080032008D
:100A2000E1CF4200020032000170A0002400050066
:100A3000810F700001003200040805004400050029
:100A4000810F700002003A00140005008502E900E1
:100A50000000400081C04800FCFF3B000170A00086
:100A60002400050003F0A200889FBE008A9FBE00FC
:100A70008C1F7800880007008F0033006450E1006D
:100A80004F0032006420E1005200320003826C000B
:100A900007003B000905D0000306D000820F540078
:100AA0000C065D0002003900020032008901780066
:100AB000030678008582550004003D000003FD0018
:100AC0008103FD008502EA008B854200840F7200DD
:100AD00002003B0060001000E08018006011B800C8
:100AE0000005EB007A28E1000A00390006007800D2
:100AF000C75DDD00F707B200878075002D00370065
:100B0000828171000A017800610560008180D10056
:100B10000080D3008502E900F9FF3B000604400095
:100B20008784480002003B0060041400E0841C003D
:100B30000988A300070032008A8171008281710058
:100B4000610164008904D1000884D3008B05E800AA
:100B5000170037000978A30013003A000B00E000EB
:100B6000130034008B05E9000804440089844C001C
:100B70000A4474000978A3000D003A000B00E0005D
:100B8000070034008B05E9000804440089844C0008
:100B900001003A000B0020000978A300F7FF3200A3
:100BA0000001EB0002003700828171000A01780029
:100BB00071FF07000CF0A70001F0A000470037000C
:100BC0006420E10002003A00838F6C00470033008C
:100BD0000801BE000200BE0040003700889FBE0032
:100BE0008A9FBE00008270000402710004827100BE
:100BF000260032000004BE000200BE006011B800F2
:100C00006B092000950220000182CF000A00390004
:100C10000541B1000082CF00070039000541B10055
:100C20000982CF00040039000541B1000882CF00DD
:100C3000010039000541B1000542520012003200A6
:100C40000A003B0082817100610164008100D100D3
:100C50000080D3008984D3000884D3008B05E8008A
:100C60000442E800F7FF3A00070037000804440098
:100C700089844C0000004800818048008B05E90011
:100C80000442E900F9FF3A003BFF07004F05BE00B0
:100C90004F04BE00000006000004BE005CFF070019
:100CA0000003BE000405BE000200BE0058FF07009E
:100CB000844F7500000006000200BE006450E10091
:100CC000050036006420E100020036000968A30038
:100CD00001003A000800BE000160A0004F06780045
:100CE0004F05BE004F04BE0000000600F0FF2F00BD
:100CF000F1FF2700F9FF370080017800020037007C
:100D0000B15978000201E9000200E000FCFF3A005E
:100D10000000060080017800020037008159780049
:100D20000201E9000200E000FCFF3A0000000600BA
:100D30000C00FA00004F9800510798000000EB00EB
:100D4000100798000000EB00000F78006000B8006A
:100D500020079800310798000E4890000080FB00A3
:100D6000C400DD0000202100008040001000780059
:100D700061006000100798001E0090000000E00075
:100D800018003A000E4890000080FB00C400DD000F
:100D9000002021000080400090007800C0FF21006A
:100DA000008060004200DE008000EB005E019000E9
:100DB0000089BE005E009000A00090000100A1002C
:100DC000210098000E4890000080FB00C400DD0068
:100DD000002021000080400010007800620F6000B9
:100DE0006C0037000E4890000080FB00C400DD005E
:100DF0000020210000804000100078006101B80050
:100E0000C0FF2100010020000202780003017800E9
:100E10008001780001007800030262000000610098
:100E20008000EB00C000DD00000020000001BE00DB
:100E30006120B800000171008181710022079800D3
:100E4000330798002E009000BE009000C000DD0027
:100E5000000020005E0190000089BE005E0090004E
:100E600010027800900290000E4890000080FB0075
:100E70004400DD008080E800002021000080400068
:100E8000100078006101B800F0FF20000100200090
:100E900002037800030178008001780001007800E7
:100EA00003036300000061008000EB00C000DD0070
:100EB000000020000001BE006130B8000001710098
:100EC000818171004618DD00CA10DE0081007000CB
:100ED0004610DD0004004000858048005E0190005F
:100EE0000089BE005E009000100278009002900021
:100EF0000E4890000080FB004400DD00E40040004C
:100F00000020210000804000100078004A00DE0030
:100F10006101B800F0FF2F000100200002037800FB
:100F2000030178008001780001007800030363006A
:100F3000000061008000EB00C000DD000000200028
:100F40000001BE006130B8000001710081817100B4
:100F500004004100858049005E0190000089BE00C8
:100F60005E009000A00090000100A0002100980009
:100F70000E4890000080FB004400DD00E4004000CB
:100F80000020210000804000900078000020200018
:100F9000008F60001E0078000000E00005003200B5
:100FA0005E009000A00090000110A00021009800B9
:100FB0007B0037005E009000A00090000110A100AF
:100FC000210098005E009000300090008E48900054
:100FD0008180FB00C408DD00668140000120210003
:100FE000810041009100780081407800014878003C
:100FF0005E009000300090000000E8008E489000F5
:101000008180FB00C408DD006681400001202100D2
:101010008100410091007800C808DE00814078001E
:10102000014878005E009000300090000080E800E9
:101030008E4890008180FB00C408DD00688140007C
:10104000012021008100410091007800814078005A
:10105000014878005E00900030009000630040007E
:101060008E4890008180FB00C408DD00688140004C
:10107000012021008100410091007800C808DE00B5
:1010800081407800014878005E00900030009000B8
:10109000640040008E4890008180FB00C408DD00A1
:1010A0006A81400001202100810041009100780008
:1010B00081407800014878005E0090003000900088
:1010C000650040008E4890008180FB00C408DD0070
:1010D0006A814000012021008100410091007800D8
:1010E000C808DE0081407800014878005E0090006A
:1010F00030009000660040008E4890008180FB0028
:10110000C408DD006C814000012021008100410005
:101110009100780081407800014878005E009000DE
:1011200030009000670040008E4890008180FB00F6
:10113000C408DD006C8140000120210081004100D5
:1011400091007800C808DE008140780001487800EE
:101150000E4890000080FB004400DD00E4004000E9
:10116000002021000080400010007800004078003E
:101170006F4060006F4060006F406000DE009000D4
:101180000080FB006F0060004200DD00A1019000C4
:1011900032FC2F000281610002007000A000980064
:1011A0000080FA00000006003E00FA00301F9800A0
:1011B000411F9800521F9800631F98007E0047004F
:1011C000200F9800600220000E004000600F980081
:1011D0006E189000104078000080FB008000EB004B
:1011E000C801DD00020020006E1890000000E80039
:1011F000104078000080FB008000EB00C000DD00A4
:101200000000200000017100818171006E189000C3
:101210000080E800104078000082FB008002EB00B4
:101220004828DD00C820DE00810070004820DD0075
:1012300000017100818171006E1890006300400010
:10124000104078000080FB008000EB00000071007F
:101250008180710010079800210798006E18900097
:1012600064004000104078000080FB00C800DD00F2
:101270006E18900065004000104078000080FB0070
:1012800001007000300798000000000019060700F8
:101290000000E000FDFF32006E004700AF030700D2
:1012A0006E0047005C060700004F98000E48900053
:1012B000EC4F500029003A002E08900010407800B2
:1012C0000080FB008000EB00C801DD000200200070
:1012D0002E0890000000E800104078000080FB001D
:1012E0008000EB00C000DD00000020000001710064
:1012F000818171002E0890000080E8001040780085
:101300000082FB008002EB004828DD00C820DE00E0
:10131000810070004820DD000001710081817100B2
:101320002E08900063004000104078000080FB0011
:101330008000EB0000007100818071005007980070
:10134000610798001E009000AE0090009C05070009
:101350000004E00003003A004B003700300020009A
:101360004C0037003E0090006101B8001E00900064
:10137000AE009000020040008380480061005000F1
:10138000E08058008E0507000004E0003E003200B7
:101390003E009000630060000000E0003A003A0068
:1013A000BE00900000102000808F500036003E00EC
:1013B0005E009000EE009000E30107000000EB00EB
:1013C000000F78002700370000000000C905070063
:1013D0000000E000FDFF3200760047005F030700D9
:1013E000760047000C060700004F98000E4890005A
:1013F000ED4F500017003A00EE089000E002200088
:101400000E004000820020003BFE07001E199000E5
:10141000AE1990007E1090008E1890001E02780089
:101420000402D1006123B8001E029000AE029000B9
:101430000603420087834A000202BE000001BE008C
:101440000600BE00FD0107009E007800688F400086
:1014500004003700A00F2000A80207003000200081
:101460000C0037003E0090009E007800808F5000F6
:10147000D5FF3900900F2000A0020700B701070038
:101480000000EB0003003700E00F20009B02070084
:10149000300020000080FA00000006001602FA006A
:1014A00070079A00010F9A00120F9A00230F9A00FA
:1014B0002E089200104078000080FB008000EB00B6
:1014C000C801DD00020020002E0892000000E800A4
:1014D000104078000080FB008000EB00C000DD00C1
:1014E0000000200000017100818171002E0892002F
:1014F0000080E800104078000082FB008002EB00D2
:101500004828DD00C820DE00810070004820DD0092
:1015100000017100818171002E089200630040007B
:10152000104078000080FB008000EB00000071009C
:101530008180710010079800210798002E08920002
:1015400064004000104078000080FB00C800DD000F
:101550002E08920065004000104078000080FB00DB
:1015600001007000300798003E0090004300DE004C
:101570008000EB00FEFC0700B3FC0700E1FC070065
:10158000400798009E089200C00320000080600081
:10159000F80F500004003200B00F2000570207007F
:1015A000300020005E0037001E009000AE0090006A
:1015B000030507000004E000520032003E009000E6
:1015C0006101B8001E009000AE00900002004000D3
:1015D0008380480061005000E0805800F804070054
:1015E0000004E000470032003E009000630060000D
:1015F0000000E00043003A00BE0090000010200010
:10160000808F50003F003E000000EB00000F78008C
:10161000110037001E0078000000D1006101B80001
:101620001E009000AE009000020040008380480041
:101630006701070050079800610798006E00470097
:101640001E004000EA00470042002000AAFD0700FB
:101650009E007800648F40003E0090009E0078005D
:10166000808F5000EBFF39000000EB00000F780086
:10167000190037001E0078004300DD00EE0047002F
:10168000808040001E0078004300DD004011B00063
:10169000013778000FD0BF000080FB004700DD005D
:1016A0005000B300CF80DE001E0178004311DD0042
:1016B000E210B000020147000089BE001E00780061
:1016C0004300DD002011B00011012100914078009D
:1016D000017778001E0FE8004E0090009E00780011
:1016E000808F5000E3FF3900E01020000E00400022
:1016F000CE009000D40307000000E0000500320097
:1017000006003700E00F2000FC0107003000200039
:10171000030037000000EB0001003700300020001C
:101720000080FA00000006000000FA002468A9000A
:101730000C24EF0001208000F08F2F00008060005B
:1017400000A0A00000208800000000000120800010
:10175000000E20008080600000082000808F500074
:10176000FAFF3A002000200080208800801A200024
:101770009020880080002C0030208800100020007D
:10178000A02088000024EF000004A800C1208000F1
:10179000C0FF2F0000806000C020880081218000F1
:1017A00000FE2F000100700080218800A021800031
:1017B0007F006000A0218800C02180007F006000C1
:1017C000C021880081218000C0FF2F0000806000C0
:1017D00080218800A1218000C0FF2F0000806000D0
:1017E000A0218800C1218000C0FF2F000080600080
:1017F000C02188003224EF003624EF003A24EF00A5
:101800003064A9003464A9003864A9000022800073
:10181000FF006000004622000100700000228800E6
:1018200001228000C0FF2F0000806000002288009D
:101830004224EF004064A90000218000F000B300C2
:10184000002188000004A90030E4A80031E4A800C9
:1018500032E4A80033E4A80034E4A80035E4A8008A
:1018600036E4A80037E4A80081218000C0FF2F00E3
:10187000008060008021880081218000F0CF2F004F
:10188000008060008021880091218000C0FF2F002F
:10189000008060009021880091218000F0CF2F000F
:1018A0000080600090218800A1218000C0FF2F00EF
:1018B00000806000A0218800A1218000F0CF2F00CF
:1018C00000806000A0218800B1218000C0FF2F00AF
:1018D00000806000B0218800B1218000F0CF2F008F
:1018E00000806000B02188002024EF002224EF0057
:1018F0002824EF002A24EF000A24A90001208000F8
:10190000F08F2F00008060000020880000000000A1
:1019100001208000000E2000008060000000E00038
:10192000FBFF3A0040672100D80407002468A800A4
:101930000080FA00000006000400FA00000F7800A2
:10194000110798001E0090002000900061006000C8
:101950000000E00015003A001E009000900090008A
:101960001000780080007800F07F20000080600088
:10197000C200DD001E007800010878001E80E8002B
:101980008000EB00010878009E0078006480400031
:101990009E009000A1009000C208DE00EFC0600031
:1019A0008180FB0001087800250037001E009000B0
:1019B00090009000100078004008DE008000780061
:1019C000C0FF210000806000800078000100A000BE
:1019D0001E007800010878001E81E8001E009000BB
:1019E0009000900010007800CA09DD004600DE007B
:1019F00000807100C608DE0080007800F0FF200043
:101A000000806000000978009E007800648140003A
:101A10001E009000200090004200DE006F40600039
:101A20008081FB001E009000900090001000780064
:101A3000000078004A00DD000080410000097800C5
:101A40001E009000300090000000E0003B003200DB
:101A50009E017800668041009E009000B1009000D9
:101A60008100E800914078008180FB004809DD009A
:101A70009E009000B1009000914078008180FB00B2
:101A800081004100010878009E00780068804000D5
:101A90009E009000B1009000E380400091407800EB
:101AA0008180FB004809DD009E009000B10090009D
:101AB0008180E800914078008180FB008100410036
:101AC000010878009E0178006A8041009E00900025
:101AD000B1009000E5804000914078008180FB00DB
:101AE0004809DD009E009000B1009000E4804000B5
:101AF000914078008180FB0081004100010878005E
:101B00009E0078006C8040009E009000B100900024
:101B1000E7804000914078008180FB004809DD00AB
:101B20009E009000B1009000E68040009140780057
:101B30008180FB0081004100010878000080FA00EC
:101B4000000006000000FE00A2132100001978002A
:101B500001097800000006000000FE000000EB0014
:101B60008000EB00F8FF07002E27EF0000000600C2
:101B70000000FE000000FE00801F7800811F78003A
:101B8000821F7800A113210012468000C3E8A9003B
:101B900031007800703988001100780070398800B1
:101BA00029E7A800000000000000000029E7AF00BE
:101BB000FEFF370002F0A700C3E8A8004F0178003D
:101BC000CF0078004F007800000006000000FE0003
:101BD000A2028000A10288009080BA001000BA0022
:101BE000A2028800000006000000FE00A2028000A1
:101BF000A10288001000BA00A202880000000600BE
:101C00000000FE00F27F20000001610008003A00A1
:101C10003200240042398800503988006139880038
:101C2000BC0D0200000000001000200029A7AF003A
:101C300000002000000006000000FE0029E7AF00C1
:101C4000FEFF37000000A700130037000010A700B8
:101C500011003700613988005039880010002400D5
:101C600040398800A0028000A10F2000A102880056
:101C7000010020008208BB008398BB008408BB00E1
:101C80008598BB00BC0D020000000000A002880087
:101C90001000200029A7AF0000002000000006006F
:101CA0000000FE0029E7AF00FEFF37000000A7009C
:101CB000140037000010A7001200370061398800B7
:101CC00050398800A10280001000240040398800AB
:101CD000A00F2000A0028800000020000208BB0026
:101CE000F20F20000298BB000308BB000298BB0063
:101CF000BC0D020000000000A102880010002000BE
:101D000029A7AF000000200000000600F27F20009D
:101D1000000061000000060002802F00000061004A
:101D2000F2FF2F0081006100000006000000FA00B1
:101D30000004A800C1208000C0FF2F0000806000C8
:101D4000C020880080218000FF00600000002F007C
:101D50000100700080218800A02180007F006000C9
:101D6000A0218800C02180007F006000C021880081
:101D700081218000C0FF2F0000806000802188004A
:101D8000A1218000C0FF2F0000806000A0218800FA
:101D9000C1218000C0FF2F0000806000C0218800AA
:101DA0003224EF003624EF003A24EF003064A9001B
:101DB0003464A9003864A9000FD0BF000080FB0084
:101DC0004700DD0080007800F07F20000080600088
:101DD0004500DD0001228000FF80600001007000EE
:101DE0000022880001228000C0FF2F0000806000D8
:101DF000002288004224EF004064A90000218000F6
:101E0000F000B300002188000004A90030E4A8001D
:101E100031E4A80032E4A80033E4A80034E4A900C7
:101E200035E4A90036E4A90037E4A9008121800047
:101E3000C0FF2F0000806000802188008121800089
:101E4000F0CF2F0000806000802188009121800069
:101E5000C0FF2F0000806000902188009121800049
:101E6000F0CF2F000080600090218800A121800029
:101E7000C0FF2F0000806000A0218800A121800009
:101E8000F0CF2F0000806000A0218800B1218000E9
:101E9000C0FF2F0000806000B0218800B1218000C9
:101EA000F0CF2F0000806000B02188002024EF00D8
:101EB0002224EF002824EF002A24EF000A24A9009E
:101EC00001208000F08F2F0000806000002088003B
:101ED0000000000001208000000E20000080600053
:101EE0000000E000FBFF3A004067210067030700A5
:101EF0002468A8000080FA00000006001200FA0022
:101F0000000F980068004700300798000E08900006
:101F1000A10F2000810F500029003200A10F2000E6
:101F2000810F500004003E00910F2000810F5000EF
:101F3000310032003E003700D10F2000810F5000E9
:101F400011003200E10F2000810F500038003A00EC
:101F50000101210091407800414798000FD0BF0057
:101F60000080FB00C700DD00E00F200001007000D2
:101F7000CF80DE00008FBE00110020000E00780030
:101F8000B10107002A0037000101210091407800CB
:101F9000414798000FD0BF000080FB00C700DD0064
:101FA000D00F200001007000CF80DE00008FBE0047
:101FB000110020000E007800A30107001C0037006C
:101FC0000101210091407800414798000FD0BF00E7
:101FD0000080FB00C700DD00A00F200001007000A2
:101FE000CF80DE00008FBE00110020000E007800C0
:101FF000950107000E003700010121009140780093
:10200000414798000FD0BF000080FB00C700DD00F3
:10201000900F200001007000CF80DE00008FBE0016
:10202000110020000E00780087010700000000006A
:102030000000EB000080FA00000006000C00FA002F
:1020400040079800510798000000EB00000F78004F
:1020500000432000100798000040EB006047980004
:102060005E009000200090004200DE006F406000A3
:102070000080FB00E80F5000010034001E00A000AB
:102080000000EB0020079800280037001E00900099
:102090009040780000C8B30000C060000004E00079
:1020A0001C0032001E009000104078006840600064
:1020B0000004E00017003A00012021002E009000EB
:1020C0004400DD0000804000DE0090001AFE0700A2
:1020D0004E00900000407800E34060001E00900039
:1020E000E3C0600090417800C2CFB30002C161003C
:1020F00081407100014878001E00900090407800F7
:102100000134A0000148780010C0B3006047980077
:10211000090037001E0090000000E800100798003A
:102120002E0090000000E800200798002E0090008C
:10213000E70F5000D5FF36006E4090000004A2006B
:102140000004E000020032009E007800638F7000FF
:102150001E0078000080FA00000006000A00FA0065
:10216000400798000040EB00204798005020800076
:10217000640060000000E000030032000A44A9008F
:102180002E409000390037004E0090003000900043
:102190000000E00002003A002E40900033003700BB
:1021A0004020800000407800F043B2000080FB0037
:1021B000300798003E009000EF0F500005003E00F1
:1021C0000121800021079800BE009000010F7800D7
:1021D0000400370011218000210798003E00900084
:1021E000700F50001E007800AE0090000008DE0066
:1021F00061006000004078000004E0001A00320036
:102200003E00900000407800CE009000C8FA070021
:102210003E009000EF0F500009003E001E007800C5
:10222000110020000008DD000080EA008000780036
:102230000021800000806000002188000800370035
:102240001E007800110020000008DD000080EA0078
:10225000800078001021800000806000102188003C
:1022600010C0B300204798002E4090000080FA0074
:10227000000006000000FA00042EEF00000120001C
:10228000A07088007001200000708800F0DE2F0030
:10229000807088000C2EEF001C2EEF000A2EEF003D
:1022A0001A2EEF00062EEF00162EEF003001200050
:1022B0007070880030002000F0708800113A8000B3
:1022C000F00B2000008160006004200071052000F8
:1022D0002374200080497800814978008249780081
:1022E00031348000F00F2C008080600000E020007E
:1022F00001007000303488001134800000FC2F0091
:10230000008060000000A0001034880021368000AA
:1023100000F82F0080806000500220000100700053
:1023200020368800A136800000F82F0080806000F1
:102330008002200001007000A0368800103A800062
:10234000000178000260A0006004200071052000F8
:102350002374200080497800814978008249780000
:102360000080FA00000006000600FA000000EB0002
:10237000000F780001218000210798002E009000B6
:102380000000E000110032000000EB001007980090
:102390000B0037001E009000AE0090000008DE0029
:1023A00061006000004078000004E000010032009D
:1023B0001E0FE8001E0090000000E80010079800C3
:1023C0001E009000EF0F5000F2FF36001121800038
:1023D000210798002E0090000000E000110032005C
:1023E0000000EB00100798000B0037001E00900063
:1023F000AE0090000008DE00610060000040780040
:102400000004E000010032001E0FE8001E009000F2
:102410000000E800100798001E009000EF0F500029
:10242000F2FF36001E007800004078000080FA00BD
:10243000000006000000FA0000022000005888009A
:102440002002200010588800062BEF000000210019
:10245000205888000A2BEF00082BEF000C2BEF0010
:1024600070002000705888000088A9000002220037
:10247000805888006004200090588800162BEF00D8
:1024800000002100A05888001A2BEF00182BEF0045
:102490001C2BEF0070002000F058880001C8A90034
:1024A000202BEF00222BEF00262BEF000000210055
:1024B000205988002A2BEF00282BEF002C2BEF004F
:1024C0002E2BEF000308A900302BEF00322BEF007A
:1024D000362BEF0000002100A05988003A2BEF00B6
:1024E000382BEF003C2BEF003E2BEF000488A900B7
:1024F0000080FA00000006001400FA007D010700C9
:10250000000F78000040EB00204798006C00470067
:10251000500798001E0078000000E00002003A001A
:10252000100020001E003700640047000BFF07006A
:1025300064004700B8010700204798002E40900033
:102540000080FB00E20F50000D003200F10F500040
:1025500003003200E10F5000030032000E0037008C
:10256000610007000E0037002E009000BE009000B2
:102570004E019000DE019000C8FB07000800370004
:102580002E009000BE0090004E019000DE019000F1
:1025900005FB070002003700F00F200031010700A3
:1025A0000080FA00000006000000FA00001423007A
:1025B000203A88004827EF004E27EF00E002200075
:1025C000303A88006027EF006227EF006427EF00B1
:1025D0006627EF006A27EF006C27EF00320020002B
:1025E00080072000A1092000337420008049780072
:1025F00081497800824978001200200060042000A0
:1026000071052000237420008049780081497800FA
:102610008249780000000000103A800061006000EC
:102620000000E000FCFF3A0000000000113A8000CA
:1026300000022000008060000000E000FBFF32008C
:102640000080FA00000006000800FA002007980049
:10265000310798000000EB00000F78000000EB004D
:10266000000F7800190037001E0078004300DD00DD
:10267000AE00900000804000800078003000200014
:102680006EFE0700100798001E0090000000E0009A
:102690000D0032001E009000E30F50000A003A00C7
:1026A000000000001E0078004300DD00AE00900036
:1026B0000080400080007800300020005FFE0700AE
:1026C000E30F5000F7FF32001E0FE8009E00780075
:1026D0003E009000808F5000E3FF39000000EB00C7
:1026E0000080FA00000006001000FA0010C1B300DC
:1026F000004F780020C2B3001047980030C3B300E9
:102700002047980040C4B3003047980050C5B3003C
:102710004047980060C6B3005047980070C7B300A8
:102720006047980080C8B300704798006000B80008
:102730006011B800400798005107980062079800A0
:102740007307980010012000010020004007980046
:10275000510798001101210091407800414F9800E5
:102760007E0798006800470011002000B6FF0700B0
:102770000000EB000080FA00000006000000FA00F4
:10278000907080004C00DE00614060008040780066
:10279000907080004E00DE00614060000081FB0010
:1027A000907080004F00DE00004078000080FB0049
:1027B00000004000000041000000400000017800DF
:1027C000907080004D00DE00614060000080FB00E2
:1027D00000004100004078000040400000C0400080
:1027E00000C0EA006F4060000FF0B7004FFD070027
:1027F000E9000700DB0007000080FA000000060087
:102800003A1100000400000082000000FFFFFF00FA
:10281000FF0000001A1100002000000080000000EE
:102820000A1000000200000082000000FFFF00000C
:102830000012000000020000800000000C100000E8
:1028400002000000800000000E10000002000000E6
:10285000800000001210000008010000800000004D
:10286000001000000A0000008000000010100000AE
:1028700002000000820000000220000000000000B2
:102880000400FA00000F7800110798001E0078007D
:10289000E10F50000B003200E10F5000050039003D
:1028A000E20F50000B003200E30F50000D00320029
:1028B000100037009E00900021588800062BEF0082
:1028C0000C0037009E009000A1588800162BEF00E6
:1028D000080037009E00900021598800262BEF0049
:1028E000040037009E009000A1598800362BEF00AD
:1028F000000000000080FA00000006000400FA005A
:10290000000F7800110798001E007800E10F5000BA
:102910000A003200E10F500005003900E20F5000BC
:1029200009003200E30F50000A0032000C003700AB
:102930009E00900061588800090037009E009000BA
:10294000E1588800060037009E0090006159880019
:10295000030037009E009000E1598800000000004D
:102960000080FA00000006000200FA00000F780064
:102970001E007800E10F500009003200E10F500006
:1029800005003900E20F500007003200E30F50004D
:10299000070032000800370001EBA80006003700EE
:1029A00011EBA8000400370021EBA800020037005B
:1029B00031EBA800000000000080FA0000000600D3
:1029C0000400FA00008FBE00F07F2100010020000B
:1029D0001E0178009E019000800F5100818F5900E8
:1029E00009003600D07F2A00210020001E01780057
:1029F0009E019000800F5100818F590002003E001F
:102A000010002000010037000000EB0000407800BB
:102A10000080FA00000006000000FA000ED0BF009F
:102A20000004A2000004E0000B003200A700070031
:102A30000004E00004003A001D0007000004A200AA
:102A40000004E0000300320010C0B3000EF0B70035
:102A50000100370080000700A7FE07000080FA0091
:102A6000000006000A00FA0040079800010121005A
:102A700091407800414798000FD0BF000080FB00D4
:102A80004700DD00800078004E00900001007000DB
:102A90008000EB00008FBE00110020000E007800C7
:102AA000E9FE0700300020000080FA000000060068
:102AB0000000FA00008021000100200044FC070013
:102AC0000001BE00F0FF2F00F10F200000006900A0
:102AD000818069000080700000F0A7000000EA001B
:102AE0000000EA004F00DE00004078000080FA009D
:102AF000000006000000FA0008D0BF000004A20099
:102B00000004E00006003200821020008000EB008C
:102B1000200121007FF8070010C0B30008F0B700C3
:102B200011FE07000080FB000080FA000000060094
:102B30000000FA006F000700CEFD07009AFE0700B4
:102B40006600070021000700F7FA070039FE0700BA
:102B50004800070000022000260007000080FA005D
:102B6000000006000000FA002044200080007800E9
:102B70001000200061FF0700002021008000780085
:102B8000100020003EFF07001000200076FF070025
:102B90000080FA00000006000000FA000044200057
:102BA000800078000000EB0054FF070000202100A7
:102BB000800078000000EB0031FF07000000EB0010
:102BC00069FF07000080FA00000006000000FA001C
:102BD00080002000001188002222EF00C030200079
:102BE0004011880021E2A8002342A8000080FA00DA
:102BF000000006000200FA00000F780021028000A9
:102C0000200F2000008060001E007000200288005D
:102C10000080FA00000006000200FA00000F7800B1
:102C20001E007800900090001000780000407800AE
:102C30000074A1000080FA00000006000000FA0005
:102C4000A0112100800778002013210000018800D6
:102C50000080FA00000006000200FA000080210057
:102C6000000F78001E007800000001000080FA00CC
:102C7000000006000000FA00C3E8A8000000000001
:102C8000000000000080FA00000006000200FA00C8
:102C9000000F78001E007800608088000080FA0035
:102CA000000006000200FA00000F78009E00780085
:102CB00051808800FFFF37000000FA009CFF0700EA
:102CC000AEFE070054FF0700FEFF37000000FA00C9
:102CD0000040EB000080FA00000006000000FA004F
:102CE0000080FA00000006000000FA000080FA00F0
:102CF000000006000000FA000080FA000000060054
:020000040005F5
:105FE000CFFF0000CFFF00007FFF00005CFF00003C
:085FF00078FF0000FFFF000034
:00000001FF
