:020000040000fa
:080000000002040000000000f2
:020000040000fa
:040008001a030000d7
:020000040000fa
:04000c005c03000091
:020000040000fa
:04001000bc0300002d
:020000040000fa
:040014003a030000ab
:020000040000fa
:040018007c03000065
:020000040000fa
:04001c009c03000041
:020000040000fa
:04002000dc030000fd
:020000040000fa
:040024007004000064
:020000040000fa
:040028007004000060
:020000040000fa
:04002c00700400005c
:020000040000fa
:040030007004000058
:020000040000fa
:040034007004000054
:020000040000fa
:040038007004000050
:020000040000fa
:04003c00700400004c
:020000040000fa
:040040007004000048
:020000040000fa
:040044007004000044
:020000040000fa
:040048003a04000076
:020000040000fa
:04004c00700400003c
:020000040000fa
:040050007004000038
:020000040000fa
:040054007004000034
:020000040000fa
:040058007004000030
:020000040000fa
:04005c00700400002c
:020000040000fa
:040060007004000028
:020000040000fa
:040064007004000024
:020000040000fa
:040068007004000020
:020000040000fa
:04006c00700400001c
:020000040000fa
:040070007004000018
:020000040000fa
:040074007004000014
:020000040000fa
:040078007004000010
:020000040000fa
:04007c00700400000c
:020000040000fa
:040080007004000008
:020000040000fa
:040084007004000004
:020000040000fa
:040088007004000000
:020000040000fa
:04008c0070040000fc
:020000040000fa
:0400900070040000f8
:020000040000fa
:0400940070040000f4
:020000040000fa
:0400980070040000f0
:020000040000fa
:04009c0070040000ec
:020000040000fa
:0400a00070040000e8
:020000040000fa
:0400a40070040000e4
:020000040000fa
:0400a80070040000e0
:020000040000fa
:0400ac0070040000dc
:020000040000fa
:0400b00070040000d8
:020000040000fa
:0400b400080400003c
:020000040000fa
:0400b80070040000d0
:020000040000fa
:0400bc0070040000cc
:020000040000fa
:0400c00070040000c8
:020000040000fa
:0400c40070040000c4
:020000040000fa
:0400c80070040000c0
:020000040000fa
:0400cc0070040000bc
:020000040000fa
:0400d00070040000b8
:020000040000fa
:0400d40070040000b4
:020000040000fa
:0400d80070040000b0
:020000040000fa
:0400dc0070040000ac
:020000040000fa
:0400e00070040000a8
:020000040000fa
:0400e40070040000a4
:020000040000fa
:0400e80070040000a0
:020000040000fa
:0400ec00700400009c
:020000040000fa
:0400f0007004000098
:020000040000fa
:0400f4007004000094
:020000040000fa
:0400f8007004000090
:020000040000fa
:0400fc00700400008c
:020000040000fa
:040100007004000087
:020000040000fa
:040104007004000083
:020000040000fa
:04010800700400007f
:020000040000fa
:04010c00700400007b
:020000040000fa
:040110007004000077
:020000040000fa
:040114007004000073
:020000040000fa
:04011800700400006f
:020000040000fa
:04011c00700400006b
:020000040000fa
:040120007004000067
:020000040000fa
:040124007004000063
:020000040000fa
:04012800700400005f
:020000040000fa
:04012c00700400005b
:020000040000fa
:040130007004000057
:020000040000fa
:040134007004000053
:020000040000fa
:04013800700400004f
:020000040000fa
:04013c00700400004b
:020000040000fa
:040140007004000047
:020000040000fa
:040144007004000043
:020000040000fa
:04014800700400003f
:020000040000fa
:04014c00700400003b
:020000040000fa
:040150007004000037
:020000040000fa
:040154007004000033
:020000040000fa
:04015800700400002f
:020000040000fa
:04015c00700400002b
:020000040000fa
:040160007004000027
:020000040000fa
:040164007004000023
:020000040000fa
:04016800700400001f
:020000040000fa
:04016c00700400001b
:020000040000fa
:040170007004000017
:020000040000fa
:040174007004000013
:020000040000fa
:04017800700400000f
:020000040000fa
:04017c00700400000b
:020000040000fa
:040180007004000007
:020000040000fa
:040184007004000003
:020000040000fa
:0401880070040000ff
:020000040000fa
:04018c0070040000fb
:020000040000fa
:0401900070040000f7
:020000040000fa
:0401940070040000f3
:020000040000fa
:0401980070040000ef
:020000040000fa
:04019c0070040000eb
:020000040000fa
:0401a00070040000e7
:020000040000fa
:0401a40070040000e3
:020000040000fa
:0401a80070040000df
:020000040000fa
:0401ac0070040000db
:020000040000fa
:0401b00070040000d7
:020000040000fa
:0401b40070040000d3
:020000040000fa
:0401b80070040000cf
:020000040000fa
:0401bc0070040000cb
:020000040000fa
:0401c00070040000c7
:020000040000fa
:0401c40070040000c3
:020000040000fa
:0401c80070040000bf
:020000040000fa
:0401cc0070040000bb
:020000040000fa
:0401d00070040000b7
:020000040000fa
:0401d40070040000b3
:020000040000fa
:0401d80070040000af
:020000040000fa
:0401dc0070040000ab
:020000040000fa
:0401e00070040000a7
:020000040000fa
:0401e40070040000a3
:020000040000fa
:0401e800700400009f
:020000040000fa
:0401ec00700400009b
:020000040000fa
:0401f0007004000097
:020000040000fa
:0401f4007004000093
:020000040000fa
:0401f800700400008f
:020000040000fa
:0401fc00700400008b
:020000040000fa
:040200007004000086
:020000040000fa
:040204007004000082
:020000040000fa
:04020800700400007e
:020000040000fa
:04020c00700400007a
:020000040000fa
:040210007004000076
:020000040000fa
:040214007004000072
:020000040000fa
:04021800700400006e
:020000040000fa
:04021c00700400006a
:020000040000fa
:040220007004000066
:020000040000fa
:040224007004000062
:020000040000fa
:04022800700400005e
:020000040000fa
:04022c00700400005a
:020000040000fa
:040230007004000056
:020000040000fa
:040234007004000052
:020000040000fa
:04023800700400004e
:020000040000fa
:04023c00700400004a
:020000040000fa
:040240007004000046
:020000040000fa
:040244007004000042
:020000040000fa
:04024800700400003e
:020000040000fa
:04024c00700400003a
:020000040000fa
:040250007004000036
:020000040000fa
:040254007004000032
:020000040000fa
:04025800700400002e
:020000040000fa
:04025c00700400002a
:020000040000fa
:040260007004000026
:020000040000fa
:040264007004000022
:020000040000fa
:04026800700400001e
:020000040000fa
:04026c00700400001a
:020000040000fa
:040270007004000016
:020000040000fa
:040274007004000012
:020000040000fa
:04027800700400000e
:020000040000fa
:04027c00700400000a
:020000040000fa
:040280007004000006
:020000040000fa
:100400000f4021000eff27000e01880000000000b1
:10041000000020000000e000020032000001200087
:100420002002880014000700760107000000e000a9
:1004300003003a00c05922000100200002003700ea
:100440000000200001002000810f70000100320038
:100450000f000700000020000000e0000200320052
:1004600000000200000000007c2c020000000000e0
:100470000040da000000fe00a00120000000e000c3
:1004800002003200002020009001880000000600d9
:10049000a1028800800478000000eb001f003700f4
:1004a000e284440054a0b4009905ba00e2844400f8
:1004b00054a0b4009906ba00e284440054a0b400e9
:1004c0000006eb00476fde00fd07b200ae018800ba
:1004d000636ce10003003a000ad801000000eb0061
:1004e0000e003700606ce10008003a00004deb00a0
:1004f0000a05e800020039003420ec000af0a000f0
:100500008b05e900f9ff3e00040037006168e10057
:10051000010032000086eb000b00070019c7ba008b
:100520000e04e0001905ba0003003a000a00e000da
:10053000dbff3a0000000600fe07b200ae028800b2
:100540008a047800f5ff37000cd0a300e20f4d00bd
:100550001c00390089027800354dba000a05e80010
:10056000020039003420ec000af0a0008b05e900fd
:100570000f003200254dba000a05e80002003900dc
:100580003420ec000af0a0008b05e90008003200de
:100590000c00e0000600320015cdba000a05e800a4
:1005a000020039003420ec000af0a0008b05e900bd
:1005b0008984e80054a0b4000b00e000e2ff3a0098
:1005c000000006009902ba00055d78008b05e9007d
:1005d000f7ff3200c82ade00055d78008b05e900d0
:1005e000f3ff32000c00e000f1ff320019ddba0029
:1005f000eeff3700f81e0400000000003a29040056
:1006000000000000da2b040000000000702c040041
:10061000000000000a070400000000003409040084
:10062000000000000000040000000000e8090400d1
:10063000000000003600f800809fbe00829fbe00d0
:10064000849fbe00869fbe000000fa00c028a9005b
:100650000000eb008e1407000080fa004f03be007c
:100660004f02be004f01be004f00be003600f90031
:10067000004006003600f800809fbe00829fbe004a
:10068000849fbe00869fbe000000fa00851407000c
:10069000c048a900100020007d1407000080fa0067
:1006a0004f03be004f02be004f01be004f00be0010
:1006b0003600f900004006003600f800809fbe00ba
:1006c000829fbe00849fbe00869fbe000000fa008d
:1006d000c068a900200020006d1407000080fa0007
:1006e0004f03be004f02be004f01be004f00be00d0
:1006f0003600f900004006003600f800809fbe007a
:10070000829fbe00849fbe00869fbe000000fa004c
:10071000c088a900300020005d1407000080fa00a6
:100720004f03be004f02be004f01be004f00be008f
:100730003600f900004006003600f800809fbe0039
:10074000829fbe00849fbe00869fbe000000fa000c
:10075000c0a8a900400020004d1407000080fa0046
:100760004f03be004f02be004f01be004f00be004f
:100770003600f900004006003600f800809fbe00f9
:10078000829fbe00849fbe00869fbe000000fa00cc
:10079000c608a900700020003d1407000080fa0080
:1007a0004f03be004f02be004f01be004f00be000f
:1007b0003600f900004006003600f800809fbe00b9
:1007c000829fbe00849fbe00869fbe000000fa008c
:1007d0002146800000022000008060000000e00050
:1007e00003003200c4a8a9009000200028140700cc
:1007f00020468000700060000000e000030032002e
:10080000c488a900a000200021140700ffff3700c2
:100810003600f800809fbe00829fbe00849fbe000d
:10082000869fbe000000fa005120800000042000d6
:10083000008060000000e00006003200c080800000
:100840000000e00002003200c080800000000100d3
:100850000ac4a9000468a9000080fa004f03be0082
:100860004f02be004f01be004f00be003600f9002f
:10087000004006003600f800809fbe00829fbe0048
:10088000849fbe00869fbe000000fa00d0808000da
:100890000000e00002003200d08080000000010073
:1008a00090122100104078008040e8009012210052
:1008b000014878008012210011c0b300014878007f
:1008c0000108a9000080fa004f03be004f02be00dd
:1008d0004f01be004f00be003600f9000040060088
:1008e0000040da000000fe000a00fa0011002000bb
:1008f000b1bf9f00c0bf9f006a805700cf070700ad
:100900004fb897000080fa00000006000a00fa00c5
:1009100051002000b1bf9f00c0bf9f006a805700f8
:10092000c80707005fb897000080fa0000000600c3
:10093000889fbe0080047800708980000000e0007d
:1009400004003a000e0007000084eb000000e00005
:1009500008003500788980000900e00005003200b9
:1009600009004400060007000000e00001003d000f
:100970000084eb00080078004f04be000000060071
:10098000800078000100e00003003a000000200031
:1009900070898800000005000080eb000200200044
:1009a000828f500002003e00718988000000eb0039
:1009b000000006000800fa001007980021079800c0
:1009c00032079800be009000010f78000700370042
:1009d0002e00900010407800ae0090008100e800ea
:1009e00021079800b41107001e0fe9001e007800cf
:1009f0000000e000f6ff3a003e0090000080fa00a0
:100a00000000060000000500889fbe008a9fbe000f
:100a10008c1f7800980007009f00330003866c004d
:100a20006450e1002e0032006420e1003300320007
:100a30006150e1002f0032006120e10031003200fe
:100a400085855500eb07b000090020000804200050
:100a5000050037000804440089844c000a00310076
:100a60000603430087834b000001530081815b0034
:100a7000f8ff33000203be000800a0000804440091
:100a800089844c00f6ff3900c639dd00830173000c
:100a900001003200130020008904d1000884d30033
:100aa0000998a300050032000800a7000300a00079
:100ab0008904d1000884d3008b05e8008904d100a3
:100ac0000884d3000001eb000281d2002f00070050
:100ad00001f0a1000cf0a70001f0a00077003700a2
:100ae0006420e100790032000801be000200be006f
:100af000f7ff37006120e100740032006000b800a9
:100b0000f3ff37000000200001f82700f0ff370056
:100b100014002000a4003700f4ff2f00a2003700cb
:100b20000001be003f0007000470a70003f0a10011
:100b300003f8a30013003a006509b1001000320069
:100b4000090035006928e100020035000100280095
:100b50000000050000004000818048008502e90097
:100b6000fcff3a0000000600f88f42000500350047
:100b70008100d1000080d3008502e800fcff3a002c
:100b8000000006008000eb0000000500810020004e
:100b9000618055000b003d000b00200061fe2f001e
:100ba0000100e1001d0034008281710061016400d8
:100bb0008904d1000884d3000000e800faff3a005d
:100bc00071002000610064000300700002006000fa
:100bd0000900320061044400e0844c000988a5004b
:100be000050032008b05e8006808e10002003a00c9
:100bf0008904d1000884d300f20f20000258e100dc
:100c000005003d00c75ddd00f907b2008980750071
:100c100008007800000006000bf827008b00780021
:100c200000000500c70ade00f107b200f50fb200b0
:100c300008003200e1cf4200020032000170a00043
:100c400024000500810f7000010032000408050037
:100c500044000500810f700002003a0014000500f6
:100c60008502e9000000400081c04800fcff3b0015
:100c70000170a000240005000004be00e9ff070089
:100c80000003be000405be000200be00e5ff070031
:100c9000844f7500000006000200be006450e100b1
:100ca000050036006420e100020036000968a30058
:100cb00001003a000800be000160a0004f06780065
:100cc0004f05be004f04be0000000600f0ff2f00dd
:100cd000f1ff2700f9ff3700889fbe008a9fbe0002
:100ce0008c1f7800e4ff0700ebff330003866c00e5
:100cf0006450e100240032006420e100270032004b
:100d00006150e100220032006120e1002100320048
:100d10008b854200eb07b1000134b800003ab800ff
:100d20000804420089844a00013ab8000030b80043
:100d30008880400009014a000400330000004000a0
:100d400081804800020149008b05e900c909dd00e6
:100d5000830170000100320013002000c814de007f
:100d60004814dd004709de001200b200c808de00aa
:100d70000884700085ff070001f0a1000cf0a700b7
:100d800001f0a000cdff37006120e100cfff32006d
:100d90000801be000200be00f7ff37006150e1000d
:100da000fcff3a00c9ff3700889fbe008a9fbe0043
:100db000841f7800b0ff07004f0078001100330057
:100dc000f0ff2f00838f6c0006003b0004056500d8
:100dd0000a00a7000800370009f0a6001000200054
:100de00008003700820f5400838f5c000300390035
:100df0001000200001003e000000200009f0a700c4
:100e00000000ea004f05be004f04be000000e000f5
:100e100000000600889fbe000004780001007800f2
:100e20008204780088017800090178001100200010
:100e30000e000700890f5000010032000004eb0093
:100e4000080078004f04be00000006000000fa0011
:100e5000e88157004fb9970061042100a07020007d
:100e6000250207000080fa0000000600889fbe00ef
:100e70008a9fbe008c9fbe008e1f780000067800ff
:100e80000104780002007800830478008881b900aa
:100e9000020778000e00e000420032000800e00087
:100ea000410032008e057800c90090006900900072
:100eb000808f5000040039000900780050000700be
:100ec0000000e0002900350000402000190060000b
:100ed0000a0032000b017800a10020000c0078000d
:100ee00036000700800678000d00e00006003200a2
:100ef000610516000a854600040037000b057800de
:100f00008006eb00010037000b05780049009000d7
:100f1000e9009000808050008a8f5000020031006c
:100f2000010578008006eb000a0178008c0078004b
:100f30002c0007008a855500490090000a004000f7
:100f4000c00498000d00e0000400320009007800a1
:100f5000d60007000000e00004003a000b00e000ab
:100f6000020032000a064600cfff37000080200052
:100f7000190060000200320009007800cb00070071
:100f800000c02000190060000200320049009000fb
:100f9000e00498008b055700110009008885d800ef
:100fa000010037000000eb004f0778004f06be003d
:100fb0004f05be004f04be000000060003003700ce
:100fc000b0cf1000050032000201e9008001780076
:100fd0000200e000faff3a0000000500030078007c
:100fe000000006008001780002003700b159780047
:100ff0000201e9000200e000fcff3a0000000600e8
:10100000889fbe008a1f780000047800c800900006
:10101000680190000000eb00828f50003c00390016
:10102000180078002200290002016000e20f510040
:1010300007003200012020000000e0000100350020
:1010400001202400008c70000080eb00300037008d
:101050000200260002006000820f500009003a00e2
:1010600038009000808f500006003900080078009a
:101070008e000700800078000080eb000100e00097
:1010800023003a001805780000c020000000650029
:1010900018003a00a80490006002200008004000f8
:1010a000808f540013003a00002020001e03070028
:1010b000200498000000e00005003a002904980090
:1010c000490498008904e8003904980008003700b2
:1010d0000a60a0000a0c780040049800012020005b
:1010e0008080400031049800400c9800500c98001b
:1010f0000c00070028009000500498003800900071
:101100006004980000002600180c70000000eb003e
:101110004f0578004f04be000000060040932000f9
:101120009e003700881f7800a81221001804e000f4
:1011300003003a00f9ff070020c0b300004c78001c
:101140004f04780000000600889fbe00000478006d
:101150000800780055000700800478000004200093
:101160001800600002003200280090008902070089
:101170000000eb0020049800384090000004e000dc
:10118000050035000000fb00d7fd07000000e0006f
:10119000010032008084eb00181090000000e00095
:1011a00008003200d9fd07000000e0000100320015
:1011b0008084eb0018109000760207000000eb001e
:1011c000101498000008200018006000150032007c
:1011d0000001eb006000b8000202d00063092100aa
:1011e00003024200940f140005003a000000400082
:1011f00081804800008041000008eb0006003700b5
:1012000061004000e08048000201e800e80f500063
:10121000e08f5800f0ff3a00080078005d020700f8
:101220000e003700000c780000c0eb00304498003e
:10123000600220000800400020049800400498004c
:1012400050049800400c980060049800500c9800de
:101250007004980076004400000c980009007800a3
:101260004f04be0000000600881f78000004eb0059
:101270006140b800e2ff2f00f3ff2f00dd050700fb
:10128000420a210080004100110078000000e000c7
:1012900001003200acff07000804e800e80f54002a
:1012a000f3ff3a004f04780000000600889fbe005c
:1012b000000478000800e00010003a008004eb0011
:1012c000090478008800d0006009210000804000f7
:1012d000100078000000e00004003200f3ff070077
:1012e0000000e00001003d008084eb000804e800fd
:1012f000e80f5400f3ff3a002500370000002200f9
:10130000180060008004eb0021003200a804900067
:101310000f00370009015100384090000000fb0029
:1013200089007800a3fd07000000e00007003c00f2
:10133000280090004004980060049800500c980029
:101340001890a0008084eb001100370080844400d6
:1013500048019000828f5400eeff39002800900071
:10136000400498009800780002c0200002816000cc
:1013700001003a003800900001e8a30002003200aa
:101380006004980001003700500c98008004eb00c6
:10139000090078004f04be00000006000100200094
:1013a0000100e00009003200010080000100e000bf
:1013b000060032008100e900010088008100d000b1
:1013c0000200800082804000800878000000060053
:1013d000889fbe00000478000203be0081047800ec
:1013e0000802780089017800120020000600be0083
:1013f000a6040700890f5000010032000004eb0032
:10140000080078004f04be00000006006800fa00e3
:10141000889fbe008a9fbe00800478000104780087
:1014200082057800030578008400780000f92f0019
:101430000f00400093040700d98f9f00fb8f9f008f
:101440000000eb00a09f9f00e88f9f009a84fb00a4
:101450000904fb008904ea00cf4cde0050022000a2
:10146000800f54000d003200e18f54000b003a0051
:10147000090178008a0078007f889700df8997004b
:1014800003000100f08f9f000000e0009500320093
:101490002f9897000000e800a09f9f0009054500d5
:1014a00050022000800f5400040032000800e000c9
:1014b000e6ff3a002f9897008b0037000000eb0002
:1014c000809f9f00f0979f00e0979f00d0979f001c
:1014d000c0979f00b0979f0007003700c1112100ff
:1014e00001005000000040000111210080804000f8
:1014f0004f98970011007000c09f9f000a04780069
:1015000008057800ba4478008900fb00c01121006a
:101510002f0207000000e000f0ff3a00a1c2b30074
:1015200081cf54000e003a008f8897000180e900b7
:10153000808f9f0010007800b09f9f000000e000a7
:1015400005003d000000ea00b09f9f004f98970003
:101550000020a000c09f9f000804e8001000370092
:10156000b09f9f00880078000000eb000500370066
:10157000f3ff2700830f500002003200ea00b90099
:101580000000410001047800880078003101fb0070
:101590000203b100e90f5100f5ff3600b09f9f0034
:1015a000e0c2b300984f1000020032000080eb0050
:1015b00019003700a0c2b300d84f100007003a004e
:1015c0008f8897000180e900808f9f0010007800cd
:1015d000909f9f000804e800100037000000eb0017
:1015e000909f9f008800780005003700f3ff2700d8
:1015f000830f500002003200ea00b90000004100f1
:1016000001047800880078003101fb000203b1007a
:10161000e90f5100f5ff3600909f9f009844780035
:101620008900fb0080102100e90107000000e000b4
:10163000020032000804e800010037008044eb009b
:10164000a97f9f0080c6b30080cf540006003a00f7
:1016500098cf140010003a0066405000a07f9f0011
:101660000804e8000c003700c0c6b30080cf540067
:1016700009003a0098cf140007003a006740400084
:10168000d84f100002003a006e40500001003700b1
:1016900010c7b300a07f9f001801fb00c3fb2f0001
:1016a0008f81410001f92f008f80400020f92f0029
:1016b0000f004000150007000000e00009003a009c
:1016c000c1fb2f008f80400020f92f000f00400049
:1016d000120307000000e000020035000805e800e2
:1016e0005aff37000080eb004f05be004f04be00dc
:1016f0000080fa00000006000302780082017800f2
:1017000001017800819e200040ff3700889fbe00c5
:101710008a9fbe00e4c6b300844f5100ce00320061
:1017200010003c006b425200844f51001800320000
:1017300005003c0054c2b300844f51000601320042
:1017400084c5b3000f00370044c6b300844f510076
:101750001500320065424200844f510001013a00f9
:101760001100370004c7b300844f5100ed00320070
:101770005f00350065424200844f51005c0032003a
:1017800063424200844f5100f6003a00580037008f
:101790001181e90082087800a00890008181410051
:1017a00092497800f5003700006a9000c5c6b30082
:1017b000854f520008003a0091027800648252007e
:1017c0008408780094029000140278004fabde0089
:1017d000860378001600370015c7b300854f520006
:1017e00003003a0011047800680254000500370035
:1017f000a5c6b300854f520008003a009104780056
:1018000068825400840878009402900024039000b9
:10181000b403900014027800050037001182e9003b
:101820008408780014027800cfa2de00612bb90092
:101830000498be000690be008068900088c6b30081
:1018400088cf50000d00320028c6b30088cf50006a
:1018500004003a000402fb00cfa2de00612bb900b5
:101860000800370048c7b30088cf5000030032009b
:101870006644440088cf500004003a00cfa2de0046
:10188000612bb9000498be000690be0010027800db
:101890009002900020039000b0039000a0089000f8
:1018a000e00f5200e08f5a00e00f5b00e08f5b001a
:1018b00003003d0001824100d5c2b3000a00370099
:1018c000301290000418a30003003200018241008e
:1018d000b5c2b300040037000408a3005900320069
:1018e0000182410005c2b300054a78005300370069
:1018f000006a9000c5c6b300854f520009003a0047
:1019000011057800640255008408780014047800fa
:10191000940490006055b8000802be000a03be009f
:101920001600370015c7b300854f520003003a0078
:10193000910478006882540005003700a5c6b30002
:10194000854f520008003a001105780068025500e2
:10195000840878009402900024039000b40390005f
:1019600014027800050037001182e900840878002d
:10197000140278008002eb006033b8000498be00c7
:101980000690be008068900088c6b30088cf5000e3
:101990000d00320028c6b30088cf500004003a0082
:1019a0000482fb008002eb006033b80008003700bf
:1019b00048c7b30088cf500003003200664444009b
:1019c00088cf500004003a008002eb006033b8007a
:1019d0000498be000690be00b01090000138a3002d
:1019e000180032001002780090029000200390004e
:1019f000b0039000e00f5200e08f5a00e00f5b0050
:101a0000e08f5b000f00320081c7b300814f5100af
:101a10000300320081c5b300814f510009003a0034
:101a2000a00890000182410005c3b300054a780078
:101a30008100e80001824100024a78008100e8004c
:101a400021089800a008900081814100730098004f
:101a5000824078003e00370080699000c4c6b30021
:101a60001181e90084cf5100220032000a003c00bd
:101a70006442520084cf51002500320004c2e800c5
:101a800084cf5100130032006842520084cf5100cd
:101a90001e003a000a00370044c7b30084cf51004b
:101aa0001b0032006642420084cf51001800320011
:101ab0006942520084cf510014003a0005003700fb
:101ac00082087800920078002060900080487800ba
:101ad0002c003700820878009200780010129000e5
:101ae000cfa2de00612bb9008498be008690be00b4
:101af00024003700820878009200780010119000ce
:101b0000cf91de008288be001e0037001181e900ff
:101b10008208780092007800101090008008780009
:101b2000180037001181e90082087800120278005d
:101b3000cfa2de00612bb9000498be000690be0063
:101b4000a0089000818141007300980081c7b30014
:101b5000b50007000b003700a0089000818141000c
:101b600005003700a0089000818141000204e000d8
:101b700001003a0052c2b300824978008100e800b7
:101b8000210898000000eb004f05be004f04be0086
:101b9000000006000000e0002f003200c0017800c5
:101ba000e38f51002c0036000308a3002a003a00fe
:101bb000218980000100e00002003200810f500006
:101bc00004003100110098002089880016003700b9
:101bd00082007800110190000200e0000200320053
:101be000800f5100faff3900110278008482400012
:101bf000850f500018003900808f520003003a0012
:101c00008308420001007800070037000200e0006e
:101c10000300320083014000830f51000e003900a1
:101c20001200980090009800900090000100e000e1
:101c30000900320010014000828f500006003a0077
:101c4000221221000009eb00100178001108410068
:101c5000910090001100980000000600889fbe00cf
:101c600000047800118980000100e00002003200c9
:101c7000010078000d00370021898000401221000a
:101c800004003700910f5400250036000180e80061
:101c9000910090000100e000faff3a0010003700c8
:101ca000920f54001e0036000280e80010017800f8
:101cb0000200e000faff3a0011017800218980005b
:101cc0004012210004003700910f54001400360028
:101cd0000180e80091009000828f5000faff3a00e6
:101ce00069898000888f54000100310088047800e1
:101cf00009007800420007000000e00004003a00fc
:101d0000888f5400050032008904d100f5ff3700a8
:101d1000091878009fff0700d2ff37000000eb0092
:101d20004f04be0000000600881f780063044000d6
:101d30000800a1008000eb00800f54002100360055
:101d4000e30f540001003e00480020000800780026
:101d5000c2ff07008000eb000000e0001900320025
:101d6000900078009101780064815100880f510043
:101d700003003100110190000208780007003700cd
:101d8000088140000208780091019000130198003a
:101d900010017800110914008808780010017800fb
:101da0000000eb000200e00004003200920190000d
:101db0000300e000010032000280e8001089880082
:101dc0008180e800010078004f04780000000600e0
:101dd000020037000304e000060032000001780032
:101de00002007800b041780081cf5100f9ff3a003d
:101df000010037000001eb0002007800000006003f
:101e0000800078000000eb000100e00005003400d5
:101e100001007800c6fa0700e10f400001003a0017
:101e20000000eb0000000600fc874700889fbe0012
:101e30008a9fbe008c9fbe008e1f7800000678002f
:101e400080c5b30080cf50000a00320077404000c8
:101e500080cf50000a0032006940400080cf50001f
:101e60000b003200700b210080bf9f00ae002000ed
:101e70000a003700620a210082bf9f000600370077
:101e8000730b210083bf9f008e00200003003700ea
:101e9000740b210084bf9f000e0120001c027800fb
:101ea0009c0290002c039000bc0390000605be002d
:101eb0000404be0040c6b30080cf500003003200cf
:101ec0006540400080cf50000b003a00e00f520008
:101ed000e08f5a00e00f5b00e08f5b0006003d00e2
:101ee0006000b8006011b8000404500085845800f8
:101ef0000605590087855900e80f57000400320095
:101f000040002000f00f57003c003a00010037006d
:101f100030002000e00f5400e08f5c00e00f5d0017
:101f2000e08f5d0004003a008c1090008d012000cd
:101f30000100e000070032008e00e90088806000a8
:101f40008fba97008180420091407800f1ef9f00a6
:101f50007d012000800078008100e9000500330049
:101f60008b05d1000a85d3008984d3000884d3006f
:101f7000f9ff3700089ebe000a96be001300370026
:101f80008d06e9008e00e900848060000fb997009b
:101f9000810041001141780083fd2f008d814100b7
:101fa00082f77900800178008301e90005003300a1
:101fb0008783d1000683d3008582d3000482d300b7
:101fc000f9ff3700049ebe000696be001c02780092
:101fd0009c0290002c039000bc039000e00f520084
:101fe000e08f5a00e00f5b00e08f5b00930034004d
:101ff0000d00e000e2ff3c00900037000c6890000c
:1020000081c6b300814f50000b00320006003c0037
:102010000004e00008003200e6c05000814f50008c
:1020200052003a0004003700c1c6b300814f50008f
:102030004e003a00230037000800e00004003a0098
:102040000c1090008d0120000000e000070032001d
:10205000110009000e84d8000fba97000100420059
:1020600010407800f0ef9f007d0120001100090072
:102070000e84d8000b003700110009000e04d800b0
:102080008d06e9008e81b900020454008fb89700d4
:10209000088440009841780082fd2f000d01410026
:1020a00083777900000478000800e0000200320025
:1020b0000d00e000f0ff3c00cfc4de00614db90030
:1020c00027003700e00f5400e08f5c0004003a0066
:1020d0000c1090008d0120000000e000080032008c
:1020e0006171b9000800be003f0207000fba9700f7
:1020f0008000420091407800f1ef9f007d012000b8
:102100006171b9000800be00270207000c0037000b
:102110006171b9000800be00140207008d06e900d5
:1021200080f1b900020454008fba9700088442007d
:102130009841780082fd2f000d01410083777900de
:102140000004be00e00f5000e08f58000200320093
:102150000d00e000eeff3c004fcdde008a05780068
:10216000089ebe000a96be0034003700e00f5400ff
:10217000e08f5c00e00f5d00e08f5d0004003a003e
:102180000c1090008d0120000000e0000a003200d9
:102190006172b900612bb9000800be000a01be00df
:1021a000bc0207000fba97008000420091407800ff
:1021b000f1ef9f007d0120006172b900612bb90031
:1021c0000800be000a01be00ab0207000e00370087
:1021d0006172b900612bb9000800be000a01be009f
:1021e000b00207008d06e90080f2b9000404540033
:1021f0008fba9700088442009842780084fd2f002f
:102200000d02420085777a00009ebe000296be0055
:102210001c0478009c0490002c059000bc059000e4
:10222000e00f5400e08f5c00e00f5d00e08f5d0088
:10223000020034000d00e000e5ff3c00e80f57000d
:1022400010003a003c1090000038a3000d0032004e
:10225000f78f560006003e0080fd2f000d00400065
:10226000ef40780000c3b30080cf5000050032007b
:1022700002c3b30071fd2f008d8040008d06e90080
:1022800082f7780078811600420e98007c0090005a
:1022900083fd2f008f8141008d80410051fb07009d
:1022a0004c0890008c109000810f500006003d00fb
:1022b00000805000300e98003c1090000040a100bb
:1022c000301698000f0037000100e0000d003d00bf
:1022d000bc109000f4806000f08f500009003a00bc
:1022e0002c119000ac089000810051003c09900036
:1022f00082805000008050004240a900010034005c
:10230000300e98004f0778004f06be004f05be0004
:102310004f04be00cf01b100000006000400fa0027
:10232000889fbe008a9fbe008c1f78000004780042
:1023300001067800a81490002808900080845400ba
:10234000380890008084540048089000808454002d
:1023500058089000808454006808900080845400dd
:1023600078089000808454000002220090bf9f00f3
:1023700000032300a0bf9f00381090000028a30096
:1023800015003a000900e000130034000905780048
:102390008a057800e20f5500010036002b0020006e
:1023a000c80190000b017800ee8057006800900093
:1023b00003000100600498000000e000aa00320061
:1023c000181090000b004000101498000b055500e9
:1023d0004240a900eeff3c00280990000200e00006
:1023e0000c003400c80190008c0078006800900058
:1023f00003000100600498008080eb000000e00012
:102400009a00320098109000280890000080400048
:1024100010149800380d90000a00e00011003400fc
:102420008a057800e20f5500010036002b002000dd
:10243000c80190000b017800ec8057006800900004
:1024400003000100600498000000e00086003200f4
:10245000181090000b004000101498000b05550058
:10246000edff370008699000c808900050c6b3001f
:10247000804f510008003a000100e00015003400d0
:102480005802900008099000980990006800900098
:1024900004000100070037000100e0000d003400d7
:1024a000c801900001017800f800900068009000d9
:1024b00003000100600498008080eb000000e00051
:1024c0006a00320098109000480890000080400098
:1024d00010149800580d90000a00e000110034001c
:1024e0008a057800e20f5500010036002b0020001d
:1024f000c80190000b017800ec8057006800900044
:1025000003000100600498000000e0005600320063
:10251000181090000b004000101498000b05550097
:10252000edff3700086990006808900051c6b300bd
:10253000814f51000d003a000000e0001c00340003
:1025400078019000c8089000010141006111b800b5
:10255000828fd2008381d2005802900080007800e0
:102560006800900004000100090037000000e0004e
:102570000f00340078019000c808900081004100ed
:10258000c80190000001780068009000030001007d
:10259000600498008080eb000000e000330032000f
:1025a0009810900068089000008040001014980077
:1025b000780d90000a00e000110034008a057800d0
:1025c000e20f5500010036002b002000c8019000ea
:1025d0000b017800ec8057006800900003000100b8
:1025e000600498000000e0001f0032001810900006
:1025f0000b004000101498000b055500edff37004c
:10260000381090008000eb000028a3001700320073
:102610000900e0001500340009057800e28f54003d
:10262000010036002a002000c80190000a0178004d
:10263000ee805700680090000300010060049800dd
:102640000000e00008003200181090000a0040006e
:10265000101498008a8454004240a900eeff3c0008
:102660008000eb00010037008080eb000100780063
:102670004f0678004f05be004f04be000080fa00f0
:10268000000006000108780000000600e687470009
:10269000889fbe008a9fbe008c9fbe008e1f780060
:1026a00082bf9f00040478008299b900f2b79f00ae
:1026b0000200e000590032000fb997000200e0006c
:1026c000570032000006be007fb79700c800900098
:1026d00068009000808f50000400390008007800e6
:1026e00047fa07000000e0003b00350000402000f2
:1026f000180060000a0032008e017800a20020005d
:102700000c00be007a0007000005be0000807500c6
:10271000070032008c0455008904e80005003700ea
:102720008e0478000a0020000b0020000100370012
:102730008e0478004801900068009000020050006c
:10274000890f500003003100800478000a00200047
:102750000b0020006111b800828fd2008381d2006b
:10276000090278000c00be00380007000907570076
:102770004800900009004000400498000a85750058
:102780000400320008007800c8fa07000000e000ea
:1027900011003a000e00e0000f0032006148b8005e
:1027a000808fd2008180d2000000780000f0a1006c
:1027b0000c01d0008001d000030641004220a80097
:1027c00081864e004200a9004220ae004200a800cf
:1027d0000c86d300bdff3700008020001800600089
:1027e0000200320008007800b0fa070000c02000a4
:1027f0001800600002003200480090006004980059
:102800007fb197000e0751000fb997001100090022
:102810000287d80080017800010037008001eb00ba
:10282000030078004f0778004f06be004f05be003a
:102830004f04be006f00b1000000060000c0da00c7
:102840000000060000c0da00000006003400f800b6
:102850003200f8000203be0082027000850272009e
:1028600002f0a6008301e800a301880000f0a600a2
:102870008100e800910188001500b2000c003200d0
:10288000104978000402e90015003200610141009e
:10289000020039003420ec000200280061004000f2
:1028a000f7ff39003220ec0000002800f4ff370069
:1028b000100978000482e900090032006201410039
:1028c000020039003420ec000200280062004000c1
:1028d000f7ff39003220ec0000002800f4ff370039
:1028e0003200f9003400f9000601be0000000600c5
:1028f0000300e0000900320095018000910188008a
:1029000000000000104278009501880000000000df
:102910000402fb00820f5200130032008301e90021
:1029200095018000910188000000000010427800ad
:1029300095018800000000000404e0000800320057
:10294000000278001000b00000026a004260af0090
:1029500000f0a0000482d2000180b000e4ff370044
:10296000000020000100200000000600839f680096
:102970000100e00002003d0060001000e08018004f
:102980000300e00002003d0060011100e081190039
:10299000050007004f00e00002003b00600010004f
:1029a000e0801800000006006022b8000602200047
:1029b0000000d0008180d2000482d2008582d20043
:1029c0000000a0000202520083825a00030031007e
:1029d0000202420083824a000000a1000603e900cf
:1029e000f3ff3a0000000600efff07000400be00fe
:1029f00000000600020ab900001bb9000200b8007e
:102a0000810042008100430000000600889fbe0054
:102a10008a9fbe0030044200b0844a0030054b005b
:102a200090854b006000b1000898be000a90be007f
:102a30000440e10005c8e10006d0e10007d8e1004c
:102a400002003100680040001008e8004f05be0099
:102a50004f04be0000000600889fbe008a9fbe0093
:102a6000100478009004900020059000b0059000bc
:102a70000418540005985c0006185d0007985d0076
:102a8000110020000440e10005c8e10006d0e1008b
:102a900007d8e100010039008000eb001088100029
:102aa0004f05be004f04be00000006001200fa00f1
:102ab000889fbe008a9fbe008c9fbe00e0b79f002b
:102ac000f1b79f0082bf9f0093bf9f000605be0025
:102ad0000404be000000eb00d0b79f00c0b79f0009
:102ae000b0b79f00a0b79f0090b79f000006780086
:102af0005fb19700cfb09700820141003fb09700cf
:102b00000200e00004003d00370007007e8057000f
:102b1000beff070003003700330007007e80570028
:102b2000cdff0700dfb697000d00e0000c00350078
:102b30006fb29700ffb297000fbb97009fbb970043
:102b400010002000010020006011b8000002720097
:102b50008182720002037300838373001b000700ed
:102b60000c06e80001042000810f5600e0ff3a0047
:102b70000d00e00004003d000802be000a03be0094
:102b80007e805700a1ff07005fa897000000e000cb
:102b900005003a001fb29700afb297003fb397000d
:102ba000cfb39700090007006fb09700ffb0970000
:102bb0000fb997009fb997004f06be004f05be00a2
:102bc0004f04be000080fa0000000600010007006c
:102bd00000000600a4b79f00b5b79f00c6b79f00ce
:102be000d7b79f00000006004f09de008281710008
:102bf000b3b79f004f01de008180400082807000eb
:102c0000a1b79f008fb097004f09de000000400081
:102c10000200700090b79f007fa897004f01de0070
:102c2000818040008280700081b79f000d00070006
:102c30004f3ade000000400004007000f0af9f003b
:102c4000080007000402420085824a0006034b0088
:102c500087834b00dfff07000802be000a03be00a7
:102c6000000006002fb29700bfb297004fb3970045
:102c7000dfb3970000000600881f780018002000ce
:102c8000881f780089ff07008f87e9004f047800cc
:102c900000000600801feb0084ff07008f87e9001b
:102ca00000000600889fbe008a9fbe00e00f500013
:102cb000e08f5800e00f5900e08f59000c003d00f4
:102cc0006044b8006055b8000000540081805c008a
:102cd00002015d0083815d001800200015000700df
:102ce00008003d00180007000004eb000500370055
:102cf0000004eb000f00070002003d001200070077
:102d000018002000dcff07000800e0000600320089
:102d10006022b8006033b8000000520081805a0081
:102d200002015b0083815b004f05be004f04be00c3
:102d300000000600e00f5200e08f5a00e00f5b0039
:102d4000e08f5b00000006006044b8006055b800ea
:102d50000402540085825c0006035d0087835d00e9
:102d600000000600889fbe008a9fbe008c1f78006e
:102d7000e00f5000e08f5800e00f5900e08f59003d
:102d80000d003d006044b8006055b80000005400dc
:102d900081805c0002015d0083815d001c002000d9
:102da0000820e10009a8e1000ab0e1000bb8e10049
:102db0000d003d00080037000006eb00e00f520058
:102dc000e08f5a00e00f5b00e08f5b0006003d00e3
:102dd0006044b8006055b8000402540085825c006d
:102de00006035d0087835d00aaff07000c00e0007a
:102df000060032006022b8006033b80000005200c4
:102e000081805a0002015b0083815b004f067800dd
:0c2e10004f05be004f04be00000006008d
:020000040000fa
:102e1c00436f00006e76000065720000736900005d
:102e2c006f6e00002072000065730000756c00006e
:102e3c00742000003a20000025750000200d0000d1
:042e4c000a00000078
:020000040000fa
:102e50000200fa00000f78001e007800e10f500019
:102e600009003200e10f500005003900e20f500068
:102e700007003200e30f500007003200080037005f
:102e800001eba8000600370011eba8000400370092
:102e900021eba8000200370031eba8000000000081
:102ea0000080fa00000006000400fa00000f78001d
:102eb000110798001e007800e10f50000b0032004f
:102ec000e10f500005003900e20f50000b00320006
:102ed000e30f50000d003200100037009e009000fc
:102ee00021588800062bef000c0037009e00900050
:102ef000a1588800162bef00080037009e009000b4
:102f000021598800262bef00040037009e00900016
:102f1000a1598800362bef00000000000080fa0065
:102f2000000006000400fa00000f78001107980066
:102f30001e007800e10f50000a003200e10f50003f
:102f400005003900e20f500009003200e30f500085
:102f50000a0032000c0037009e0090006158880083
:102f6000090037009e009000e158880006003700f5
:102f70009e00900061598800030037009e00900079
:102f8000e1598800000000000080fa0000000600ff
:102f90000c00fa00004f9800510798000000eb0069
:102fa000100798000000eb00000f78006000b800e8
:102fb00020079800310798000e4890000080fb0021
:102fc000c400dd00002021000080400010007800d7
:102fd00061006000100798001e0090000000e000f3
:102fe00018003a000e4890000080fb00c400dd008d
:102ff000002021000080400090007800c0ff2100e8
:10300000008060004200de008000eb005e01900066
:103010000089be005e009000a00090000100a100a9
:10302000210098000e4890000080fb00c400dd00e5
:10303000002021000080400010007800620f600036
:103040006c0037000e4890000080fb00c400dd00db
:103050000020210000804000100078006101b800cd
:10306000c0ff210001002000020278000301780067
:103070008001780001007800030262000000610016
:103080008000eb00c000dd00000020000001be0059
:103090006120b80000017100818171002207980051
:1030a000330798002e009000be009000c000dd00a5
:1030b000000020005e0190000089be005e009000cc
:1030c00010027800900290000e4890000080fb00f3
:1030d0004400dd008080e8000020210000804000e6
:1030e000100078006101b800f0ff2000010020000e
:1030f0000203780003017800800178000100780065
:1031000003036300000061008000eb00c000dd00ed
:10311000000020000001be006130b8000001710015
:10312000818171004618dd00ca10de008100700048
:103130004610dd0004004000858048005e019000dc
:103140000089be005e00900010027800900290009e
:103150000e4890000080fb004400dd00e4004000c9
:103160000020210000804000100078004a00de00ae
:103170006101b800f0ff2f00010020000203780079
:1031800003017800800178000100780003036300e8
:10319000000061008000eb00c000dd0000002000a6
:1031a0000001be006130b800000171008181710032
:1031b00004004100858049005e0190000089be0046
:1031c0005e009000a00090000100a0002100980087
:1031d0000e4890000080fb004400dd00e400400049
:1031e0000020210000804000900078000020200096
:1031f000008f60001e0078000000e0000500320033
:103200005e009000a00090000110a0002100980036
:103210007b0037005e009000a00090000110a1002c
:10322000210098005e009000300090008e489000d1
:103230008180fb00c408dd00668140000120210080
:1032400081004100910078008140780001487800b9
:103250005e009000300090000000e8008e48900072
:103260008180fb00c408dd00668140000120210050
:103270008100410091007800c808de00814078009c
:10328000014878005e009000300090000080e80067
:103290008e4890008180fb00c408dd0068814000fa
:1032a00001202100810041009100780081407800d8
:1032b000014878005e0090003000900063004000fc
:1032c0008e4890008180fb00c408dd0068814000ca
:1032d000012021008100410091007800c808de0033
:1032e00081407800014878005e0090003000900036
:1032f000640040008e4890008180fb00c408dd001f
:103300006a81400001202100810041009100780085
:1033100081407800014878005e0090003000900005
:10332000650040008e4890008180fb00c408dd00ed
:103330006a81400001202100810041009100780055
:10334000c808de0081407800014878005e009000e7
:1033500030009000660040008e4890008180fb00a5
:10336000c408dd006c814000012021008100410083
:103370009100780081407800014878005e0090005c
:1033800030009000670040008e4890008180fb0074
:10339000c408dd006c814000012021008100410053
:1033a00091007800c808de0081407800014878006c
:1033b0000e4890000080fb004400dd00e400400067
:1033c00000202100008040001000780000407800bc
:1033d0006f4060006f4060006f406000de00900052
:1033e0000080fb006f0060004200dd00a101900042
:1033f00032fc2f000281610002007000a0009800e2
:103400000080fa00000006000400fa00000f7800b7
:10341000110798001e0090002000900061006000dd
:103420000000e00015003a001e009000900090009f
:103430001000780080007800f07f2000008060009d
:10344000c200dd001e007800010878001e80e80040
:103450008000eb00010878009e0078006480400046
:103460009e009000a1009000c208de00efc0600046
:103470008180fb0001087800250037001e009000c5
:1034800090009000100078004008de008000780076
:10349000c0ff210000806000800078000100a000d3
:1034a0001e007800010878001e81e8001e009000d0
:1034b0009000900010007800ca09dd004600de0090
:1034c00000807100c608de0080007800f0ff200058
:1034d00000806000000978009e0078006481400050
:1034e0001e009000200090004200de006f4060004f
:1034f0008081fb001e00900090009000100078007a
:10350000000078004a00dd000080410000097800da
:103510001e009000300090000000e0003b003200f0
:103520009e017800668041009e009000b1009000ee
:103530008100e800914078008180fb004809dd00af
:103540009e009000b1009000914078008180fb00c7
:1035500081004100010878009e00780068804000ea
:103560009e009000b1009000e38040009140780000
:103570008180fb004809dd009e009000b1009000b2
:103580008180e800914078008180fb00810041004b
:10359000010878009e0178006a8041009e0090003a
:1035a000b1009000e5804000914078008180fb00f0
:1035b0004809dd009e009000b1009000e4804000ca
:1035c000914078008180fb00810041000108780073
:1035d0009e0078006c8040009e009000b10090003a
:1035e000e7804000914078008180fb004809dd00c1
:1035f0009e009000b1009000e6804000914078006d
:103600008180fb0081004100010878000080fa0001
:10361000000006000000fa002468a9000c24ef0056
:1036200001208000f08f2f000080600000a0a0002b
:10363000002088000000000001208000000e200013
:103640008080600000082000808f5000faff3a0060
:103650005000200080208800801a200090208800e0
:1036600040002c003020880020002000a02088008e
:103670000024ef000004a800c120800030ff2f00cc
:1036800000806000c020880080218000ff00600072
:1036900000a020000100700080218800a02180008f
:1036a0007f006000a0218800c02180007f006000b2
:1036b000c021880081218000c0ff2f0000806000b1
:1036c00080218800a1218000c0ff2f0000806000c1
:1036d000a0218800c1218000c0ff2f000080600071
:1036e000c02188003224ef003624ef003a24ef0096
:1036f0003064a9003464a9003864a9002022800045
:10370000ff006000004622000100700020228800b7
:1037100021228000c0ff2f0000806000202288004e
:103720004624ef004464a90001218000000f20001e
:1037300001007000002188000004a90030e4a80006
:1037400031e4a80032e4a80033e4a80034e4a9007e
:1037500035e4a90036e4a90037e4a90081218000fe
:10376000c0ff2f0000806000802188008121800040
:10377000f0cf2f0000806000802188009121800020
:10378000c0ff2f0000806000902188009121800000
:10379000f0cf2f000080600090218800a1218000e0
:1037a000c0ff2f0000806000a0218800a1218000c0
:1037b000f0cf2f0000806000a0218800b1218000a0
:1037c000c0ff2f0000806000b0218800b121800080
:1037d000f0cf2f0000806000b02188002024ef008f
:1037e0002224ef002824ef002a24ef000a24a90055
:1037f00001208000f08f2f000080600000208800f2
:103800000000000001208000000e20000080600009
:103810000000e000fbff3a0080ef21007701070085
:103820002468a8000080fa00000006000000fa00ea
:10383000204420008000780010002000b9fd07001f
:1038400000202100800078001000200096fd070075
:10385000100020007efd07000080fa000000060036
:103860000000fa0000442000800078000000eb0017
:10387000acfd070000202100800078000000eb0074
:1038800089fd07000000eb0071fd07000080fa00d1
:10389000000006000400fa00100798000000eb008a
:1038a000000f780021000700e40f500006003200ee
:1038b0001e009000e10f5000030032001e00900037
:1038c000e40f500014003a001e0090000040780001
:1038d000674060000080fb00670060004800dd007a
:1038e00002208000f18f2f00810061000100700034
:1038f0000020880000000000002080004500de005d
:10390000674060008080fb001e009000808f5000a8
:10391000f9ff3a000200370010002000000f780085
:103920001e0078000080fa00000006000000fa0087
:10393000002080004500de00674060000080fb0042
:103940000080fa00000006000c00fa004007980012
:10395000510798000000eb00000f780000432000a2
:10396000100798000040eb00604798005e00900050
:10397000200090004200de006f4060000080fb00ed
:10398000e80f5000010034001e00a0000000eb0012
:1039900020079800280037001e0090009040780013
:1039a00000c8b30000c060000004e0001c0032004a
:1039b0001e00900010407800684060000004e000a5
:1039c00017003a00012021002e0090004400dd0085
:1039d00000804000de0090008bfe07004e0090004b
:1039e00000407800e34060001e009000e3c06000eb
:1039f00090417800c2cfb30002c1610081407100e4
:103a0000014878001e009000904078000134a0002a
:103a10000148780010c0b3006047980009003700e3
:103a20001e0090000000e800100798002e00900093
:103a30000000e800200798002e009000e30f5000df
:103a4000d5ff36006e4090000004a2000004e000a4
:103a5000020032009e007800638f70001e00780024
:103a60000080fa00000006000a00fa0040079800f3
:103a70000040eb0020479800502080006400600068
:103a80000000e000030032000a44a9002e4090002c
:103a9000390037004e009000300090000000e00038
:103aa00002003a002e409000330037004020800092
:103ab00000407800f043b2000080fb00300798001f
:103ac0003e009000ef0f500005003e0001218000f5
:103ad00021079800be009000010f78000400370015
:103ae00011218000210798003e009000700f5000c7
:103af0001e007800ae0090000008de00610060004b
:103b0000004078000004e0001a0032003e009000ff
:103b100000407800ce0090001dfd07003e009000a0
:103b2000ef0f500009003e001e0078001100200039
:103b30000008dd000080ea0080007800002180009d
:103b40000080600000218800080037001e00780017
:103b5000110020000008dd000080ea0080007800ed
:103b600010218000008060001021880010c0b30088
:103b7000204798002e4090000080fa0000000600c8
:103b80000000fa00502080004d00de00614060001f
:103b90000080fb0000f0a7000000ea000000ea003f
:103ba0004f00de00004078000080fa0000000600b0
:103bb0000000fa00502080004b00de0061406000f1
:103bc0000080fb0000f0a7000000ea000000ea000f
:103bd0004f00de00004078000080fa000000060080
:103be0000000fa00502080004900de0061406000c3
:103bf0000080fb0000f0a7000000ea000000ea00df
:103c00004f00de00004078000080fa00000006004f
:103c10000200fa000040eb00004f78000ec4bf0025
:103c20000004e000050032000ec4bf000004e00004
:103c30000200350010c0b300004f78001e4078002d
:103c40000080fa00000006000000fa00502080000a
:103c50004c00de00614060000080fb0000f0a70027
:103c60000000ea000000ea004f00de00004078009b
:103c70000080fa00000006000000fa0050208000da
:103c80004a00de00614060000080fb0000f0a700f9
:103c90000000ea000000ea004f00de00004078006b
:103ca0000080fa00000006000200fa000040eb006d
:103cb000004f78000fc4bf000004e0000500320090
:103cc0000fc4bf000004e0000200350010c0b300c4
:103cd000004f78001e4078000080fa0000000600c7
:103ce0000600fa000000eb00000f780001218000c0
:103cf000210798002e0090000000e0001100320023
:103d00000000eb00100798000b0037001e00900029
:103d1000ae0090000008de00610060000040780006
:103d20000004e000010032001e0fe8001e009000b9
:103d30000000e800100798001e009000ef0f5000f0
:103d4000f2ff360011218000210798002e0090001c
:103d50000000e000110032000000eb0010079800a6
:103d60000b0037001e009000ae0090000008de003f
:103d700061006000004078000004e00001003200b3
:103d80001e0fe8001e0090000000e80010079800d9
:103d90001e009000ef0f5000f2ff36001e0078006a
:103da000004078000080fa00000006000000fa00e1
:103db0000ac4a9000cc4a80001208000f08f2f00c5
:103dc000008060000080a00000208800000000004b
:103dd00001208000000e2000808060000002200092
:103de000808f5000faff3a000080fa0000000600c1
:103df0000000fa000080fa00000006000200fa004d
:103e0000000f78001e007800c08088000080fa0053
:103e1000000006001400fa00000f9800110f98002f
:103e200003000900001feb008e00b1007e07980020
:103e30001e08900090009000100078004007980045
:103e4000510798001e0890004040900061406000bb
:103e50000080fb0061006000ee0090000100a10006
:103e600001007000600798001e089000504090000c
:103e7000614060000080fb006100600000004000c5
:103e8000ee0090000110a100010070006007980092
:103e90001e089000604090006f4060000080fb00b2
:103ea0006f0060004200dd006e01900031fc2f00c9
:103eb0008100610001007000600798007e009000a2
:103ec0009e089000f1409000014878007e0090002c
:103ed0000000e8009e0890008148900001487800aa
:103ee0007e0090000080e8009e08900091489000bd
:103ef000014878007e009000630040009e0890001a
:103f0000a1489000014878007e00900064004000c5
:103f10009e089000b1489000014878007e00900013
:103f2000650040009e089000c1489000014878005c
:103f30007e009000660040009e089000d1489000ee
:103f4000014878007e009000670040009e089000c5
:103f5000e148900001487800680047008000780040
:103f60000e08900078fe070000f0a7000000ea00ad
:103f70000000ea004f00de00004078000080fa00f8
:103f8000000006001400fa00100f98000040eb003b
:103f9000004f7800e1004700070009008058eb005f
:103fa0000e00e800000f98006a004700aefe070010
:103fb0000004e000430032005e009000ee0090003c
:103fc0001e0990000089be007e00900061406000e4
:103fd000804078001e089000414098007e009000cc
:103fe000620060000000e000040032001e08900043
:103ff00021c0b30051409800030037001e08900014
:1040000011c0b300514098000e0890009040780015
:104010001e089000714098000e0890000000e80013
:10402000904078001e089000014898000e0890000b
:104030000080e800904078001e0890001148980029
:104040000e08900063004000904078001e08900029
:10405000214898000e0890006400400090407800cd
:104060001e089000314898000e089000650040003e
:10407000904078001e089000414898000e0890007b
:1040800066004000904078001e089000514898005b
:104090000e08900067004000904078001e089000d5
:1040a000614898007e0090004200de006f40600092
:1040b000804078001e0890006140980010c0b30056
:1040c000004f78001e4078000080fa0000000600d3
:1040d0000000fa00502080004d00de0061406000ca
:1040e0000080fb0000f0a7000000ea000000ea00ea
:1040f0004f00de00004078000080fa00000006005b
:104100000000fa00502080004b00de00614060009b
:104110000080fb0000f0a7000000ea000000ea00b9
:104120004f00de00004078000080fa00000006002a
:104130000000fa00502080004c00de00614060006a
:104140000080fb0000f0a7000000ea000000ea0089
:104150004f00de00004078000080fa0000000600fa
:104160000600fa000000eb00000f7800012180003b
:10417000210798002e0090000000e000110032009e
:104180000000eb00100798000b0037001e009000a5
:10419000ae0090000008de00610060000040780082
:1041a0000004e000010032001e0fe8001e00900035
:1041b0000000e800100798001e009000ef0f50006c
:1041c000f2ff360011218000210798002e00900098
:1041d0000000e000110032000000eb001007980022
:1041e0000b0037001e009000ae0090000008de00bb
:1041f00061006000004078000004e000010032002f
:104200001e0fe8001e0090000000e8001007980054
:104210001e009000ef0f5000f2ff36001e007800e5
:10422000004078000080fa00000006000000fa005c
:104230000ac4a9000cc4a80001208000f08f2f0040
:10424000008060000080a0000020880000000000c6
:1042500001208000000e200080806000000220000d
:10426000808f5000faff3a000080fa00000006003c
:104270000000fa0021e3a8000080fa000000060018
:104280000400fa00100798001e009000e10f500093
:1042900008003200e10f500003003900e20f500027
:1042a000070032000900370001188000010f780074
:1042b0000600370011188000010f78000300370056
:1042c00021188000010f7800000000001e00780017
:1042d0000080fa00000006000000fa005b050700fd
:1042e000907080004c00de006140600080407800eb
:1042f000907080004e00de00614060000081fb0095
:10430000907080004f00de00004078000080fb00cd
:104310000000400000004100000040000001780063
:10432000907080004d00de00614060000080fb0066
:1043300000004100004078000040400000c0400004
:1043400000c0ea00ef406000a00e210001487800a4
:10435000bb04070042fd070034fd0700c4ff07004f
:10436000048ea80000c72200c5030700cc03070085
:10437000046ea90010012000808788004001200001
:10438000708788009001200090878800b00e21007f
:104390008040eb00014878000080fa000000060031
:1043a0000000fa0040878000e30f50001c0032003c
:1043b000e30f500005003e00e10f50000f003200f7
:1043c000e10f500010003e0009003700e50f5000db
:1043d0002e003200e50f500020003900e60f50009b
:1043e00039003200e70f500031003200370037004b
:1043f0001000200040878800340037002000200093
:10440000408788003100370000002000812c240004
:10441000ae02070030002000408788002b003700e4
:10442000b00e210010407800e14f500008003a0023
:10443000908780000001780071878000808780006d
:104440005c040700b00e21008040eb0001487800ba
:1044500040002000408788001c00370080002100b9
:1044600081fd07008000210030009000904078001e
:1044700070c3b30080cf500001003a00046ea80062
:1044800050002000408788001000370060878000bf
:10449000801f7800e0702900801f78006bf2070011
:1044a000e48757007000200040878800070037002d
:1044b0000000eb0072ff07006087880010002000fa
:1044c0004087880001003700000000000080fa00eb
:1044d000000006000000fa00003a80000080fa00a8
:1044e000000006000200fa00faff0700000f780043
:1044f0001e007800240007000004e00002003200e3
:1045000000002800710007001e0078002a00070044
:104510000004e00002003200000024006b000700ed
:104520001e007800320007000004e00002003200a4
:1045300000202000650007001e0078003a000700f8
:104540000004e00002003200000820005f000700c5
:104550001e007800420007000004e0000200320064
:1045600000042000590007001e0078004a000700e0
:104570000004e000020032000001200053000700a8
:104580000080fa00000006000400fa0010079800fe
:104590000040eb00004f78001e0090000000e0009b
:1045a00002003d0010c0b300004f78001e407800ac
:1045b0000080fa00000006000400fa0010079800ce
:1045c0000040eb00004f78009e00900000002400a7
:1045d000008060000000e0000200320010c0b30064
:1045e000004f78001e4078000080fa0000000600ae
:1045f0000400fa00100798000040eb00004f78001c
:104600009e00900000202000008060000000e0007c
:104610000200320010c0b300004f78001e40780046
:104620000080fa00000006000400fa00100798005d
:104630000040eb00004f78009e0090000008200032
:10464000008060000000e0000200320010c0b300f3
:10465000004f78001e4078000080fa00000006003d
:104660000400fa00100798000040eb00004f7800ab
:104670009e00900000042000008060000000e00028
:104680000200320010c0b300004f78001e407800d6
:104690000080fa00000006000400fa0010079800ed
:1046a0000040eb00004f78001e009000700060009a
:1046b0000000e0000200320010c0b300004f78009c
:1046c0001e4078000080fa00000006000200fa0098
:1046d000000f78009e80ea00003a800000806000b1
:1046e000003a88000080fa00000006000000fa008e
:1046f0004027ef000080fa00000006000000fa00ea
:104700006000200050488800c000200060488800f9
:104710000e29ef001029ef0050488000004078007b
:10472000674060000080fb00b08088000080fa00d5
:10473000000006000000fa000080fa0000000600f9
:104740000000fa00014080000004200000806000aa
:104750000000e00002003200f6ff070000c8a900d8
:104760000080fa00000006000000fa00b08080001f
:1047700000407800674060000080fb006700600038
:104780005248800081ff2f0081006100010070000d
:10479000504888000080fa00000006000000fa007f
:1047a0005148800080ff2f00008060005048880042
:1047b0000080fa00000006000200fa00000f7800f6
:1047c0009e007800714888000080fa000000060012
:1047d0000200fa00000f78009e00780081488800ef
:1047e0000080fa00000006000000fa00004080008f
:1047f0004600de00614060000080fb0000f0a70082
:104800000000ea000000ea004f00de0000407800ef
:104810000080fa00000006000400fa00100798006b
:104820001e0090000000e00003003200e10f500085
:104830000b00320014003700504880004400de00b6
:10484000614060000080fb0000f0a7000000ea006b
:104850000000ea004f00de00004f78000a00370039
:10486000504880004500de00614060000080fb0091
:1048700000f0a7000000ea000000ea004f00de00a0
:10488000004f7800000000001e4078000080fa0011
:10489000000006000200fa00000f78001e007800f9
:1048a0000000e00003003200e10f5000030032007e
:1048b000040037000a89a900020037000aa9a900ec
:1048c000000000000080fa00000006000000fa006e
:1048d0000cc9a8000080fa00000006000000fa00e1
:1048e000604880004600de00614060000080fb0000
:1048f00000f0a7000000ea000000ea004f00de0020
:10490000004078000080fa00000006000000fa0075
:104910000cc9a9000080fa00000006000000fa009f
:104920006000200000488800c00020001048880077
:104930000429ef000629ef000048800000407800bd
:10494000674060000080fb00a08088000080fa00c3
:10495000000006000000fa000080fa0000000600d7
:104960000000fa0000408000640060000000e000e9
:1049700002003200f7ff07000048a9000080fa009b
:10498000000006000000fa00a080800000407800cf
:10499000674060000080fb00670060000248800004
:1049a00081ff2f0081006100010070000048880035
:1049b0000080fa00000006000000fa0001488000b4
:1049c00080ff2f0000806000004888000080fa000f
:1049d000000006000200fa00000f78009e00780038
:1049e000214888000080fa00000006000200fa005a
:1049f000000f78009e007800314888000080fa009f
:104a0000000006000000fa00004080004200de00c6
:104a1000614060000080fb0000f0a7000000ea0099
:104a20000000ea004f00de00004078000080fa003d
:104a3000000006000400fa00100798001e00900015
:104a40000000e00003003200e10f50000b003200d4
:104a500014003700004880004400de006140600020
:104a60000080fb0000f0a7000000ea000000ea0060
:104a70004f00de00004f78000a0037000048800039
:104a80004500de00614060000080fb0000f0a700f0
:104a90000000ea000000ea004f00de00004f78004e
:104aa000000000001e4078000080fa0000000600b0
:104ab0000200fa00000f78001e0078000000e000fd
:104ac00003003200e10f5000030032000400370001
:104ad0000089a9000200370000a9a9000000000019
:104ae0000080fa00000006000000fa0002c9a800d9
:104af0000080fa00000006000000fa001048800064
:104b00004600de00614060000080fb0000f0a7006e
:104b10000000ea000000ea004f00de0000407800dc
:104b20000080fa00000006000000fa0002c9a90097
:084b30000080fa0000000600fd
:020000040000fa
:104b3800c8100000200000008000000012100000d3
:104b48000200000082000000ffff000014100000b7
:104b580002000000800000001610000002000000a3
:104b68008000000026110000020000008000000004
:104b78000012000000020000800000001810000071
:104b88000200000080000000281100000200000060
:104b9800800000001a1000000200000080000000e1
:104ba8001c1000000200000080000000e810000057
:104bb800200000008000000000100000120000002b
:104bc800800000001e100000880000008200000025
:104bd800010000000044100045104400104410007b
:104be80044104400103410000000000000000000d1
:104bf80000000000000000000000000000000000ad
:104c0800000000000002080001016c00106d100097
:104c18006c106c00106c10006c105c001000000030
:104c2800000000000000000000000000000000007c
:104c3800000000000000000000000200080202005e
:104c48009410950010941000941094001094100083
:104c580084100000000000000000000000000000b8
:104c6800000000000000000000000000000000003c
:104c78001e104600106e100000000000000000002a
:104c880000000000000000002a11000002000000df
:104c980080000000081100001a00000082000000d7
:104ca800686a6c00747a4c00000001000002000081
:104cb8000400080000100000000020002b2d230035
:104cc800300000002c1100000200000082000000eb
:104cd8000400000022110000040000008000000011
:104ce800a6100000220000008200000030313200cf
:104cf80033343500363738003941420043444500e3
:104d08004600300031323300343536003738390048
:104d18006162630064656600000000002e110000f7
:0c4d2800020000008000000000000000fd
:020000040000fa
:104d34000000fa0000022000005888002002200031
:104d440010588800062bef0000002100205888002e
:104d54000a2bef00082bef000c2bef007000200053
:104d6400705888000088a90000022200805888003a
:104d74006004200090588800162bef0000002100ea
:104d8400a05888001a2bef00182bef001c2bef0003
:104d940070002000f058880001c8a900000220001b
:104da40000598800d000200010598800262bef00fd
:104db40000002100205988002a2bef00282bef0047
:104dc4002c2bef0070002000705988000308a90004
:104dd400302bef00322bef00362bef0000002100c8
:104de400a05988003a2bef00382bef003c2bef0042
:104df4003e2bef000488a9000080fa0000000600a2
:104e04000000fa000080fa00000006000000fa002a
:104e140000408000700060000000e00002003200ea
:104e2400f7ff07000088a9000080fa0000000600d0
:104e34000000fa000080fa00000006000000fa00fa
:104e44000140800000002400008060000000e000b9
:104e540002003200f6ff070001c8a9000080fa0032
:104e6400000006000000fa000080fa0000000600be
:104e74000000fa0011408000001020000080600053
:104e84000000e00002003200f6ff07000308a9005a
:104e94000080fa00000006000000fa000080fa001a
:104ea400000006000000fa0020408000700060004e
:104eb4000000e00002003200f7ff07000488a900a8
:104ec4000080fa00000006000400fa00881f780041
:104ed400008fbe006011b8001e0078009e00900094
:104ee4000aef07000000e00003003a000629ef0083
:104ef4001029ef002f00370018c0b3006011b8006c
:104f04001e0078009e00900002ef07000000e00001
:104f140001003c000044eb000804e0000e003200f5
:104f24001029ef0002002000832c24001e007800ca
:104f34009e009000b3ee070002e02f00f36f240000
:104f440064ef07001e000700f4ee0700000078007d
:104f5400304888001700370018c0b3006011b8004b
:104f64001e0078009e009000e8ee07000000e000bc
:104f7400010035000044eb000804e0000d0032009d
:104f84000629ef0002002000832c24001e00780074
:104f94009e0090009bee070002e02f00f36f2400b8
:104fa4004cef070006000700dcee07000000780065
:104fb400804888004f0478000080fa000000060052
:104fc4000400fa00881f7800008fbe0018c0b300e8
:104fd40002002200b36c24001e0078009e009000a2
:104fe400ccee07000000e00001003c000044eb00b0
:104ff4000804e0000300320000002200b16c240029
:105004001000370018c0b30002002200b36c2c005b
:105014001e0078009e009000bcee07000000e00037
:10502400010035000044eb000804e00003003200f6
:1050340000002200b16c2400020037001e0078003a
:105044009e0090004f0478000080fa0000000600e3
:105054000000fa0080002000001188002222ef00e6
:10506400a06120004011880021e2a8002342a8008a
:105074000080fa00000006000000fa0000000000b2
:1050840010118000610060000000e000fcff3200ad
:1050940010118000620060000000e0000100320096
:1050a4002222a90030118000004078000080fa001c
:1050b400000006000200fa00004f78000000000023
:1050c4001111800000202000008060000000e0003a
:1050d400fbff3a001e80fb00201188000080fa00cc
:1050e400000006000000fa00101180000040780063
:1050f400614060000080fb0000f0a7000000ea00af
:105104000000ea004f00de00004078000080fa0052
:10511400000006000000fa001111800000202000a9
:10512400008060000000e00007003a0011118000d8
:1051340000402000008060000000e0000200320017
:1051440010002000010037000000eb000040780050
:105154000080fa00000006000000fa001011800030
:105164004800de00614060000080fb0000f0a70002
:105174000000ea000000ea004f00de000040780072
:105184000080fa00000006000000fa001011800000
:105194000080fa00000006000000fa0021e2a800e6
:1051a4002342a8000080fa00000006000000fa0074
:1051b40021e2a9002342a9000080fa0000000600b1
:1051c4000000fa000a21ef00f0ff230070088800b5
:1051d4000002280090088800d08080000000e000d1
:1051e40002003a00a0932200240007000108a9004d
:1051f4002108a800801221008040eb0001487800bb
:105204000080fa00000006000200fa00000f780097
:105214009e00780071088800801221008040eb0015
:10522400014878000080fa00000006000000fa003f
:10523400700880000080fa00000006000200fa00f6
:10524400000f78009e007800510888008012210029
:105254008040eb00014878000080fa00000006005e
:105264000000fa00500880000080fa0000000600e8
:105274000000fa000080fa00000006000200fa00b4
:10528400000f78002108a9009e007800d1808800d2
:105294002108a8000080fa00000006000000fa00bf
:1052a400801221008040eb00014878002108a8000a
:1052b40013e1a8000080fa00000006000000fa00d4
:1052c40013e1a9002108a9000080fa0000000600eb
:1052d4000200fa0080122100104f78001e4078006e
:1052e4000004e00003003200801221008040eb0043
:1052f400014878001e4078000080fa000000060093
:105304000000fa0090122100104078000080fb0099
:105314000080fa00000006000000fa00901221004c
:105324008040eb00014878000080fa00000006008d
:105334000000fa000621ef00f0ff23006008880057
:105344000002280080088800601221008040eb00e1
:10535400014878000080fa00000006000000fa000e
:105364000140800000082000008060000000e00090
:105374000900320070122100104078008040e800db
:1053840070122100014878006012210011c0b3009e
:105394000148780000e8a9000080fa000000060037
:1053a4000200fa00000f78009e007800610888006f
:1053b400601221008040eb00014878000080fa0070
:1053c400000006000000fa00600880000080fa0077
:1053d400000006000200fa00000f78009e0078002a
:1053e40031088800601221008040eb0001487800f9
:1053f4000080fa00000006000000fa003008800077
:105404000080fa00000006000000fa00601221008b
:105414008040eb000148780011e1a8000080fa0008
:10542400000006000000fa0011e1a9000080fa0063
:10543400000006000200fa0060122100104f7800fc
:105444001e4078000004e0000300320060122100d6
:105454008040eb00014878001e4078000080fa008c
:10546400000006000000fa007012210010407800cd
:105474000080fb000080fa00000006000000fa0033
:10548400701221008040eb00014878000080fa008f
:10549400000006000000fa00042eef00142eef00b6
:1054a4007000200000708800f01e2f0080708800bb
:1054b4000c2eef001c2eef000a2eef001a2eef0028
:1054c400062eef00162eef001000200070708800ea
:1054d40030002000f0708800113a8000f00b2000aa
:1054e4000081600060042000710520002374200006
:1054f40080497800814978008249780041348000ed
:1055040000fc2f00008060000040a00040348800b0
:10551400a136800000f82f00808060008002200007
:1055240001007000a036880031348000f00f2c0098
:105534008080600000e020000100700030348800aa
:105544002136800000f82f00808060005002200087
:10555400010070002036880041348000f00f2c00d8
:105564008080600000102100010070004034880039
:105574001134800000fc2f00008060000000a000b7
:1055840010348800103a8000000178000260a00006
:1055940060042000710520002374200080497800f5
:1055a40081497800824978000080fa0000000600f2
:1055b4001400fa0070079800010f9800120f980069
:1055c4007e009000400798008e08900051079800d4
:1055d4001e089000600798002e0090000010a100a3
:1055e400200798002e0090000000a10020079800da
:1055f400ae00900030fc2f00008060008001b300fa
:1056040020079800a00e2100104078000080fb00c5
:105614004700dd00d000b300cf80de00008fbe0065
:1056240068004700300798008e00780030002000a2
:10563400c4f807000080fa00000006000000fa0029
:105644000004a800c1208000c0ff2f00008060007b
:10565400c020880080218000ff00600000002f002f
:105664000100700080218800a00e21001040780005
:105674000080fb004700dd0080007800f07f200000
