:020000040000fa
:080000000002040000000000f2
:020000040000fa
:040008002a030000c7
:020000040000fa
:04000c006c03000081
:020000040000fa
:04001000cc0300001d
:020000040000fa
:040014004a0300009b
:020000040000fa
:040018008c03000055
:020000040000fa
:04001c00ac03000031
:020000040000fa
:04002000ec030000ed
:020000040000fa
:04002400ec040000e8
:020000040000fa
:04002800ec040000e4
:020000040000fa
:04002c00ec040000e0
:020000040000fa
:04003000ec040000dc
:020000040000fa
:04003400ec040000d8
:020000040000fa
:04003800ec040000d4
:020000040000fa
:04003c00ec040000d0
:020000040000fa
:04004000ec040000cc
:020000040000fa
:04004400180400009c
:020000040000fa
:040048008004000030
:020000040000fa
:04004c00ec040000c0
:020000040000fa
:04005000ec040000bc
:020000040000fa
:04005400ec040000b8
:020000040000fa
:04005800ec040000b4
:020000040000fa
:04005c00ec040000b0
:020000040000fa
:04006000ec040000ac
:020000040000fa
:04006400ec040000a8
:020000040000fa
:04006800ec040000a4
:020000040000fa
:04006c00ec040000a0
:020000040000fa
:04007000ec0400009c
:020000040000fa
:04007400ec04000098
:020000040000fa
:04007800ec04000094
:020000040000fa
:04007c00ec04000090
:020000040000fa
:04008000ec0400008c
:020000040000fa
:04008400ec04000088
:020000040000fa
:04008800ec04000084
:020000040000fa
:04008c00ec04000080
:020000040000fa
:04009000ec0400007c
:020000040000fa
:04009400b6040000ae
:020000040000fa
:04009800ec04000074
:020000040000fa
:04009c00ec04000070
:020000040000fa
:0400a000ec0400006c
:020000040000fa
:0400a400ec04000068
:020000040000fa
:0400a800ec04000064
:020000040000fa
:0400ac00ec04000060
:020000040000fa
:0400b000ec0400005c
:020000040000fa
:0400b4004e040000f6
:020000040000fa
:0400b800ec04000054
:020000040000fa
:0400bc00ec04000050
:020000040000fa
:0400c000ec0400004c
:020000040000fa
:0400c400ec04000048
:020000040000fa
:0400c800ec04000044
:020000040000fa
:0400cc00ec04000040
:020000040000fa
:0400d000ec0400003c
:020000040000fa
:0400d400ec04000038
:020000040000fa
:0400d800ec04000034
:020000040000fa
:0400dc00ec04000030
:020000040000fa
:0400e000ec0400002c
:020000040000fa
:0400e400ec04000028
:020000040000fa
:0400e800ec04000024
:020000040000fa
:0400ec00ec04000020
:020000040000fa
:0400f000ec0400001c
:020000040000fa
:0400f400ec04000018
:020000040000fa
:0400f800ec04000014
:020000040000fa
:0400fc00ec04000010
:020000040000fa
:04010000ec0400000b
:020000040000fa
:04010400ec04000007
:020000040000fa
:04010800ec04000003
:020000040000fa
:04010c00ec040000ff
:020000040000fa
:04011000ec040000fb
:020000040000fa
:04011400ec040000f7
:020000040000fa
:04011800ec040000f3
:020000040000fa
:04011c00ec040000ef
:020000040000fa
:04012000ec040000eb
:020000040000fa
:04012400ec040000e7
:020000040000fa
:04012800ec040000e3
:020000040000fa
:04012c00ec040000df
:020000040000fa
:04013000ec040000db
:020000040000fa
:04013400ec040000d7
:020000040000fa
:04013800ec040000d3
:020000040000fa
:04013c00ec040000cf
:020000040000fa
:04014000ec040000cb
:020000040000fa
:04014400ec040000c7
:020000040000fa
:04014800ec040000c3
:020000040000fa
:04014c00ec040000bf
:020000040000fa
:04015000ec040000bb
:020000040000fa
:04015400ec040000b7
:020000040000fa
:04015800ec040000b3
:020000040000fa
:04015c00ec040000af
:020000040000fa
:04016000ec040000ab
:020000040000fa
:04016400ec040000a7
:020000040000fa
:04016800ec040000a3
:020000040000fa
:04016c00ec0400009f
:020000040000fa
:04017000ec0400009b
:020000040000fa
:04017400ec04000097
:020000040000fa
:04017800ec04000093
:020000040000fa
:04017c00ec0400008f
:020000040000fa
:04018000ec0400008b
:020000040000fa
:04018400ec04000087
:020000040000fa
:04018800ec04000083
:020000040000fa
:04018c00ec0400007f
:020000040000fa
:04019000ec0400007b
:020000040000fa
:04019400ec04000077
:020000040000fa
:04019800ec04000073
:020000040000fa
:04019c00ec0400006f
:020000040000fa
:0401a000ec0400006b
:020000040000fa
:0401a400ec04000067
:020000040000fa
:0401a800ec04000063
:020000040000fa
:0401ac00ec0400005f
:020000040000fa
:0401b000ec0400005b
:020000040000fa
:0401b400ec04000057
:020000040000fa
:0401b800ec04000053
:020000040000fa
:0401bc00ec0400004f
:020000040000fa
:0401c000ec0400004b
:020000040000fa
:0401c400ec04000047
:020000040000fa
:0401c800ec04000043
:020000040000fa
:0401cc00ec0400003f
:020000040000fa
:0401d000ec0400003b
:020000040000fa
:0401d400ec04000037
:020000040000fa
:0401d800ec04000033
:020000040000fa
:0401dc00ec0400002f
:020000040000fa
:0401e000ec0400002b
:020000040000fa
:0401e400ec04000027
:020000040000fa
:0401e800ec04000023
:020000040000fa
:0401ec00ec0400001f
:020000040000fa
:0401f000ec0400001b
:020000040000fa
:0401f400ec04000017
:020000040000fa
:0401f800ec04000013
:020000040000fa
:0401fc00ec0400000f
:020000040000fa
:04020000ec0400000a
:020000040000fa
:04020400ec04000006
:020000040000fa
:04020800ec04000002
:020000040000fa
:04020c00ec040000fe
:020000040000fa
:04021000ec040000fa
:020000040000fa
:04021400ec040000f6
:020000040000fa
:04021800ec040000f2
:020000040000fa
:04021c00ec040000ee
:020000040000fa
:04022000ec040000ea
:020000040000fa
:04022400ec040000e6
:020000040000fa
:04022800ec040000e2
:020000040000fa
:04022c00ec040000de
:020000040000fa
:04023000ec040000da
:020000040000fa
:04023400ec040000d6
:020000040000fa
:04023800ec040000d2
:020000040000fa
:04023c00ec040000ce
:020000040000fa
:04024000ec040000ca
:020000040000fa
:04024400ec040000c6
:020000040000fa
:04024800ec040000c2
:020000040000fa
:04024c00ec040000be
:020000040000fa
:04025000ec040000ba
:020000040000fa
:04025400ec040000b6
:020000040000fa
:04025800ec040000b2
:020000040000fa
:04025c00ec040000ae
:020000040000fa
:04026000ec040000aa
:020000040000fa
:04026400ec040000a6
:020000040000fa
:04026800ec040000a2
:020000040000fa
:04026c00ec0400009e
:020000040000fa
:04027000ec0400009a
:020000040000fa
:04027400ec04000096
:020000040000fa
:04027800ec04000092
:020000040000fa
:04027c00ec0400008e
:020000040000fa
:04028000ec0400008a
:020000040000fa
:100400000f4021000eff27000e01880000000000b1
:10041000000020000000e000020032000001200087
:100420002002880014000700b40107000000e0006b
:1004300003003a00e0a7220001002000020037007c
:100440000000200001002000810f70000100320038
:100450000f000700000020000000e0000200320052
:100460000000020000000000403802000000000010
:100470000040da000000fe00800120000000e000e3
:1004800002003200002020009001880000000600d9
:10049000a1028800800478000000eb001f003700f4
:1004a000e284440054a0b4009905ba00e2844400f8
:1004b00054a0b4009906ba00e284440054a0b400e9
:1004c0000006eb00476fde00fd07b200ae018800ba
:1004d000636ce10003003a000ad801000000eb0061
:1004e0000e003700606ce10008003a00004deb00a0
:1004f0000a05e800020039003420ec000af0a000f0
:100500008b05e900f9ff3e00040037006168e10057
:10051000010032000086eb000b00070019c7ba008b
:100520000e04e0001905ba0003003a000a00e000da
:10053000dbff3a0000000600fe07b200ae028800b2
:100540008a047800f5ff37000cd0a300e20f4d00bd
:100550001c00390089027800354dba000a05e80010
:10056000020039003420ec000af0a0008b05e900fd
:100570000f003200254dba000a05e80002003900dc
:100580003420ec000af0a0008b05e90008003200de
:100590000c00e0000600320015cdba000a05e800a4
:1005a000020039003420ec000af0a0008b05e900bd
:1005b0008984e80054a0b4000b00e000e2ff3a0098
:1005c000000006009902ba00055d78008b05e9007d
:1005d000f7ff3200c82ade00055d78008b05e900d0
:1005e000f3ff32000c00e000f1ff320019ddba0029
:1005f000eeff3700fa33040000000000ac250400d1
:1006000000000000b2340400000000007037040055
:10061000000000000438040000000000103804004e
:10062000000000001c380400000000006a350400cf
:10063000000000000c09040000000000360b04005c
:10064000000000000000040000000000ea0b0400ad
:10065000000000003600f800809fbe00829fbe00b0
:10066000849fbe00869fbe000000fa00c028a9003b
:100670000000eb00761a07000080fa004f03be006e
:100680004f02be004f01be004f00be003600f90011
:10069000004006003600f800809fbe00829fbe002a
:1006a000849fbe00869fbe000000fa006d1a0700fe
:1006b000c048a90010002000651a07000080fa0059
:1006c0004f03be004f02be004f01be004f00be00f0
:1006d0003600f900004006003600f800809fbe009a
:1006e000829fbe00849fbe00869fbe000000fa006d
:1006f000c068a90020002000551a07000080fa00f9
:100700004f03be004f02be004f01be004f00be00af
:100710003600f900004006003600f800809fbe0059
:10072000829fbe00849fbe00869fbe000000fa002c
:10073000c088a90030002000451a07000080fa0098
:100740004f03be004f02be004f01be004f00be006f
:100750003600f900004006003600f800809fbe0019
:10076000829fbe00849fbe00869fbe000000fa00ec
:10077000c0a8a90040002000351a07000080fa0038
:100780004f03be004f02be004f01be004f00be002f
:100790003600f900004006003600f800809fbe00d9
:1007a000829fbe00849fbe00869fbe000000fa00ac
:1007b000c608a90070002000251a07000080fa0072
:1007c0004f03be004f02be004f01be004f00be00ef
:1007d0003600f900004006003600f800809fbe0099
:1007e000829fbe00849fbe00869fbe000000fa006c
:1007f0002146800000022000008060000000e00030
:1008000003003200c4a8a90090002000101a0700bd
:1008100020468000700060000000e000030032000d
:10082000c488a900a0002000091a0700ffff3700b4
:100830003600f800809fbe00829fbe00849fbe00ed
:10084000869fbe000000fa00c08080000000e0002b
:1008500002003200c080800000000100f01c210076
:10086000104078008040e800f01c2100014878002a
:10087000e01c210011c0b3000148780000e8a90085
:100880000080fa004f03be004f02be004f01be00c1
:100890004f00be003600f900004006003600f800a8
:1008a000809fbe00829fbe00849fbe00869fbe00c8
:1008b0000000fa0051208000000420000080600049
:1008c0000000e00006003200d08080000000e00060
:1008d00002003200d0808000000001000ac4a9009c
:1008e0000468a9000080fa004f03be004f02be005a
:1008f0004f01be004f00be003600f9000040060068
:100900003600f800809fbe00829fbe00849fbe001c
:10091000869fbe000000fa00e08080000000e0003a
:1009200002003200e080800000000100101d210064
:10093000104078008040e800101d21000148780038
:10094000001d210011c0b300014878000108a90072
:100950000080fa004f03be004f02be004f01be00f0
:100960004f00be003600f900004006003600f800d7
:10097000809fbe00829fbe00849fbe00869fbe00f7
:100980000000fa00008180000000e0000200320058
:100990000081800000000100301d2100104078001f
:1009a0008040e800301d210001487800201d210012
:1009b00011c0b300014878000368a9000080fa0064
:1009c0004f03be004f02be004f01be004f00be00ed
:1009d0003600f900004006000040da000000fe008a
:1009e0000a00fa0011002000b1bf9f00c0bf9f00a5
:1009f0006a805700590907004fb897000080fa0035
:100a0000000006000a00fa0051002000b1bf9f005c
:100a1000c0bf9f006a805700520907005fb8970067
:100a20000080fa0000000600889fbe008004780065
:100a3000d08e80000000e00004003a000e000700a5
:100a40000084eb000000e00008003500d88e800034
:100a50000900e0000500320009004400060007001c
:100a60000000e00001003d000084eb000800780079
:100a70004f04be0000000600800078000100e00086
:100a800003003a0000002000d08e8800000005001e
:100a90000080eb0002002000828f500002003e0028
:100aa000d18e88000000eb00000006000800fa006c
:100ab000100798002107980032079800be009000a8
:100ac000010f7800070037002e00900010407800da
:100ad000ae0090008100e80021079800d6160700bc
:100ae0001e0fe9001e0078000000e000f6ff3a004b
:100af0003e0090000080fa000000060000000500a3
:100b000003f0a200889fbe008a9fbe008c1f780061
:100b10001b010700220133006450e1004f00320046
:100b20006420e1005200320003826c0007003b00a9
:100b30000905d0000306d000820f54000c065d00aa
:100b400002003900020032008901780003067800b3
:100b50008582550004003d000003fd008103fd0077
:100b60008502ea008b854200840f720002003b0080
:100b700060001000e08018006011b8000005eb0074
:100b80007a28e1000a00390006007800c75ddd0020
:100b9000f707b200878075002d0037008281710051
:100ba0000a017800610560008180d1000080d300d7
:100bb0008502e900f9ff3b000604400087844800f5
:100bc00002003b0060041400e0841c000988a300bc
:100bd000070032008a817100828171006101640026
:100be0008904d1000884d3008b05e8001700370082
:100bf0000978a30013003a000b00e0001300340052
:100c00008b05e9000804440089844c000a44740000
:100c10000978a3000d003a000b00e0000700340043
:100c20008b05e9000804440089844c0001003a0067
:100c30000b0020000978a300f7ff32000001eb0051
:100c400002003700828171000a01780091000700dc
:100c50000cf0a70001f0a000da0037006420e100ea
:100c600002003a00838f6c00da0033000801be00f6
:100c70000200be00d3003700889fbe008a9fbe00de
:100c80008c1f7800be000700c500330003866c008f
:100c90006450e1002e0032006420e1003300320095
:100ca0006150e1002f0032006120e100310032008c
:100cb00085855500eb07b0000900200008042000de
:100cc000050037000804440089844c000a00310004
:100cd0000603430087834b000001530081815b00c2
:100ce000f8ff33000203be000800a000080444001f
:100cf00089844c00f6ff3900c639dd00830173009a
:100d000001003200130020008904d1000884d300c0
:100d10000998a300050032000800a7000300a00006
:100d20008904d1000884d3008b05e8008904d10030
:100d30000884d3000001eb000281d20055000700b7
:100d400001f0a1000cf0a70001f0a0009d00370009
:100d50006420e1009f0032000801be000200be00d6
:100d6000f7ff37006120e1009a0032006000b80010
:100d7000f3ff37000000200001f82700f0ff3700e4
:100d800014002000ca003700f4ff2f00c80037000d
:100d90000001be00650007000470a70003f0a10079
:100da0006509b100160032000d0035006828e10029
:100db00006003500f0ff2f00f1ff27000300e000e0
:100dc00013003b0001002800000005000000400067
:100dd000818048008502e900fcff3a0008003700e6
:100de000f88f420002003c008000eb00000005008c
:100df0008100d1000080d3008502e800fcff3a00aa
:100e00000300e00002003b0060001000e0801800da
:100e1000000006000001be00440007000470a700a7
:100e200003f0a10003f8a30013003a006509b10024
:100e300010003200090035006928e1000200350089
:100e400001002800000005000000400081804800eb
:100e50008502e900fcff3a0000000600f88f42001e
:100e6000050035008100d1000080d3008502e80034
:100e7000fcff3a00000006008000eb0000000500c7
:100e80004f89de0082017800a40037006011b800ad
:100e9000b200370081002000618055000b003d004a
:100ea0000b00200061fe2f000100e1001d00340056
:100eb00082817100610164008904d1000884d3003b
:100ec0000000e800faff3a007100200061006400b1
:100ed0000300700002006000090032006104440059
:100ee000e0844c000988a500050032008b05e8006d
:100ef0006808e10002003a008904d1000884d300a8
:100f0000f20f20000258e10005003d00c75ddd0042
:100f1000f907b2008980750008007800000006001b
:100f20000bf827008b00780000000500c70ade00e0
:100f3000f107b200f50fb20008003200e1cf420025
:100f4000020032000170a00024000500810f700033
:100f5000010032000408050044000500810f700004
:100f600002003a00140005008502e900000040007c
:100f700081c04800fcff3b000170a0002400050078
:100f80000004be00e9ff07000003be000405be0028
:100f90000200be00e5ff0700844f75000000060058
:100fa0000200be006450e100050036006420e1004c
:100fb000020036000968a30001003a000800be00e4
:100fc0000160a0004f0678004f05be004f04be0030
:100fd00000000600f0ff2f00f1ff2700f9ff3700a7
:100fe000889fbe008a9fbe008c1f7800e4ff070028
:100ff000ebff330003866c006450e10024003200f4
:101000006420e100270032006150e100220032003c
:101010006120e100210032008b854200eb07b10026
:101020000134b800003ab8000804420089844a003c
:10103000013ab8000030b8008880400009014a0039
:101040000400330000004000818048000201490094
:101050008b05e900c909dd00830170000100320041
:1010600013002000c814de004814dd004709de002c
:101070001200b200c808de000884700085ff070077
:1010800001f0a1000cf0a70001f0a000cdff370097
:101090006120e100cfff32000801be000200be0067
:1010a000f7ff37006150e100fcff3a00c9ff37004d
:1010b000889fbe008a9fbe00841f7800b0ff070093
:1010c0004f00780011003300f0ff2f00838f6c0079
:1010d00006003b00040565000a00a7000800370071
:1010e00009f0a6001000200008003700820f54000d
:1010f000838f5c00030039001000200001003e00d7
:101100000000200009f0a7000000ea004f05be0023
:101110004f04be000000e00000000600881f7800b9
:10112000030478000300e00007003d0060001000a9
:10113000e080180060011900e081190002003b0006
:1011400001f02d00030037000400070008f0a7009d
:1011500001f0a0004f04780000000600889fbe0048
:101160008a9fbe0000827000040271000482710038
:10117000260032000004be000200be006011b8006c
:101180006b092000950220000182cf000a0039007f
:101190000541b1000082cf00070039000541b100d0
:1011a0000982cf00040039000541b1000882cf0058
:1011b000010039000541b100054252001200320021
:1011c0000a003b0082817100610164008100d1004e
:1011d0000080d3008984d3000884d3008b05e80005
:1011e0000442e800f7ff3a00070037000804440013
:1011f00089844c0000004800818048008b05e9008c
:101200000442e900f9ff3a0022ff07004f05be0043
:101210004f04be0000000600889fbe000004780056
:1012200001007800820478008801780009017800c4
:10123000110020000e000700890f5000010032004d
:101240000004eb00080078004f04be000000060018
:101250000000fa00e88157004fb99700a10421006f
:10126000c0902000250207000080fa000000060060
:10127000889fbe008a9fbe008c9fbe008e1f780094
:1012800000067800010478000200780083047800ea
:101290008881b900020778000e00e00042003200a9
:1012a0000800e000410032008e057800c90090007f
:1012b00069009000808f5000040039000900780018
:1012c000500007000000e000290035000040200029
:1012d000190060000a0032000b017800a100200014
:1012e0000c00780036000700800678000d00e00052
:1012f00006003200610516000a854600040037002a
:101300000b0578008006eb00010037000b05780024
:1013100049009000e9009000808050008a8f5000c2
:1013200002003100010578008006eb000a01780018
:101330008c0078002c0007008a8555004900900039
:101340000a004000c00498000d00e00004003200d4
:1013500009007800d60007000000e00004003a0011
:101360000b00e000020032000a064600cfff370003
:10137000008020001900600002003200090078009f
:10138000cb00070000c020001900600002003200fe
:1013900049009000e00498008b05570011000900f7
:1013a0008885d800010037000000eb004f07780067
:1013b0004f06be004f05be004f04be0000000600f1
:1013c00003003700b0cf1000050032000201e90031
:1013d000800178000200e000faff3a0000000500fa
:1013e000030078000000060080017800020037004a
:1013f000b15978000201e9000200e000fcff3a0068
:1014000000000600889fbe008a1f78000004780054
:10141000c8009000680190000000eb00828f50002f
:101420003c00390018007800220029000201600009
:10143000e20f510007003200012020000000e00010
:101440000100350001202400008c70000080eb00ba
:10145000300037000200260002006000820f5000ba
:1014600009003a0038009000808f500006003900d3
:10147000080078008e000700800078000080eb00f4
:101480000100e00023003a001805780000c02000a9
:101490000000650018003a00a804900060022000d7
:1014a00008004000808f540013003a000020200004
:1014b000ac040700200498000000e00005003a009a
:1014c00029049800490498008904e8003904980028
:1014d000080037000a60a0000a0c78004004980059
:1014e000012020008080400031049800400c9800ca
:1014f000500c98000c000700280090005004980041
:10150000380090006004980000002600180c70005d
:101510000000eb004f0578004f04be0000000600fd
:1015200060b320009e003700881f7800481d21000e
:101530001804e00003003a00f9ff070020c0b300e0
:10154000004c78004f04780000000600889fbe0021
:101550000004780008007800550007008004780037
:1015600000042000180060000200320028009000f3
:10157000020407000000eb002004980038409000af
:101580000004e000050035000000fb0014fd07002a
:101590000000e000010032008084eb001810900091
:1015a0000000e0000800320016fd07000000e00027
:1015b000010032008084eb0018109000ef03070058
:1015c0000000eb00101498000008200018006000d4
:1015d000150032000001eb006000b8000202d000ec
:1015e000a309210003024200940f140005003a00f1
:1015f0000000400081804800008041000008eb00ae
:101600000600370061004000e08048000201e80069
:10161000e80f5000e08f5800f0ff3a000800780013
:10162000d60307000e003700000c780000c0eb0066
:101630003044980060022000080040002004980018
:101640004004980050049800400c980060049800f2
:10165000500c98007004980076004400000c98002c
:10166000090078004f04be0000000600881f7800c3
:101670000004eb006140b800e2ff2f00f3ff2f00f1
:1016800011080700820a2100800041001100780043
:101690000000e00001003200acff07000804e80091
:1016a000e80f5400f3ff3a004f04780000000600f2
:1016b000889fbe00000478000800e00010003a0097
:1016c0008004eb00090478008800d000a009210004
:1016d00000804000100078000000e00004003200ac
:1016e000f3ff07000000e00001003d008084eb00f4
:1016f0000804e800e80f5400f3ff3a002500370023
:1017000000002200180060008004eb00210032007d
:10171000a80490000f0037000901510038409000e4
:101720000000fb0089007800e0fc07000000e000fa
:1017300007003c00280090004004980060049800d6
:10174000500c98001890a0008084eb001100370026
:101750008084440048019000828f5400eeff3900dd
:1017600028009000400498009800780002c02000f3
:101770000281600001003a003800900001e8a300f7
:10178000020032006004980001003700500c9800fd
:101790008004eb00090078004f04be000000060042
:1017a000010020000100e00009003200010080007b
:1017b0000100e000060032008100e900010088001d
:1017c0008100d00002008000828040008008780004
:1017d00000000600889fbe00000478000203be00df
:1017e0008104780008027800890178001200200046
:1017f0000600be0021050700890f500001003200dd
:101800000004eb00080078004f04be000000060052
:101810006800fa00889fbe008a9fbe00800478009e
:1018200001047800820578000305780084007800c0
:1018300000f92f000f0040000e050700d98f9f0010
:10184000fb8f9f000000eb00a09f9f00e88f9f0090
:101850009a84fb000904fb008904ea00cf4cde00f7
:1018600050022000800f54000d003200e18f540020
:101870000b003a00090178008a0078007f88970001
:10188000df89970003000100f08f9f000000e00057
:10189000950032002f9897000000e800a09f9f005d
:1018a0000905450050022000800f5400040032005a
:1018b0000800e000e6ff3a002f9897008b00370001
:1018c0000000eb00809f9f00f0979f00e0979f0033
:1018d000d0979f00c0979f00b0979f0007003700e8
:1018e000411c21000100500000004000811b21002c
:1018f000808040004f98970011007000c09f9f00ab
:101900000a04780008057800ba4478008900fb00d2
:10191000401c2100bd0307000000e000f0ff3a007a
:10192000a1c2b30081cf54000e003a008f88970007
:101930000180e900808f9f0010007800b09f9f0019
:101940000000e00005003d000000ea00b09f9f009d
:101950004f9897000020a000c09f9f000804e80057
:1019600010003700b09f9f00880078000000eb0057
:1019700005003700f3ff2700830f500002003200fc
:10198000ea00b900000041000104780088007800f6
:101990003101fb000203b100e90f5100f5ff3600f1
:1019a000b09f9f00e0c2b300984f100002003200c9
:1019b0000080eb0019003700a0c2b300d84f100020
:1019c00007003a008f8897000180e900808f9f0010
:1019d00010007800909f9f000804e8001000370076
:1019e0000000eb00909f9f00880078000500370002
:1019f000f3ff2700830f500002003200ea00b90015
:101a00000000410001047800880078003101fb00eb
:101a10000203b100e90f5100f5ff3600909f9f00cf
:101a2000984478008900fb00001b21007703070021
:101a30000000e000020032000804e8000100370066
:101a40008044eb00a97f9f0080c6b30080cf540084
:101a500006003a0098cf140010003a00664050008b
:101a6000a07f9f000804e8000c003700c0c6b30048
:101a700080cf540009003a0098cf140007003a00c4
:101a800067404000d84f100002003a006e405000fe
:101a90000100370010c7b300a07f9f001801fb00b2
:101aa000c3fb2f008f81410001f92f008f80400080
:101ab00020f92f000f004000150007000000e00093
:101ac00009003a00c1fb2f008f80400020f92f0051
:101ad0000f0040008d0307000000e0000200350009
:101ae0000805e8005aff37000080eb004f05be00f4
:101af0004f04be000080fa000000060003027800d8
:101b00008201780001017800a1be200040ff37006b
:101b1000889fbe008a1f7800000478008244780005
:101b20000305780070c4b30080cf54000a003c0065
:101b300000c0e90080cf54000f003d0050c2b30048
:101b400080cf54003b0032007c40400080cf5400e6
:101b50003b003a000800370010c6b30080cf5400a5
:101b60000500320036003500b0c9b30000c04400a3
:101b7000e24f500032003e0008699000c0c4b3003c
:101b8000804f510008003a001101780068005100b0
:101b9000800878009000900020019000b001900033
:101ba0001000780006003700110178006400510031
:101bb000800878009000900010007800eb05070086
:101bc000009cbe000294be00b8009000280890005f
:101bd0000100e00003003d0080004500d2c2b300d8
:101be0000a003700b81090000118a300030032006b
:101bf00080004500b2c2b300040037000108a30012
:101c0000050032008000450002c2b300824878001f
:101c10000000e800200c980028089000000545000e
:101c20007a0498008900fb00080078001000070083
:101c30000b0037002808900000054500050037001c
:101c400028089000000545000904e00001003a0062
:101c500059c2b300094d78000000e800200c98003c
:101c60000000eb004f0578004f04be0000000600a6
:101c70002f04b000889fbe008a9fbe008c9fbe00cc
:101c80008e1f78000007780081f79f001e047800ff
:101c90009e0490002e059000be0590000e1090004e
:101ca0000000e00002003d006000200000179800e6
:101cb0008e00780020fb2f000f004000e902070093
:101cc000e20f50000a003a0030002000400f980058
:101cd000b1c9b3000ff097008140400060112100ae
:101ce000e1cf50000d003e00201121000b00370015
:101cf0000000e0000f00340030002000400f98008a
:101d0000b1c9b3000ff1970081404100e0112100fb
:101d1000e1cf500001003e00a0112100fe00900024
:101d2000b0487800b0687800104078009040980083
:101d3000f70037000000e00005003a0022fb2f000a
:101d40000f014100001978008001eb00eb00370023
:101d50006022b8006033b8000800be000a01be006f
:101d6000ca0407000000e00001003d000bf0a200e3
:101d7000705927009f9897000088b900026a2800d0
:101d80001300200025050700640650009c9f9f005b
:101d900015003b0063061600c0ff2f00000666001a
:101da0008c01ea00939f9f002d1221000800be00c5
:101db0000a01be00090037000c08a300050032002c
:101dc0001d0278009d0290002d039000bd0390003d
:101dd000b50507000c86d100e88646000c00e0003f
:101de000f5ff3c001a0037000c00e0001a0032003a
:101df000c0ff2f00000666009c9f9f002d1221004f
:101e00006000b8000200200003ff23000900370033
:101e10000c08a300050032001d0278009d0290000e
:101e20002d039000bd0390009f0507000c86d10094
:101e3000e88646000c00e000f5ff3c000002be0012
:101e40000203be000800be000a01be00990407009c
:101e50000004be000205be008e10900060c6b300f4
:101e60000ff29700804f5200040032006000200003
:101e700062c4b300824f520002003a009f9a97005a
:101e80006a80420081004000f1b79f0001037800a2
:101e9000f30f53000200340037012000f7b79f0012
:101ea00000c3b300c0779f0056fb2f000f03430011
:101eb0000e007800a0b79f00060778003d003700ad
:101ec0000800be000a01be00470507000006be006c
:101ed0007fb1970068015100f2b79f004240a9000e
:101ee0000c0034006c0507000002be000203be00b7
:101ef0000800be000a01be00e10507006022b8002c
:101f000046782d0077192400670507000004be00fd
:101f10000205be00e80047008e0020000802be0057
:101f20000a03be00b4b79f00c5b79f00d6b79f0095
:101f3000e7b79f000c01be00010478000c003700d9
:101f4000a400200005002000c0fd2f000f0040006d
:101f5000bc0107006fa89700ffa897000fb197007a
:101f60009fb1970005c3b300056441000001be00a6
:101f7000e00f5100e08f5900030034000e07e90024
:101f8000e10f4700eeff3a00880078003fb4970069
:101f9000cfb497005fb59700efb597000200370008
:101fa00000c3b300806078000e07e900fcff3b002f
:101fb000688740007fb397000600e0000700340008
:101fc0006022b8006033b8000800be000a01be00fd
:101fd000330407000000e000b9ff3c000e03780066
:101fe0002fb7970051fb2f008f8040000103530053
:101ff0009f9b970067804300909f9f0002003700df
:102000000603e9000000e900010178008200780081
:1020100003c3b300b1cf1100f9ff3200909f9f00be
:102020008e11900061c6b3000ff29700814f5200ed
:102030000300320061c4b300814f520002003a0035
:102040000000e8000a0037001000200051c6b3006d
:102050008ff2970081cf52000500320005407800d2
:1020600050c4b2000080fb000000e9004f00de0019
:1020700083014000868f5100010034008601780002
:102080000300e0001d00350000c3b300868f51003f
:1020900006003d00030241006940400041c3b30017
:1020a00094cf100001003c00694050008300e9001b
:1020b0008100410001003700840178000302e9003b
:1020c00001037800a142780080cf5200faff32006d
:1020d00091c3b300814f500001003a00054be80066
:1020e0000400e00005003d000201e9008301e80072
:1020f0001f9b97000603e800969f9f008ff39700b1
:102100008700fb001f9a97000e007800060007006a
:102110004f0778004f06be004f05be004f04be00bb
:102120002f04b10000000600f0874700889fbe0022
:102130008a9fbe008c9fbe008e1f7800000478002e
:10214000814478000205be00040678000b00e00020
:1021500002003c001b0020006a1d210060c6b30085
:1021600080cf54000e00320060c4b30080cf540012
:102170000b00320070c6b30080cf54000300320061
:1021800070c4b30080cf540085003a00e40f4600cd
:102190008300350008109000800f560080003d003d
:1021a0000c06e80060c6b30080cf54001000320077
:1021b00060c4b30080cf54000d003200381090008e
:1021c0000038a30004003a0008109000808f5500ea
:1021d00001003d000b149800081090000c00500006
:1021e0000014980002003b000000eb00001498006f
:1021f000c8089000780090000c00e00028003c0027
:102200000100400002c3b300024878008100e800ea
:10221000410c9800081090000000e00003003c0012
:10222000381090000038a3000600320078009000bb
:1022300001004000e2c2b300024878008100e800db
:10224000410c9800081090008c00ea00810f5000ab
:1022500001003d000006ea008c00ea00510c9800e5
:10226000000646000c1498008b0f56000100340045
:102270000b0678006c0c9800f8009000480890005d
:10228000008040000c0178008a00780056fc0700ae
:10229000081090000c0650007c0c98009400370049
:1022a0008c8f550019003d00010040000b017800a3
:1022b0008a0078004cfc0700480890000080450028
:1022c000400c98008b0556005b0c9800881090001d
:1022d0000100e00003003c00b81090000138a300aa
:1022e00007003200f800900000804000e1c2b30017
:1022f00001487800680890000000e800600c980031
:1023000008109000700c9800790037000100400020
:102310000c0178008a00780033fc07004808900020
:1023200000004600400c98008c85550088109000f5
:102330000100e00003003c00b81090000138a30049
:1023400006003200f800900080804000e2c2b30036
:10235000824878000000e800400c980008109000c7
:10236000808f55000100340080057800f80090004f
:1023700048089000008040008c0045000b01780068
:1023800019fc0700480890000b004000400c980022
:10239000081090008b0550005b0c9800540037002b
:1023a00048089000f8009000808040009a4878002b
:1023b0000000e800400c9800881090000100e00048
:1023c00003003c00b81090000138a3000600320062
:1023d000f800900080804000e2c2b300824878009c
:1023e0000000e800400c9800081090000000e00099
:1023f000100034008b05e900808f55000100340087
:1024000080057800f80090004808900000804000a7
:102410008a00e8000b017800f3fb070048089000f1
:102420000b004000400c9800081090008b055000f5
:102430005b0c9800f8009000480890000080400075
:10244000095878000007e8000c00e000040035009f
:10245000b1c2b300014878008e0478000400370050
:10246000d1c2b300014878008e0478000c06ea005f
:102470007d8557008006eb0009003700a200200090
:102480008c00780072805700310007007fb0970001
:102490008fb89700016d7800000678008d06e8007f
:1024a0000c00e000f5ff3c000d00e00009003a00e0
:1024b0008e04780000c3b300805c7800050037000c
:1024c0008d06e900fc8057000d80400001c3b30079
:1024d00090dc40000d00e000f9ff3c00f8009000a7
:1024e000480890000080400080845400690c9800e7
:1024f0003810900074006000f00f50000e003a0099
:10250000c80890002808900000804000d80890007b
:1025100001004000e808900001004000f808900029
:1025200001004000a8109000810f500002003d0003
:1025300000805000300c98004f0778004f06be0016
:102540004f05be004f04be000f01b10000000600a1
:102550008002780001037800110009000203d8000e
:1025600080017800830a78008299b90082005300c4
:102570009102980005007800000006000000e000cd
:102580002f003200c0017800e38f51002c0036008c
:102590000308a3002a003a00618e80000100e000d9
:1025a00002003200810f5000040031001100980039
:1025b000608e8800160037008200780011019000bc
:1025c0000200e00002003200800f5100faff3900e3
:1025d0001102780084824000850f500018003900f5
:1025e000808f520003003a00830842000100780007
:1025f000070037000200e0000300320083014000c2
:10260000830f51000e0039001200980090009800ce
:10261000900090000100e00009003200100140002d
:10262000828f500006003a00a21c21000009eb0036
:1026300010017800110841009100900011009800ed
:1026400000000600881f78008a9fbe008c9fbe0095
:10265000000478000205be000406be000401be00ae
:102660000a00be00ed020700008cbe000c01be0097
:10267000150407000005550081855d002a049800b7
:102680003b049800080078004f06be004f05be00ce
:102690004f04780000000600889fbe000004780008
:1026a000518e80000100e00002003200010078003d
:1026b0000d003700618e8000c01c2100040037002f
:1026c000910f5400250036000180e8009100900031
:1026d0000100e000faff3a0010003700920f5400aa
:1026e0001e0036000280e800100178000200e000c1
:1026f000faff3a0011017800618e8000c01c2100b1
:1027000004003700910f5400140036000180e800e7
:1027100091009000828f5000faff3a00c98e80002d
:10272000888f540001003100880478000900780087
:10273000420007000000e00004003a00888f5400c7
:10274000050032008904d100f5ff37000918780030
:102750008aff0700d2ff37000000eb004f04be00e5
:1027600000000600881f7800630440000800a100f4
:102770008000eb00800f540021003600e30f54006e
:1027800001003e004800200008007800c2ff07005a
:102790008000eb000000e00019003200900078009b
:1027a0009101780064815100880f510003003100cd
:1027b00011019000020878000700370008814000ee
:1027c0000208780091019000130198001001780030
:1027d0001109140088087800100178000000eb004f
:1027e0000200e00004003200920190000300e000cb
:1027f000010032000280e800508e88008180e800ed
:10280000010078004f047800000006000200370045
:102810000304e000060032000001780002007800a6
:10282000b041780081cf5100f9ff3a000100370034
:102830000001eb0002007800000006008000780034
:102840000000eb000100e00005003400010078000a
:1028500075f80700e10f400001003a000000eb00ae
:1028600000000600889fbe0000047800e684400057
:102870001900d0004500de00f27f2000820f5000da
:1028800010003a00000ceb00990478006f8164009e
:10289000200020001b003a00210190000200e0000f
:1028a00018003a00110190000200e00015003a0003
:1028b000100020001100e000120032002000200073
:1028c000100037000000e00004003a00010078002a
:1028d000560107000000e00008003c00f20028005c
:1028e0001901610001fe2300810c710021c02f003d
:1028f000010c40000080eb0002003700000ceb00f0
:102900000000eb004f04be00000006000400fa00c7
:10291000889fbe008a9fbe008c1f7800000478004c
:1029200001067800a81490002808900080845400c4
:102930003808900080845400480890008084540037
:1029400058089000808454006808900080845400e7
:1029500078089000808454000002220090bf9f00fd
:1029600000032300a0bf9f00381090000028a300a0
:1029700015003a000900e000130034000905780052
:102980008a057800e20f5500010036002b00200078
:10299000c80190000b017800ee805700680090009d
:1029a00003000100600498000000e000aa0032006b
:1029b000181090000b004000101498000b055500f3
:1029c0004240a900eeff3c00280990000200e00010
:1029d0000c003400c80190008c0078006800900062
:1029e00003000100600498008080eb000000e0001c
:1029f0009a00320098109000280890000080400053
:102a000010149800380d90000a00e0001100340006
:102a10008a057800e20f5500010036002b002000e7
:102a2000c80190000b017800ec805700680090000e
:102a300003000100600498000000e00086003200fe
:102a4000181090000b004000101498000b05550062
:102a5000edff370008699000c808900050c6b30029
:102a6000804f510008003a000100e00015003400da
:102a700058029000080990009809900068009000a2
:102a800004000100070037000100e0000d003400e1
:102a9000c801900001017800f800900068009000e3
:102aa00003000100600498008080eb000000e0005b
:102ab0006a003200981090004808900000804000a2
:102ac00010149800580d90000a00e0001100340026
:102ad0008a057800e20f5500010036002b00200027
:102ae000c80190000b017800ec805700680090004e
:102af00003000100600498000000e000560032006e
:102b0000181090000b004000101498000b055500a1
:102b1000edff3700086990006808900051c6b300c7
:102b2000814f51000d003a000000e0001c0034000d
:102b300078019000c8089000010141006111b800bf
:102b4000828fd2008381d2005802900080007800ea
:102b50006800900004000100090037000000e00058
:102b60000f00340078019000c808900081004100f7
:102b7000c801900000017800680090000300010087
:102b8000600498008080eb000000e0003300320019
:102b90009810900068089000008040001014980081
:102ba000780d90000a00e000110034008a057800da
:102bb000e20f5500010036002b002000c8019000f4
:102bc0000b017800ec8057006800900003000100c2
:102bd000600498000000e0001f0032001810900010
:102be0000b004000101498000b055500edff370056
:102bf000381090008000eb000028a300170032007e
:102c00000900e0001500340009057800e28f540047
:102c1000010036002a002000c80190000a01780057
:102c2000ee805700680090000300010060049800e7
:102c30000000e00008003200181090000a00400078
:102c4000101498008a8454004240a900eeff3c0012
:102c50008000eb00010037008080eb00010078006d
:102c60004f0678004f05be004f04be000080fa00fa
:102c7000000006000108780000000600e687470013
:102c8000889fbe008a9fbe008c9fbe008e1f78006a
:102c900082bf9f00040478008299b900f2b79f00b8
:102ca0000200e000590032000fb997000200e00076
:102cb000570032000006be007fb79700c8009000a2
:102cc00068009000808f50000400390008007800f0
:102cd000ccf907000000e0003b0035000040200078
:102ce000180060000a0032008e017800a200200067
:102cf0000c00be00c60007000005be000080750085
:102d0000070032008c0455008904e80005003700f4
:102d10008e0478000a0020000b002000010037001c
:102d20008e04780048019000680090000200500076
:102d3000890f500003003100800478000a00200051
:102d40000b0020006111b800828fd2008381d20075
:102d5000090278000c00be00840007000907570034
:102d60004800900009004000400498000a85750062
:102d700004003200080078004dfa07000000e0006f
:102d800011003a000e00e0000f0032006148b80068
:102d9000808fd2008180d2000000780000f0a10076
:102da0000c01d0008001d000030641004220a800a1
:102db00081864e004200a9004220ae004200a800d9
:102dc0000c86d300bdff3700008020001800600093
:102dd000020032000800780035fa070000c0200029
:102de0001800600002003200480090006004980063
:102df0007fb197000e0751000fb99700110009002d
:102e00000287d80080017800010037008001eb00c4
:102e1000030078004f0778004f06be004f05be0044
:102e20004f04be006f00b10000000600e600400045
:102e30001101780005002800850261006f01610022
:102e400082087800020032001200200011003700d2
:102e5000a0019000120020000300e0000d003a00e5
:102e6000900190000300e0000a003a001000e0002a
:102e700008003a00360037006403400096087800e6
:102e800080017800530b78009009780004087800de
:102e900070015100110278000400e000f6ff3200da
:102ea0001300370064024000140378004f33de0043
:102eb000838141008308730080017800d303780088
:102ec000cf3bde001403780006034300068a73003c
:102ed0001302780004024200100378004f33de0032
:102ee0008609720090017800038841000201e90020
:102ef00091017800ef8f5100eaff36001000370093
:102f000080017800530378004f33dd001002d100b8
:102f1000040873006402400094037800cf3bdd0096
:102f20001303d10086897300110378004f33dd004d
:102f30009401d100030a73009108d1000201e80056
:102f400091017800ff8f5100edff3e00ef88610096
:102f500091887200020078000000060000c0da00cc
:102f60000000060000c0da00000006003400f8008f
:102f70003200f8000203be00820270008502720077
:102f800002f0a6008301e800a301880000f0a6007b
:102f90008100e800910188001500b2000c003200a9
:102fa000104978000402e900150032006101410077
:102fb000020039003420ec000200280061004000cb
:102fc000f7ff39003220ec0000002800f4ff370042
:102fd000100978000482e900090032006201410012
:102fe000020039003420ec0002002800620040009a
:102ff000f7ff39003220ec0000002800f4ff370012
:103000003200f9003400f9000601be00000006009d
:103010000300e00009003200950180009101880062
:1030200000000000104278009501880000000000b8
:103030000402fb00820f5200130032008301e900fa
:103040009501800091018800000000001042780086
:1030500095018800000000000404e0000800320030
:10306000000278001000b00000026a004260af0069
:1030700000f0a0000482d2000180b000e4ff37001d
:103080000000200001002000000006008f1fd1007a
:10309000110207008f87e9000000e0000000060031
:1030a000809feb000c0207008f87e9000000e00022
:1030b000000006002800fa00889fbe008a9fbe001c
:1030c0008c9fbe0003866b008f0007006400e10048
:1030d000440032006408e1004a0032006100e1006f
:1030e000460032006108e10049003200ec0647006a
:1030f0006000b8003d02be003d03be00f4865700ec
:103100006011b8003d04be003d05be007d032000f7
:103110000b0037000000a0008d06e900130032000c
:103120000402420085824a0006034b0087834b005d
:10313000000040008180480002014900838149006d
:103140000802520089825a000a035b008b835b00ed
:10315000f0ff3b000802420089824a000a034b004c
:103160008b834b008d06e900edff3a0084827200ec
:1031700086827200f707b200878272000100320077
:10318000150020001e0490003e0b90000603540022
:10319000e63fb0000368a300070032000000a7006c
:1031a0000500a0008301d1000281d3008180d300fb
:1031b0000080d3000603e8008301d1000281d30020
:1031c0008180d3000080d3000002eb000482d20093
:1031d0002100070003f0a1000cf0a70003f0a000fd
:1031e0005d003700640247006408e10057003200c8
:1031f0003400be003401be00f6ff37006108e10074
:10320000520032006011b8006000b800f1ff3700d2
:1032100003ff270002002000fbff3700839f6800a8
:103220000100e00002003d0060001000e080180096
:103230000300e00002003d0060011100e081190080
:10324000110107004f00e00002003b006000100089
:10325000e080180000000600180020005700200041
:10326000080453000d003d000600200097fc2f00cd
:103270000740e1001e003400848272006102600099
:103280008301d1000281d3008180d3000080d3006c
:103290000804e800f8ff3a004700200061046000dd
:1032a00005047400040464000d0032006100400055
:1032b000e080480060014900e081490003b8a500b2
:1032c000070032000603e8006538e10004003a0018
:1032d0008301d1000281d3008180d3000080d3001c
:1032e000f87f20000830e100030035000803780073
:1032f0006000b8006011b8004433dd00f300b20094
:103300008301730000000600680447000294be00b9
:103310000094be00fc0447008694be008494be0066
:1033200009007800b601070008007800b401070022
:1033300099007800814f70000b003b000800be0030
:103340008e0107004f00b10003003700f3ff270094
:10335000f2ff2f006110b9004f06be004f05be00fe
:103360004f04be000080fa000000060081037800d0
:10337000eef607000001be006000b8000478a3006c
:1033800013003a006220e10015003e000d003900f4
:103390008301d1000281d3008180d3008301d10059
:1033a0000281d3008180d3008301d1000281d30048
:1033b0008180d3000538b000c42add00f300b200dc
:1033c0008381720007f0a70003f0a0000000060050
:1033d000f3ff2700f2ff2f006110b900fbff370059
:1033e00003ff2700f7ff37001400fa00889fbe0094
:1033f0008a9fbe008c9fbe000004be000205be0076
:10340000680047000a90be000890be007c010700db
:103410000070a7000bf0a100304320009e02900036
:1034200080825200b0fe2f000028e10011003d0014
:10343000b0fc2f000028e100150034001e099000a8
:103440008e0890007e0090000501b0000201d100be
:103450008180d3000080d3008502e800fbff3a00a2
:103460000b00e000bcff3b0060001000e080180093
:10347000b9ff3700f0ff2f00f1ff27000b00e0003d
:10348000b5ff3b000100280000002000b2ff37001c
:103490006000b800b0ff37004f89de00820178007d
:1034a0007e013700000000002800fa00889fbe005f
:1034b0008a9fbe008c9fbe0003866b0092ff0700b0
:1034c0000028a30064003a000128a30068003a0025
:1034d0000008a30062003a000108a30066003a0059
:1034e0001e009000be08900081064000ed3fb10034
:1034f000f4805700ee019000111ab8008e09900078
:10350000311bb8009e099000311cb800511db80055
:10351000f485570046000700fe0190003a000700be
:103520008b85e8003e0007008e09900040000700f0
:10353000ee019000340007008b85e800380007009a
:103540008e099000400007009e0990001b18b800eb
:10355000890440000a854800fe01900034000700fd
:103560008b85e80038000700ee019000300007006e
:103570008e0990001b18b800890440000a85480095
:103580000a98a30008003a000402420085824a001b
:1035900006034b0087834b0008044c0089844c00d1
:1035a0000a054d008d06e9008482720085027300d1
:1035b0004c3add0085027200010032001500200047
:1035c000443ade001400b2004538de00cb45dd0091
:1035d0000b007000c540de00cb4ddd008b8070001d
:1035e0004549de00cb55dd000b017100c551de0001
:1035f0000d03780018ff070003f0a1000cf0a700ee
:1036000003f0a00054ff37001b18b80085024000eb
:1036100006834800e0834b0060044c00070037003d
:103620001b18b8000603400087834800faff3700e4
:103630001b18b8008703400008844800e0844c0051
:1036400060054d00000006001b18b800080440008b
:1036500089844800faff37000108a3003bff3a00c5
:103660005800be00000000005801be00e2ff370015
:103670000008a30035ff3a0009047800f8ff37007e
:1036800007f0a200160037006022b80006022000f2
:103690000000d0008180d2000482d2008582d20056
:1036a0000000a0000202520083825a000300310091
:1036b0000202420083824a000000a1000603e900e2
:1036c000f3ff3a0000000600020ab900001bb9002f
:1036d0000200b800810042008100430000000600a3
:1036e0002800fa00889fbe008a9fbe008c9fbe0003
:1036f00007067800878669000c003b000304780009
:103700008704780008f0a10009f0a100840f5000a0
:10371000858f5800860f5900890f5c000300330025
:103720000cf0a20001003a000cf0a100f6fe070028
:103730006400e1005f003200780147006408e100a6
:10374000610032006c014700748557003200be00f2
:103750001201be003a04be001a05be001e0390000e
:10376000be0a90008503530006003d000004fd00e2
:103770008104fd000205fd008305fd008703ea00ca
:10378000050378000df8a300040032006004140063
:10379000e0841c0060051d00e0851d006022b8006b
:1037a0007d0320000d38e1008006eb000b0039009e
:1037b0004433dd00f300b2008301730039003700a9
:1037c000848272000d027800e10664008b85d100ce
:1037d0000a85d3008984d3000884d3008703e900d5
:1037e000f7ff3b0008004000898048000a014900bb
:1037f0008b81490004003b0060001000e08018004d
:1038000060011900e08119000358a300090032008b
:103810008d82720084827200610260008301d10097
:103820000281d3008180d3000080d3000603e8002a
:103830001b0037000348a30017003a000600e00011
:10384000170034000603e9000d00a3000000480043
:103850008180480002014900838149000348a30098
:103860000f003a000600e000090034000603e900fa
:103870000000400081804800020149008381490026
:1038800001003a000003eb000348a300f5ff3200fb
:103890006022b800020037008482720061826600f4
:1038a0006dfe070003f0a1000cf0a70003f0a000dc
:1038b000a9fe3700640147006408e10002003a00f5
:1038c0000df8a300a1fe3a0032007800b2007800a3
:1038d0001201be00a0fe3700889fbe008a9fbe0076
:1038e0008c9fbe000404be000605be00809fbe0083
:1038f000829fbe0030000700040678000800be006a
:103900000a01be002c000700840678004f03be00a9
:103910004f02be008d4f76007fb09700130033003a
:10392000f0ff2f008b8f6b0006003b000d0666003a
:103930000c00a7000a00370007f0a60010002000c6
:103940000a003700880f5200898f5a008a0f5b00e7
:103950008b8f5b00030039001000200001003e0047
:103960000000200007f0a7000000ea004f06be009c
:103970004f05be004f04be0000000600e482400078
:103980001078a30007003200640240001178a30001
:103990003400be001401be00050032000330a70051
:1039a0000000060035007800b50078001501be0063
:1039b0000330a0000000060005ff2700058261001b
:1039c000070032000428e100010032002400050055
:1039d0000600070001003a00440005000408050045
:1039e00002000700f9ff3a00140005006f82610031
:1039f00081027000850271008502720000000600dd
:103a00005002be00e40050005003be004439de0006
:103a1000f700b200f37f20000301610009003200cb
:103a20000218e10016003a0085017200830173005c
:103a3000838173000008200015003a004000200038
:103a400013003700850172008301730083817300c6
:103a500005003a0004a8be0006a8be001000200021
:103a60000b0037000201e9000402420085824a008f
:103a700006034b0087834b000748a300f9ff320081
:103a80000740a00004a8be0006a8be002000200039
:103a9000800098009200980000000600881f7800bf
:103aa000030478000300e00007003d006000100000
:103ab000e080180060011900e081190002003b005d
:103ac00001f02d00030037000400070008f0a700f4
:103ad00003f0a0004f04780000000600889fbe009d
:103ae0000082700004027100048271002400320020
:103af00036432000c50020008383cf000a00390030
:103b00000541b1008283cf00070039000541b100b3
:103b10008183cf00040039000541b1008083cf00cc
:103b2000010039000541b10085c353006022b8008f
:103b3000120032000a003b008482720061026000c1
:103b40008301d1000281d3008180d3000080d300a3
:103b50000603e8008743e800f7ff3a000700370054
:103b60000000400081804800020149008381490033
:103b70000603e9008743e900f9ff3a00b6fd0700b4
:083b80004f04be000000060026
:020000040000fa
:103b88004d6f0000746f0000722000007370000019
:103b9800656500006420000069730000203a000099
:103ba80020250000662000000d0a0000000000002b
:020000040000fa
:103bb8000200fa00000f78001e007800e10f5000a4
:103bc80009003200e10f500005003900e20f5000f3
:103bd80007003200e30f50000700320008003700ea
:103be80001eba8000600370011eba800040037001d
:103bf80021eba8000200370031eba800000000000c
:103c08000080fa00000006000400fa00000f7800a7
:103c1800110798001e007800e10f50000b003200d9
:103c2800e10f500005003900e20f50000b00320090
:103c3800e30f50000d003200100037009e00900086
:103c480021588800062bef000c0037009e009000da
:103c5800a1588800162bef00080037009e0090003e
:103c680021598800262bef00040037009e009000a1
:103c7800a1598800362bef00000000000080fa00f0
:103c8800000006000400fa00000f780011079800f1
:103c98001e007800e10f50000a003200e10f5000ca
:103ca80005003900e20f500009003200e30f500010
:103cb8000a0032000c0037009e009000615888000e
:103cc800090037009e009000e15888000600370080
:103cd8009e00900061598800030037009e00900004
:103ce800e1598800000000000080fa00000006008a
:103cf8000c00fa00004f9800510798000000eb00f4
:103d0800100798000000eb00000f78006000b80072
:103d180020079800310798000e4890000080fb00ab
:103d2800c400dd0000202100008040001000780061
:103d380061006000100798001e0090000000e0007d
:103d480018003a000e4890000080fb00c400dd0017
:103d5800002021000080400090007800c0ff210072
:103d6800008060004200de008000eb005e019000f1
:103d78000089be005e009000a00090000100a10034
:103d8800210098000e4890000080fb00c400dd0070
:103d9800002021000080400010007800620f6000c1
:103da8006c0037000e4890000080fb00c400dd0066
:103db8000020210000804000100078006101b80058
:103dc800c0ff2100010020000202780003017800f2
:103dd80080017800010078000302620000006100a1
:103de8008000eb00c000dd00000020000001be00e4
:103df8006120b800000171008181710022079800dc
:103e0800330798002e009000be009000c000dd002f
:103e1800000020005e0190000089be005e00900056
:103e280010027800900290000e4890000080fb007d
:103e38004400dd008080e800002021000080400070
:103e4800100078006101b800f0ff20000100200098
:103e580002037800030178008001780001007800ef
:103e680003036300000061008000eb00c000dd0078
:103e7800000020000001be006130b80000017100a0
:103e8800818171004618dd00ca10de0081007000d3
:103e98004610dd0004004000858048005e01900067
:103ea8000089be005e009000100278009002900029
:103eb8000e4890000080fb004400dd00e400400054
:103ec8000020210000804000100078004a00de0039
:103ed8006101b800f0ff2f00010020000203780004
:103ee8000301780080017800010078000303630073
:103ef800000061008000eb00c000dd000000200031
:103f08000001be006130b8000001710081817100bc
:103f180004004100858049005e0190000089be00d0
:103f28005e009000a00090000100a0002100980011
:103f38000e4890000080fb004400dd00e4004000d3
:103f48000020210000804000900078000020200020
:103f5800008f60001e0078000000e00005003200bd
:103f68005e009000a00090000110a00021009800c1
:103f78007b0037005e009000a00090000110a100b7
:103f8800210098005e009000300090008e4890005c
:103f98008180fb00c408dd0066814000012021000b
:103fa8008100410091007800814078000148780044
:103fb8005e009000300090000000e8008e489000fd
:103fc8008180fb00c408dd006681400001202100db
:103fd8008100410091007800c808de008140780027
:103fe800014878005e009000300090000080e800f2
:103ff8008e4890008180fb00c408dd006881400085
:104008000120210081004100910078008140780062
:10401800014878005e009000300090006300400086
:104028008e4890008180fb00c408dd006881400054
:10403800012021008100410091007800c808de00bd
:1040480081407800014878005e00900030009000c0
:10405800640040008e4890008180fb00c408dd00a9
:104068006a81400001202100810041009100780010
:1040780081407800014878005e0090003000900090
:10408800650040008e4890008180fb00c408dd0078
:104098006a814000012021008100410091007800e0
:1040a800c808de0081407800014878005e00900072
:1040b80030009000660040008e4890008180fb0030
:1040c800c408dd006c81400001202100810041000e
:1040d8009100780081407800014878005e009000e7
:1040e80030009000670040008e4890008180fb00ff
:1040f800c408dd006c8140000120210081004100de
:1041080091007800c808de008140780001487800f6
:104118000e4890000080fb004400dd00e4004000f1
:104128000020210000804000100078000040780046
:104138006f4060006f4060006f406000de009000dc
:104148000080fb006f0060004200dd00a1019000cc
:1041580032fc2f000281610002007000a00098006c
:104168000080fa00000006000400fa00000f780042
:10417800110798001e009000200090006100600068
:104188000000e00015003a001e009000900090002a
:104198001000780080007800f07f20000080600028
:1041a800c200dd001e007800010878001e80e800cb
:1041b8008000eb00010878009e00780064804000d1
:1041c8009e009000a1009000c208de00efc06000d1
:1041d8008180fb0001087800250037001e00900050
:1041e80090009000100078004008de008000780001
:1041f800c0ff210000806000800078000100a0005e
:104208001e007800010878001e81e8001e0090005a
:104218009000900010007800ca09dd004600de001a
:1042280000807100c608de0080007800f0ff2000e2
:1042380000806000000978009e00780064814000da
:104248001e009000200090004200de006f406000d9
:104258008081fb001e009000900090001000780004
:10426800000078004a00dd00008041000009780065
:104278001e009000300090000000e0003b0032007b
:104288009e017800668041009e009000b100900079
:104298008100e800914078008180fb004809dd003a
:1042a8009e009000b1009000914078008180fb0052
:1042b80081004100010878009e0078006880400075
:1042c8009e009000b1009000e3804000914078008b
:1042d8008180fb004809dd009e009000b10090003d
:1042e8008180e800914078008180fb0081004100d6
:1042f800010878009e0178006a8041009e009000c5
:10430800b1009000e5804000914078008180fb007a
:104318004809dd009e009000b1009000e480400054
:10432800914078008180fb008100410001087800fd
:104338009e0078006c8040009e009000b1009000c4
:10434800e7804000914078008180fb004809dd004b
:104358009e009000b1009000e680400091407800f7
:104368008180fb0081004100010878000080fa008c
:10437800000006000000fa002468a9000c24ef00e1
:1043880001208000f08f2f000080600000a0a000b6
:10439800002088000000000001208000000e20009e
:1043a8008080600000082000808f5000faff3a00eb
:1043b8005000200080208800801a2000902088006b
:1043c80040002c003020880020002000a020880019
:1043d8000024ef000004a800c120800030ff2f0057
:1043e80000806000c020880080218000ff006000fd
:1043f80000a020000100700080218800a02180001a
:104408007f006000a0218800c02180007f0060003c
:10441800c021880081218000c0ff2f00008060003b
:1044280080218800a1218000c0ff2f00008060004b
:10443800a0218800c1218000c0ff2f0000806000fb
:10444800c02188003224ef003624ef003a24ef0020
:104458003064a9003464a9003864a90020228000cf
:10446800ff00600000462200010070002022880042
:1044780021228000c0ff2f000080600020228800d9
:104488004624ef004464a90001218000000f2000a9
:1044980001007000002188000004a90030e4a80091
:1044a80031e4a80032e4a80033e4a80034e4a90009
:1044b80035e4a90036e4a90037e4a9008121800089
:1044c800c0ff2f00008060008021880081218000cb
:1044d800f0cf2f00008060008021880091218000ab
:1044e800c0ff2f000080600090218800912180008b
:1044f800f0cf2f000080600090218800a12180006b
:10450800c0ff2f0000806000a0218800a12180004a
:10451800f0cf2f0000806000a0218800b12180002a
:10452800c0ff2f0000806000b0218800b12180000a
:10453800f0cf2f0000806000b02188002024ef0019
:104548002224ef002824ef002a24ef000a24a900df
:1045580001208000f08f2f0000806000002088007c
:104568000000000001208000000e20000080600094
:104578000000e000fbff3a00c05a22007701070064
:104588002468a8000080fa00000006000000fa0075
:10459800204420008000780010002000b9fd0700aa
:1045a80000202100800078001000200096fd070000
:1045b800100020007efd07000080fa0000000600c1
:1045c8000000fa0000442000800078000000eb00a2
:1045d800acfd070000202100800078000000eb00ff
:1045e80089fd07000000eb0071fd07000080fa005c
:1045f800000006000400fa00100798000000eb0015
:10460800000f780021000700e40f50000600320078
:104618001e009000e10f5000030032001e009000c1
:10462800e40f500014003a001e009000004078008b
:10463800674060000080fb00670060004800dd0004
:1046480002208000f18f2f008100610001007000be
:104658000020880000000000002080004500de00e7
:10466800674060008080fb001e009000808f500033
:10467800f9ff3a000200370010002000000f780010
:104688001e0078000080fa00000006000000fa0012
:10469800002080004500de00674060000080fb00cd
:1046a8000080fa00000006000c00fa00400798009d
:1046b800510798000000eb00000f7800004320002d
:1046c800100798000040eb00604798005e009000db
:1046d800200090004200de006f4060000080fb0078
:1046e800e80f5000010034001e00a0000000eb009d
:1046f80020079800280037001e009000904078009e
:1047080000c8b30000c060000004e0001c003200d4
:104718001e00900010407800684060000004e0002f
:1047280017003a00012021002e0090004400dd000f
:1047380000804000de0090008bfe07004e009000d5
:1047480000407800e34060001e009000e3c0600075
:1047580090417800c2cfb30002c16100814071006e
:10476800014878001e009000904078000134a000b5
:104778000148780010c0b30060479800090037006e
:104788001e0090000000e800100798002e0090001e
:104798000000e800200798002e009000e30f50006a
:1047a800d5ff36006e4090000004a2000004e0002f
:1047b800020032009e007800638f70001e007800af
:1047c8000080fa00000006000a00fa00400798007e
:1047d8000040eb00204798005020800064006000f3
:1047e8000000e000030032000a44a9002e409000b7
:1047f800390037004e009000300090000000e000c3
:1048080002003a002e40900033003700402080001c
:1048180000407800f043b2000080fb0030079800a9
:104828003e009000ef0f500005003e00012180007f
:1048380021079800be009000010f7800040037009f
:1048480011218000210798003e009000700f500051
:104858001e007800ae0090000008de0061006000d5
:10486800004078000004e0001a0032003e0090008a
:1048780000407800ce0090001dfd07003e0090002b
:10488800ef0f500009003e001e00780011002000c4
:104898000008dd000080ea00800078000021800028
:1048a8000080600000218800080037001e007800a2
:1048b800110020000008dd000080ea008000780078
:1048c80010218000008060001021880010c0b30013
:1048d800204798002e4090000080fa000000060053
:1048e8000000fa00502080004d00de0061406000aa
:1048f8000080fb0000f0a7000000ea000000ea00ca
:104908004f00de00004078000080fa00000006003a
:104918000000fa00502080004b00de00614060007b
:104928000080fb0000f0a7000000ea000000ea0099
:104938004f00de00004078000080fa00000006000a
:104948000000fa00502080004900de00614060004d
:104958000080fb0000f0a7000000ea000000ea0069
:104968004f00de00004078000080fa0000000600da
:104978000200fa000040eb00004f78000ec4bf00b0
:104988000004e000050032000ec4bf000004e0008f
:104998000200350010c0b300004f78001e407800b8
:1049a8000080fa00000006000000fa005020800095
:1049b8004c00de00614060000080fb0000f0a700b2
:1049c8000000ea000000ea004f00de000040780026
:1049d8000080fa00000006000000fa005020800065
:1049e8004a00de00614060000080fb0000f0a70084
:1049f8000000ea000000ea004f00de0000407800f6
:104a08000080fa00000006000200fa000040eb00f7
:104a1800004f78000fc4bf000004e000050032001a
:104a28000fc4bf000004e0000200350010c0b3004e
:104a3800004f78001e4078000080fa000000060051
:104a48000600fa000000eb00000f7800012180004a
:104a5800210798002e0090000000e00011003200ad
:104a68000000eb00100798000b0037001e009000b4
:104a7800ae0090000008de00610060000040780091
:104a88000004e000010032001e0fe8001e00900044
:104a98000000e800100798001e009000ef0f50007b
:104aa800f2ff360011218000210798002e009000a7
:104ab8000000e000110032000000eb001007980031
:104ac8000b0037001e009000ae0090000008de00ca
:104ad80061006000004078000004e000010032003e
:104ae8001e0fe8001e0090000000e8001007980064
:104af8001e009000ef0f5000f2ff36001e007800f5
:104b0800004078000080fa00000006000000fa006b
:104b18000ac4a9000cc4a80001208000f08f2f004f
:104b2800008060000080a0000020880000000000d5
:104b380001208000000e200080806000000220001c
:104b4800808f5000faff3a000080fa00000006004b
:104b58000000fa000080fa00000006000200fa00d7
:104b6800000f78001e007800d08088000080fa00ce
:104b7800000006001400fa00000f9800110f9800ba
:104b880003000900001feb008e00b1007e079800ab
:104b98001e089000900090001000780040079800d0
:104ba800510798001e089000404090006140600046
:104bb8000080fb0061006000ee0090000100a10091
:104bc80001007000600798001e0890005040900097
:104bd800614060000080fb00610060000000400050
:104be800ee0090000110a10001007000600798001d
:104bf8001e089000604090006f4060000080fb003d
:104c08006f0060004200dd006e01900031fc2f0053
:104c18008100610001007000600798007e0090002c
:104c28009e089000f1409000014878007e009000b6
:104c38000000e8009e089000814890000148780034
:104c48007e0090000080e8009e0890009148900047
:104c5800014878007e009000630040009e089000a4
:104c6800a1489000014878007e0090006400400050
:104c78009e089000b1489000014878007e0090009e
:104c8800650040009e089000c148900001487800e7
:104c98007e009000660040009e089000d148900079
:104ca800014878007e009000670040009e08900050
:104cb800e1489000014878006800470080007800cb
:104cc8000e08900078fe070000f0a7000000ea0038
:104cd8000000ea004f00de00004078000080fa0083
:104ce800000006001400fa00100f98000040eb00c6
:104cf800004f7800e1004700070009008058eb00ea
:104d08000e00e800000f98006a004700aefe07009a
:104d18000004e000430032005e009000ee009000c6
:104d28001e0990000089be007e009000614060006e
:104d3800804078001e089000414098007e00900056
:104d4800620060000000e000040032001e089000cd
:104d580021c0b30051409800030037001e0890009e
:104d680011c0b300514098000e08900090407800a0
:104d78001e089000714098000e0890000000e8009e
:104d8800904078001e089000014898000e08900096
:104d98000080e800904078001e08900011489800b4
:104da8000e08900063004000904078001e089000b4
:104db800214898000e089000640040009040780058
:104dc8001e089000314898000e08900065004000c9
:104dd800904078001e089000414898000e08900006
:104de80066004000904078001e08900051489800e6
:104df8000e08900067004000904078001e08900060
:104e0800614898007e0090004200de006f4060001c
:104e1800804078001e0890006140980010c0b300e0
:104e2800004f78001e4078000080fa00000006005d
:104e38000000fa00502080004d00de006140600054
:104e48000080fb0000f0a7000000ea000000ea0074
:104e58004f00de00004078000080fa0000000600e5
:104e68000000fa00502080004b00de006140600026
:104e78000080fb0000f0a7000000ea000000ea0044
:104e88004f00de00004078000080fa0000000600b5
:104e98000000fa00502080004c00de0061406000f5
:104ea8000080fb0000f0a7000000ea000000ea0014
:104eb8004f00de00004078000080fa000000060085
:104ec8000600fa000000eb00000f780001218000c6
:104ed800210798002e0090000000e0001100320029
:104ee8000000eb00100798000b0037001e00900030
:104ef800ae0090000008de0061006000004078000d
:104f08000004e000010032001e0fe8001e009000bf
:104f18000000e800100798001e009000ef0f5000f6
:104f2800f2ff360011218000210798002e00900022
:104f38000000e000110032000000eb0010079800ac
:104f48000b0037001e009000ae0090000008de0045
:104f580061006000004078000004e00001003200b9
:104f68001e0fe8001e0090000000e80010079800df
:104f78001e009000ef0f5000f2ff36001e00780070
:104f8800004078000080fa00000006000000fa00e7
:104f98000ac4a9000cc4a80001208000f08f2f00cb
:104fa800008060000080a000002088000000000051
:104fb80001208000000e2000808060000002200098
:104fc800808f5000faff3a000080fa0000000600c7
:104fd8000000fa0021e3a8000080fa0000000600a3
:104fe8000400fa00100798001e009000e10f50001e
:104ff80008003200e10f500003003900e20f5000b2
:10500800070032000900370001188000010f7800fe
:105018000600370011188000010f780003003700e0
:1050280021188000010f7800000000001e007800a1
:105038000080fa00000006000000fa00cc07070014
:105048001c0407009403070000e22400204888009d
:1050580000e2240070488800907080004c00de0058
:105068006140600080407800907080004e00de0053
:10507800614060000081fb00907080004f00de00fe
:10508800004078000080fb00000040000000410064
:105098000000400000017800907080004d00de00a4
:1050a800614060000080fb00000041000040780083
:1050b8000040400000c0400000c0ea00ef4060002f
:1050c800c00a210001487800ad0407003cfd070034
:1050d8002efd0700beff0700048ea80040802300b5
:1050e800210607002806070000812300c2050700e3
:1050f800c9050700c0812300770607007e06070060
:10510800046ea9000000eb00b08688000000eb00e8
:1051180080868800200e21008040eb00014878003e
:10512800100120000086880040012000808588004a
:1051380090012000208688006000b8004086880022
:10514800518688006000b8006086880071868800f3
:105158000000eb00408788000000eb001086880004
:105168006000b80090858800a18588000000eb00e9
:1051780030868800600e210011c0b3000148780015
:105188006000b800b0858800c18588000000eb0089
:10519800f0858800e221ef00e021ef00de21ef003a
:1051a8000080eb00e00e880000102700100e880039
:1051b80000802900000e8800010e8000f0f82f0002
:1051c800808060000006200001007000000e88004a
:1051d800c621ef00100ea900102ea900000d210015
:1051e80090878800a00b2100808888006000b800a4
:1051f80040888800518888000000200001fc2300b6
:10520800a0878800b187880000002000011f2400c3
:10521800e0878800f187880000002000011424003e
:1052280060888800718888000080fa000000060005
:105238001000fa00889fbe0003000900001feb0061
:105248008e00b1007e07980050858000e30f500063
:105258007c003200e30f500005003e00e10f5000d3
:1052680062003200e10f50000b003e0007003700db
:10527800e70f50009b003200e80f50009300320007
:10528800e60f50007e003200970037002000200013
:105298005085880094003700500e21001040780097
:1052a800e14f50004e003a00300e80000086880022
:1052b800600e800080858800900e8000308688000f
:1052c8000186800010868000808f50000400340022
:1052d800600e210011c0b3000148780007003700b4
:1052e8000186800010868000808f500003003d00fa
:1052f800600e210080c0eb0001487800600e21009c
:10530800104078000000fb00cf80de00daee0700d6
:105318000001be00f9ed0700020020000308240088
:105328002def0700f2fa230093c023002aef0700ad
:105338000004be00308680008000eb00d1ee07003c
:10534800d25b2000f370230023ef07000001be00aa
:105358000800be0046ee070090858800a1858800f9
:10536800b4858000c585800090858000a185800077
:105378000001be000400be00e0ed0700b085880013
:10538800c1858800f08580000000e800f08588006d
:10539800f0858000f40f50000c003a00b0858000c2
:1053a800c185800002002000031a240030ee0700a7
:1053b800d0858800e18588006000b800b085880045
:1053c800c18588000000eb00f0858800500e2100a0
:1053d8008040eb0001487800008680001086880035
:1053e80010002000508588003f003700200e210063
:1053f80010407800614060000080fb0061006000a0
:105408004300dd00217080000130a1000100700020
:1054180020708800907080004600de0061406000c7
:105428000080fb0061006000a17080000100a10005
:1054380001007000a07088003000200050858800ae
:1054480029003700400e210010407800e14f50003d
:1054580008003a00a00e21005f0107007087800055
:1054680081878000c9050700400e21008040eb00bd
:105478000148780060002000508588001a00370035
:105488004187800000712200808f5000090036009b
:10549800d0858000e1858000809fbe0040dc290027
:1054a800801f780068ef0700e68757000000eb00d0
:1054b80040878800408780000000e8004087880017
:1054c8008000200050858800070037000000eb00ae
:1054d800c3fe0700708588002000200050858800e2
:1054e80001003700000000004f04be000080fa00f1
:0454f80000000600aa
:020000040000fa
:1054fc00901100002000000080000000121000003d
:10550c000200000082000000ffff000014100000e9
:10551c0002000000800000001610000002000000d5
:10552c0080000000ce11000002000000800000008e
:10553c0018100000020000008000000000120000a3
:10554c0000020000800000001a10000002000000a1
:10555c0080000000d011000002000000800000005c
:10556c001c10000002000000800000001e10000053
:10557c000200000080000000aa100000680000007b
:10558c0080000000001000000c00000080000000f3
:10559c006a11000026000000800000000c100000c2
:1055ac000600000080000000d21100000200000084
:1055bc0080000000201000000200000080000000ad
:1055cc002210000088000000820000000100000092
:1055dc0000481000491048001048100048104800be
:1055ec001038100000000000000000000000000057
:1055fc00000000000000000000000000000000009f
:10560c000002080001017000107110007010700091
:10561c0010701000701060001000000000000000fe
:10562c00000000000000000000000000000000006e
:10563c00000000000000020008020200981099000f
:10564c001098100098109800109810008810000006
:10565c00000000000000000000000000000000003e
:10566c0000000000000000000000000022104a00b2
:10567c00107210000000000000000000000000008c
