:020000040000fa
:080000000002040000000000f2
:020000040000fa
:0400080012030000df
:020000040000fa
:04000c005403000099
:020000040000fa
:04001000b403000035
:020000040000fa
:0400140032030000b3
:020000040000fa
:04001800740300006d
:020000040000fa
:04001c009403000049
:020000040000fa
:04002000d403000005
:020000040000fa
:040024009e04000036
:020000040000fa
:040028009e04000032
:020000040000fa
:04002c009e0400002e
:020000040000fa
:040030009e0400002a
:020000040000fa
:040034009e04000026
:020000040000fa
:040038009e04000022
:020000040000fa
:04003c009e0400001e
:020000040000fa
:040040009e0400001a
:020000040000fa
:0400440000040000b4
:020000040000fa
:040048006804000048
:020000040000fa
:04004c009e0400000e
:020000040000fa
:040050009e0400000a
:020000040000fa
:040054009e04000006
:020000040000fa
:040058009e04000002
:020000040000fa
:04005c009e040000fe
:020000040000fa
:040060009e040000fa
:020000040000fa
:040064009e040000f6
:020000040000fa
:040068009e040000f2
:020000040000fa
:04006c009e040000ee
:020000040000fa
:040070009e040000ea
:020000040000fa
:040074009e040000e6
:020000040000fa
:040078009e040000e2
:020000040000fa
:04007c009e040000de
:020000040000fa
:040080009e040000da
:020000040000fa
:040084009e040000d6
:020000040000fa
:040088009e040000d2
:020000040000fa
:04008c009e040000ce
:020000040000fa
:040090009e040000ca
:020000040000fa
:040094009e040000c6
:020000040000fa
:040098009e040000c2
:020000040000fa
:04009c009e040000be
:020000040000fa
:0400a0009e040000ba
:020000040000fa
:0400a4009e040000b6
:020000040000fa
:0400a8009e040000b2
:020000040000fa
:0400ac009e040000ae
:020000040000fa
:0400b0009e040000aa
:020000040000fa
:0400b400360400000e
:020000040000fa
:0400b8009e040000a2
:020000040000fa
:0400bc009e0400009e
:020000040000fa
:0400c0009e0400009a
:020000040000fa
:0400c4009e04000096
:020000040000fa
:0400c8009e04000092
:020000040000fa
:0400cc009e0400008e
:020000040000fa
:0400d0009e0400008a
:020000040000fa
:0400d4009e04000086
:020000040000fa
:0400d8009e04000082
:020000040000fa
:0400dc009e0400007e
:020000040000fa
:0400e0009e0400007a
:020000040000fa
:0400e4009e04000076
:020000040000fa
:0400e8009e04000072
:020000040000fa
:0400ec009e0400006e
:020000040000fa
:0400f0009e0400006a
:020000040000fa
:0400f4009e04000066
:020000040000fa
:0400f8009e04000062
:020000040000fa
:0400fc009e0400005e
:020000040000fa
:040100009e04000059
:020000040000fa
:040104009e04000055
:020000040000fa
:040108009e04000051
:020000040000fa
:04010c009e0400004d
:020000040000fa
:040110009e04000049
:020000040000fa
:040114009e04000045
:020000040000fa
:040118009e04000041
:020000040000fa
:04011c009e0400003d
:020000040000fa
:040120009e04000039
:020000040000fa
:040124009e04000035
:020000040000fa
:040128009e04000031
:020000040000fa
:04012c009e0400002d
:020000040000fa
:040130009e04000029
:020000040000fa
:040134009e04000025
:020000040000fa
:040138009e04000021
:020000040000fa
:04013c009e0400001d
:020000040000fa
:040140009e04000019
:020000040000fa
:040144009e04000015
:020000040000fa
:040148009e04000011
:020000040000fa
:04014c009e0400000d
:020000040000fa
:040150009e04000009
:020000040000fa
:040154009e04000005
:020000040000fa
:040158009e04000001
:020000040000fa
:04015c009e040000fd
:020000040000fa
:040160009e040000f9
:020000040000fa
:040164009e040000f5
:020000040000fa
:040168009e040000f1
:020000040000fa
:04016c009e040000ed
:020000040000fa
:040170009e040000e9
:020000040000fa
:040174009e040000e5
:020000040000fa
:040178009e040000e1
:020000040000fa
:04017c009e040000dd
:020000040000fa
:040180009e040000d9
:020000040000fa
:040184009e040000d5
:020000040000fa
:040188009e040000d1
:020000040000fa
:04018c009e040000cd
:020000040000fa
:040190009e040000c9
:020000040000fa
:040194009e040000c5
:020000040000fa
:040198009e040000c1
:020000040000fa
:04019c009e040000bd
:020000040000fa
:0401a0009e040000b9
:020000040000fa
:0401a4009e040000b5
:020000040000fa
:0401a8009e040000b1
:020000040000fa
:0401ac009e040000ad
:020000040000fa
:0401b0009e040000a9
:020000040000fa
:0401b4009e040000a5
:020000040000fa
:0401b8009e040000a1
:020000040000fa
:0401bc009e0400009d
:020000040000fa
:0401c0009e04000099
:020000040000fa
:0401c4009e04000095
:020000040000fa
:0401c8009e04000091
:020000040000fa
:0401cc009e0400008d
:020000040000fa
:0401d0009e04000089
:020000040000fa
:0401d4009e04000085
:020000040000fa
:0401d8009e04000081
:020000040000fa
:0401dc009e0400007d
:020000040000fa
:0401e0009e04000079
:020000040000fa
:0401e4009e04000075
:020000040000fa
:0401e8009e04000071
:020000040000fa
:0401ec009e0400006d
:020000040000fa
:0401f0009e04000069
:020000040000fa
:0401f4009e04000065
:020000040000fa
:0401f8009e04000061
:020000040000fa
:0401fc009e0400005d
:020000040000fa
:040200009e04000058
:020000040000fa
:040204009e04000054
:020000040000fa
:040208009e04000050
:020000040000fa
:04020c009e0400004c
:020000040000fa
:040210009e04000048
:020000040000fa
:040214009e04000044
:020000040000fa
:040218009e04000040
:020000040000fa
:04021c009e0400003c
:020000040000fa
:040220009e04000038
:020000040000fa
:040224009e04000034
:020000040000fa
:040228009e04000030
:020000040000fa
:04022c009e0400002c
:020000040000fa
:040230009e04000028
:020000040000fa
:040234009e04000024
:020000040000fa
:040238009e04000020
:020000040000fa
:04023c009e0400001c
:020000040000fa
:040240009e04000018
:020000040000fa
:040244009e04000014
:020000040000fa
:040248009e04000010
:020000040000fa
:04024c009e0400000c
:020000040000fa
:040250009e04000008
:020000040000fa
:040254009e04000004
:020000040000fa
:040258009e04000000
:020000040000fa
:04025c009e040000fc
:020000040000fa
:040260009e040000f8
:020000040000fa
:040264009e040000f4
:020000040000fa
:040268009e040000f0
:020000040000fa
:04026c009e040000ec
:020000040000fa
:040270009e040000e8
:020000040000fa
:040274009e040000e4
:020000040000fa
:040278009e040000e0
:020000040000fa
:04027c009e040000dc
:020000040000fa
:040280009e040000d8
:020000040000fa
:100400000f4021000eff28000e01880000000000b0
:10041000000020000000e000020032000001200087
:1004200020028800140007005a0107000000e000c5
:1004300003003a00c0f02100010020000200370054
:100440000000200001002000810f70000100320038
:100450000f000700000020000000e0000200320052
:1004600000000200000000009c20020000000000cc
:100470000040da000000fe00200020000000e00044
:1004800002003200100020009001880000000600e9
:10049000a1028800800478000000eb001f003700f4
:1004a000e284440054a0b4009905ba00e2844400f8
:1004b00054a0b4009906ba00e284440054a0b400e9
:1004c0000006eb00476fde00fd07b200ae018800ba
:1004d000636ce10003003a000ad801000000eb0061
:1004e0000e003700606ce10008003a00004deb00a0
:1004f0000a05e800020039003420ec000af0a000f0
:100500008b05e900f9ff3e00040037006168e10057
:10051000010032000086eb000b00070019c7ba008b
:100520000e04e0001905ba0003003a000a00e000da
:10053000dbff3a0000000600fe07b200ae028800b2
:100540008a047800f5ff37000cd0a300e20f4d00bd
:100550001c00390089027800354dba000a05e80010
:10056000020039003420ec000af0a0008b05e900fd
:100570000f003200254dba000a05e80002003900dc
:100580003420ec000af0a0008b05e90008003200de
:100590000c00e0000600320015cdba000a05e800a4
:1005a000020039003420ec000af0a0008b05e900bd
:1005b0008984e80054a0b4000b00e000e2ff3a0098
:1005c000000006009902ba00055d78008b05e9007d
:1005d000f7ff3200c82ade00055d78008b05e900d0
:1005e000f3ff32000c00e000f1ff320019ddba0029
:1005f000eeff3700c01c04000000000028100400bb
:1006000000000000781d040000000000e41f04004a
:10061000000000008420040000000000902004007e
:10062000000000003600f800809fbe00829fbe00e0
:10063000849fbe00869fbe000000fa00c028a9006b
:100640000000eb00a40e07000080fa004f03be007c
:100650004f02be004f01be004f00be003600f90041
:10066000004006003600f800809fbe00829fbe005a
:10067000849fbe00869fbe000000fa009b0e07000c
:10068000c048a90010002000930e07000080fa0067
:100690004f03be004f02be004f01be004f00be0020
:1006a0003600f900004006003600f800809fbe00ca
:1006b000829fbe00849fbe00869fbe000000fa009d
:1006c000c068a90020002000830e07000080fa0007
:1006d0004f03be004f02be004f01be004f00be00e0
:1006e0003600f900004006003600f800809fbe008a
:1006f000829fbe00849fbe00869fbe000000fa005d
:10070000c088a90030002000730e07000080fa00a6
:100710004f03be004f02be004f01be004f00be009f
:100720003600f900004006003600f800809fbe0049
:10073000829fbe00849fbe00869fbe000000fa001c
:10074000c0a8a90040002000630e07000080fa0046
:100750004f03be004f02be004f01be004f00be005f
:100760003600f900004006003600f800809fbe0009
:10077000829fbe00849fbe00869fbe000000fa00dc
:10078000c608a90070002000530e07000080fa0080
:100790004f03be004f02be004f01be004f00be001f
:1007a0003600f900004006003600f800809fbe00c9
:1007b000829fbe00849fbe00869fbe000000fa009c
:1007c0002146800000022000008060000000e00060
:1007d00003003200c4a8a900900020003e0e0700cc
:1007e00020468000700060000000e000030032003e
:1007f000c488a900a0002000370e0700ffff3700c3
:100800003600f800809fbe00829fbe00849fbe001d
:10081000869fbe000000fa00e08080000000e0003b
:1008200002003200e080800000000100700c210016
:10083000104078008040e800700c210001487800ea
:10084000600c210011c0b3000148780000e8a90045
:100850000080fa004f03be004f02be004f01be00f1
:100860004f00be003600f900004006003600f800d8
:10087000809fbe00829fbe00849fbe00869fbe00f8
:100880000000fa0051208000000420000080600079
:100890000000e00006003200f08080000000e00070
:1008a00002003200f0808000000001000ac4a900ac
:1008b0000468a9000080fa004f03be004f02be008a
:1008c0004f01be004f00be003600f9000040060098
:1008d0003600f800809fbe00829fbe00849fbe004d
:1008e000869fbe000000fa00008180000000e0004a
:1008f000020032000081800000000100900c210005
:10090000104078008040e800900c210001487800f9
:10091000800c210011c0b300014878000108a90033
:100920000080fa004f03be004f02be004f01be0020
:100930004f00be003600f900004006000040da001b
:100940000000fe000800fa00100798002107980038
:1009500032079800be009000010f780007003700b2
:100960002e00900010407800ae0090008100e8005a
:1009700021079800930b07001e0fe9001e00780066
:100980000000e000f6ff3a003e0090000080fa0010
:10099000000006000000050003f0a200889fbe00d2
:1009a0008a9fbe008c1f78001b01070022013300c4
:1009b0006450e1004f0032006420e1005200320038
:1009c00003826c0007003b000905d0000306d0003d
:1009d000820f54000c065d00020039000200320054
:1009e00089017800030678008582550004003d00e7
:1009f0000003fd008103fd008502ea008b854200b3
:100a0000840f720002003b0060001000e0801800bc
:100a10006011b8000005eb007a28e1000a003900f7
:100a200006007800c75ddd00f707b200878075001b
:100a30002d003700828171000a0178006105600095
:100a40008180d1000080d3008502e900f9ff3b00de
:100a5000060440008784480002003b006004140044
:100a6000e0841c000988a300070032008a8171001d
:100a700082817100610164008904d1000884d3007f
:100a80008b05e800170037000978a30013003a002f
:100a90000b00e000130034008b05e900080444005b
:100aa00089844c000a4474000978a3000d003a00c0
:100ab0000b00e000070034008b05e9000804440047
:100ac00089844c0001003a000b0020000978a30043
:100ad000f7ff32000001eb00020037008281710055
:100ae0000a017800910007000cf0a70001f0a000b7
:100af000da0037006420e10002003a00838f6c00c6
:100b0000da0033000801be000200be00d300370047
:100b1000889fbe008a9fbe008c1f7800be00070021
:100b2000c500330003866c006450e1002e003200e3
:100b30006420e100330032006150e1002f003200f8
:100b40006120e1003100320085855500eb07b000df
:100b500009002000080420000500370008044400b4
:100b600089844c000a0031000603430087834b0050
:100b70000001530081815b00f8ff33000203be00d7
:100b80000800a0000804440089844c00f6ff3900e6
:100b9000c639dd008301730001003200130020001c
:100ba0008904d1000884d3000998a300050032000d
:100bb0000800a7000300a0008904d1000884d30026
:100bc0008b05e8008904d1000884d3000001eb0004
:100bd0000281d2005500070001f0a1000cf0a7002f
:100be00001f0a0009d0037006420e1009f0032006a
:100bf0000801be000200be00f7ff37006120e100df
:100c00009a0032006000b800f3ff370000002000b7
:100c100001f82700f0ff370014002000ca00370059
:100c2000f4ff2f00c80037000001be006500070078
:100c30000470a70003f0a1006509b100160032009e
:100c40000d0035006828e10006003500f0ff2f0098
:100c5000f1ff27000300e00013003b000100280023
:100c60000000050000004000818048008502e90086
:100c7000fcff3a0008003700f88f420002003c00f9
:100c80008000eb00000005008100d1000080d3004f
:100c90008502e800fcff3a000300e00002003b0090
:100ca00060001000e0801800000006000001be0097
:100cb000440007000470a70003f0a10003f8a3009c
:100cc00013003a006509b100100032000900350038
:100cd0006928e1000200350001002800000005003d
:100ce00000004000818048008502e900fcff3a00d6
:100cf00000000600f88f4200050035008100d10099
:100d00000080d3008502e800fcff3a0000000600e6
:100d10008000eb00000005004f89de0082017800b2
:100d2000a40037006011b800b20037008100200035
:100d3000618055000b003d000b00200061fe2f007c
:100d40000100e1001d003400828171006101640036
:100d50008904d1000884d3000000e800faff3a00bb
:100d60007100200061006400030070000200600058
:100d70000900320061044400e0844c000988a500a9
:100d8000050032008b05e8006808e10002003a0027
:100d90008904d1000884d300f20f20000258e1003a
:100da00005003d00c75ddd00f907b20089807500d0
:100db00008007800000006000bf827008b00780080
:100dc00000000500c70ade00f107b200f50fb2000f
:100dd00008003200e1cf4200020032000170a000a2
:100de00024000500810f7000010032000408050096
:100df00044000500810f700002003a001400050055
:100e00008502e9000000400081c04800fcff3b0073
:100e10000170a000240005000004be00e9ff0700e7
:100e20000003be000405be000200be00e5ff07008f
:100e3000844f7500000006000200be006450e1000f
:100e4000050036006420e100020036000968a300b6
:100e500001003a000800be000160a0004f067800c3
:100e60004f05be004f04be0000000600f0ff2f003b
:100e7000f1ff2700f9ff3700889fbe008a9fbe0060
:100e80008c1f7800e4ff0700ebff330003866c0043
:100e90006450e100240032006420e10027003200a9
:100ea0006150e100220032006120e10021003200a7
:100eb0008b854200eb07b1000134b800003ab8005e
:100ec0000804420089844a00013ab8000030b800a2
:100ed0008880400009014a000400330000004000ff
:100ee00081804800020149008b05e900c909dd0045
:100ef000830170000100320013002000c814de00de
:100f00004814dd004709de001200b200c808de0008
:100f10000884700085ff070001f0a1000cf0a70015
:100f200001f0a000cdff37006120e100cfff3200cb
:100f30000801be000200be00f7ff37006150e1006b
:100f4000fcff3a00c9ff3700889fbe008a9fbe00a1
:100f5000841f7800b0ff07004f00780011003300b5
:100f6000f0ff2f00838f6c0006003b000405650036
:100f70000a00a7000800370009f0a60010002000b2
:100f800008003700820f5400838f5c000300390093
:100f90001000200001003e000000200009f0a70022
:100fa0000000ea004f05be004f04be000000e00054
:100fb00000000600881f7800030478000300e000aa
:100fc00007003d0060001000e0801800600119007b
:100fd000e081190002003b0001f02d000300370002
:100fe0000400070008f0a70001f0a0004f047800fb
:100ff00000000600889fbe008a9fbe00008270002d
:101000000402710004827100260032000004be0058
:101010000200be006011b8006b092000950220009c
:101020000182cf000a0039000541b1000082cf00e3
:10103000070039000541b1000982cf0004003900e2
:101040000541b1000882cf00010039000541b1001f
:1010500005425200120032000a003b0082817100fa
:10106000610164008100d1000080d3008984d30035
:101070000884d3008b05e8000442e800f7ff3a003b
:10108000070037000804440089844c000000480031
:10109000818048008b05e9000442e900f9ff3a002d
:1010a00022ff07004f05be004f04be0000000600ef
:020000040000fa
:1010b0000200fa00000f78001e007800e10f5000d7
:1010c00009003200e10f500005003900e20f500026
:1010d00007003200e30f500007003200080037001d
:1010e00001eba8000600370011eba8000400370050
:1010f00021eba8000200370031eba800000000003f
:101100000080fa00000006000400fa00000f7800da
:10111000110798001e007800e10f50000b0032000c
:10112000e10f500005003900e20f50000b003200c3
:10113000e30f50000d003200100037009e009000b9
:1011400021588800062bef000c0037009e0090000d
:10115000a1588800162bef00080037009e00900071
:1011600021598800262bef00040037009e009000d4
:10117000a1598800362bef00000000000080fa0023
:10118000000006000400fa00000f78001107980024
:101190001e007800e10f50000a003200e10f5000fd
:1011a00005003900e20f500009003200e30f500043
:1011b0000a0032000c0037009e0090006158880041
:1011c000090037009e009000e158880006003700b3
:1011d0009e00900061598800030037009e00900037
:1011e000e1598800000000000080fa0000000600bd
:1011f0000c00fa00004f9800510798000000eb0027
:10120000100798000000eb00000f78006000b800a5
:1012100020079800310798000e4890000080fb00de
:10122000c400dd0000202100008040001000780094
:1012300061006000100798001e0090000000e000b0
:1012400018003a000e4890000080fb00c400dd004a
:10125000002021000080400090007800c0ff2100a5
:10126000008060004200de008000eb005e01900024
:101270000089be005e009000a00090000100a10067
:10128000210098000e4890000080fb00c400dd00a3
:10129000002021000080400010007800620f6000f4
:1012a0006c0037000e4890000080fb00c400dd0099
:1012b0000020210000804000100078006101b8008b
:1012c000c0ff210001002000020278000301780025
:1012d00080017800010078000302620000006100d4
:1012e0008000eb00c000dd00000020000001be0017
:1012f0006120b8000001710081817100220798000f
:10130000330798002e009000be009000c000dd0062
:10131000000020005e0190000089be005e00900089
:1013200010027800900290000e4890000080fb00b0
:101330004400dd008080e8000020210000804000a3
:10134000100078006101b800f0ff200001002000cb
:101350000203780003017800800178000100780022
:1013600003036300000061008000eb00c000dd00ab
:10137000000020000001be006130b80000017100d3
:10138000818171004618dd00ca10de008100700006
:101390004610dd0004004000858048005e0190009a
:1013a0000089be005e00900010027800900290005c
:1013b0000e4890000080fb004400dd00e400400087
:1013c0000020210000804000100078004a00de006c
:1013d0006101b800f0ff2f00010020000203780037
:1013e00003017800800178000100780003036300a6
:1013f000000061008000eb00c000dd000000200064
:101400000001be006130b8000001710081817100ef
:1014100004004100858049005e0190000089be0003
:101420005e009000a00090000100a0002100980044
:101430000e4890000080fb004400dd00e400400006
:101440000020210000804000900078000020200053
:10145000008f60001e0078000000e00005003200f0
:101460005e009000a00090000110a00021009800f4
:101470007b0037005e009000a00090000110a100ea
:10148000210098005e009000300090008e4890008f
:101490008180fb00c408dd0066814000012021003e
:1014a0008100410091007800814078000148780077
:1014b0005e009000300090000000e8008e48900030
:1014c0008180fb00c408dd0066814000012021000e
:1014d0008100410091007800c808de00814078005a
:1014e000014878005e009000300090000080e80025
:1014f0008e4890008180fb00c408dd0068814000b8
:101500000120210081004100910078008140780095
:10151000014878005e0090003000900063004000b9
:101520008e4890008180fb00c408dd006881400087
:10153000012021008100410091007800c808de00f0
:1015400081407800014878005e00900030009000f3
:10155000640040008e4890008180fb00c408dd00dc
:101560006a81400001202100810041009100780043
:1015700081407800014878005e00900030009000c3
:10158000650040008e4890008180fb00c408dd00ab
:101590006a81400001202100810041009100780013
:1015a000c808de0081407800014878005e009000a5
:1015b00030009000660040008e4890008180fb0063
:1015c000c408dd006c814000012021008100410041
:1015d0009100780081407800014878005e0090001a
:1015e00030009000670040008e4890008180fb0032
:1015f000c408dd006c814000012021008100410011
:1016000091007800c808de00814078000148780029
:101610000e4890000080fb004400dd00e400400024
:101620000020210000804000100078000040780079
:101630006f4060006f4060006f406000de0090000f
:101640000080fb006f0060004200dd00a1019000ff
:1016500032fc2f000281610002007000a00098009f
:101660000080fa00000006000400fa00000f780075
:10167000110798001e00900020009000610060009b
:101680000000e00015003a001e009000900090005d
:101690001000780080007800f07f2000008060005b
:1016a000c200dd001e007800010878001e80e800fe
:1016b0008000eb00010878009e0078006480400004
:1016c0009e009000a1009000c208de00efc0600004
:1016d0008180fb0001087800250037001e00900083
:1016e00090009000100078004008de008000780034
:1016f000c0ff210000806000800078000100a00091
:101700001e007800010878001e81e8001e0090008d
:101710009000900010007800ca09dd004600de004d
:1017200000807100c608de0080007800f0ff200015
:1017300000806000000978009e007800648140000d
:101740001e009000200090004200de006f4060000c
:101750008081fb001e009000900090001000780037
:10176000000078004a00dd00008041000009780098
:101770001e009000300090000000e0003b003200ae
:101780009e017800668041009e009000b1009000ac
:101790008100e800914078008180fb004809dd006d
:1017a0009e009000b1009000914078008180fb0085
:1017b00081004100010878009e00780068804000a8
:1017c0009e009000b1009000e380400091407800be
:1017d0008180fb004809dd009e009000b100900070
:1017e0008180e800914078008180fb008100410009
:1017f000010878009e0178006a8041009e009000f8
:10180000b1009000e5804000914078008180fb00ad
:101810004809dd009e009000b1009000e480400087
:10182000914078008180fb00810041000108780030
:101830009e0078006c8040009e009000b1009000f7
:10184000e7804000914078008180fb004809dd007e
:101850009e009000b1009000e6804000914078002a
:101860008180fb0081004100010878000080fa00bf
:10187000000006000000fa002468a9000c24ef0014
:1018800001208000f08f2f000080600000a0a000e9
:10189000002088000000000001208000000e2000d1
:1018a0008080600000082000808f5000faff3a001e
:1018b0005000200080208800801a2000902088009e
:1018c00040002c003020880020002000a02088004c
:1018d0000024ef000004a800c120800030ff2f008a
:1018e00000806000c020880080218000ff00600030
:1018f00000a020000100700080218800a02180004d
:101900007f006000a0218800c02180007f0060006f
:10191000c021880081218000c0ff2f00008060006e
:1019200080218800a1218000c0ff2f00008060007e
:10193000a0218800c1218000c0ff2f00008060002e
:10194000c02188003224ef003624ef003a24ef0053
:101950003064a9003464a9003864a9002022800002
:10196000ff00600000462200010070002022880075
:1019700021228000c0ff2f0000806000202288000c
:101980004624ef004464a90001218000000f2000dc
:1019900001007000002188000004a90030e4a800c4
:1019a00031e4a80032e4a80033e4a80034e4a9003c
:1019b00035e4a90036e4a90037e4a90081218000bc
:1019c000c0ff2f00008060008021880081218000fe
:1019d000f0cf2f00008060008021880091218000de
:1019e000c0ff2f00008060009021880091218000be
:1019f000f0cf2f000080600090218800a12180009e
:101a0000c0ff2f0000806000a0218800a12180007d
:101a1000f0cf2f0000806000a0218800b12180005d
:101a2000c0ff2f0000806000b0218800b12180003d
:101a3000f0cf2f0000806000b02188002024ef004c
:101a40002224ef002824ef002a24ef000a24a90012
:101a500001208000f08f2f000080600000208800af
:101a60000000000001208000000e200000806000c7
:101a70000000e000fbff3a00800221007701070030
:101a80002468a8000080fa00000006000000fa00a8
:101a9000204420008000780010002000b9fd0700dd
:101aa00000202100800078001000200096fd070033
:101ab000100020007efd07000080fa0000000600f4
:101ac0000000fa0000442000800078000000eb00d5
:101ad000acfd070000202100800078000000eb0032
:101ae00089fd07000000eb0071fd07000080fa008f
:101af000000006000400fa00100798000000eb0048
:101b0000000f780021000700e40f500006003200ab
:101b10001e009000e10f5000030032001e009000f4
:101b2000e40f500014003a001e00900000407800be
:101b3000674060000080fb00670060004800dd0037
:101b400002208000f18f2f008100610001007000f1
:101b50000020880000000000002080004500de001a
:101b6000674060008080fb001e009000808f500066
:101b7000f9ff3a000200370010002000000f780043
:101b80001e0078000080fa00000006000000fa0045
:101b9000002080004500de00674060000080fb0000
:101ba0000080fa00000006000c00fa0040079800d0
:101bb000510798000000eb00000f78000043200060
:101bc000100798000040eb00604798005e0090000e
:101bd000200090004200de006f4060000080fb00ab
:101be000e80f5000010034001e00a0000000eb00d0
:101bf00020079800280037001e00900090407800d1
:101c000000c8b30000c060000004e0001c00320007
:101c10001e00900010407800684060000004e00062
:101c200017003a00012021002e0090004400dd0042
:101c300000804000de0090008bfe07004e00900008
:101c400000407800e34060001e009000e3c06000a8
:101c500090417800c2cfb30002c1610081407100a1
:101c6000014878001e009000904078000134a000e8
:101c70000148780010c0b3006047980009003700a1
:101c80001e0090000000e800100798002e00900051
:101c90000000e800200798002e009000e30f50009d
:101ca000d5ff36006e4090000004a2000004e00062
:101cb000020032009e007800638f70001e007800e2
:101cc0000080fa00000006000a00fa0040079800b1
:101cd0000040eb0020479800502080006400600026
:101ce0000000e000030032000a44a9002e409000ea
:101cf000390037004e009000300090000000e000f6
:101d000002003a002e40900033003700402080004f
:101d100000407800f043b2000080fb0030079800dc
:101d20003e009000ef0f500005003e0001218000b2
:101d300021079800be009000010f780004003700d2
:101d400011218000210798003e009000700f500084
:101d50001e007800ae0090000008de006100600008
:101d6000004078000004e0001a0032003e009000bd
:101d700000407800ce0090001dfd07003e0090005e
:101d8000ef0f500009003e001e00780011002000f7
:101d90000008dd000080ea0080007800002180005b
:101da0000080600000218800080037001e007800d5
:101db000110020000008dd000080ea0080007800ab
:101dc00010218000008060001021880010c0b30046
:101dd000204798002e4090000080fa000000060086
:101de0000000fa00502080004d00de0061406000dd
:101df0000080fb0000f0a7000000ea000000ea00fd
:101e00004f00de00004078000080fa00000006006d
:101e10000000fa00502080004b00de0061406000ae
:101e20000080fb0000f0a7000000ea000000ea00cc
:101e30004f00de00004078000080fa00000006003d
:101e40000000fa00502080004900de006140600080
:101e50000080fb0000f0a7000000ea000000ea009c
:101e60004f00de00004078000080fa00000006000d
:101e70000200fa000040eb00004f78000ec4bf00e3
:101e80000004e000050032000ec4bf000004e000c2
:101e90000200350010c0b300004f78001e407800eb
:101ea0000080fa00000006000000fa0050208000c8
:101eb0004c00de00614060000080fb0000f0a700e5
:101ec0000000ea000000ea004f00de000040780059
:101ed0000080fa00000006000000fa005020800098
:101ee0004a00de00614060000080fb0000f0a700b7
:101ef0000000ea000000ea004f00de000040780029
:101f00000080fa00000006000200fa000040eb002a
:101f1000004f78000fc4bf000004e000050032004d
:101f20000fc4bf000004e0000200350010c0b30081
:101f3000004f78001e4078000080fa000000060084
:101f40000600fa000000eb00000f7800012180007d
:101f5000210798002e0090000000e00011003200e0
:101f60000000eb00100798000b0037001e009000e7
:101f7000ae0090000008de006100600000407800c4
:101f80000004e000010032001e0fe8001e00900077
:101f90000000e800100798001e009000ef0f5000ae
:101fa000f2ff360011218000210798002e009000da
:101fb0000000e000110032000000eb001007980064
:101fc0000b0037001e009000ae0090000008de00fd
:101fd00061006000004078000004e0000100320071
:101fe0001e0fe8001e0090000000e8001007980097
:101ff0001e009000ef0f5000f2ff36001e00780028
:10200000004078000080fa00000006000000fa009e
:102010000ac4a9000cc4a80001208000f08f2f0082
:10202000008060000080a000002088000000000008
:1020300001208000000e200080806000000220004f
:10204000808f5000faff3a000080fa00000006007e
:102050000000fa000080fa00000006000200fa000a
:10206000000f78001e007800f08088000080fa00e1
:10207000000006001400fa00000f9800110f9800ed
:1020800003000900001feb008e00b1007e079800de
:102090001e08900090009000100078004007980003
:1020a000510798001e089000404090006140600079
:1020b0000080fb0061006000ee0090000100a100c4
:1020c00001007000600798001e08900050409000ca
:1020d000614060000080fb00610060000000400083
:1020e000ee0090000110a100010070006007980050
:1020f0001e089000604090006f4060000080fb0070
:102100006f0060004200dd006e01900031fc2f0086
:102110008100610001007000600798007e0090005f
:102120009e089000f1409000014878007e009000e9
:102130000000e8009e089000814890000148780067
:102140007e0090000080e8009e089000914890007a
:10215000014878007e009000630040009e089000d7
:10216000a1489000014878007e0090006400400083
:102170009e089000b1489000014878007e009000d1
:10218000650040009e089000c1489000014878001a
:102190007e009000660040009e089000d1489000ac
:1021a000014878007e009000670040009e08900083
:1021b000e1489000014878006800470080007800fe
:1021c0000e08900078fe070000f0a7000000ea006b
:1021d0000000ea004f00de00004078000080fa00b6
:1021e000000006001400fa00100f98000040eb00f9
:1021f000004f7800e1004700070009008058eb001d
:102200000e00e800000f98006a004700aefe0700cd
:102210000004e000430032005e009000ee009000f9
:102220001e0990000089be007e00900061406000a1
:10223000804078001e089000414098007e00900089
:10224000620060000000e000040032001e08900000
:1022500021c0b30051409800030037001e089000d1
:1022600011c0b300514098000e08900090407800d3
:102270001e089000714098000e0890000000e800d1
:10228000904078001e089000014898000e089000c9
:102290000080e800904078001e08900011489800e7
:1022a0000e08900063004000904078001e089000e7
:1022b000214898000e08900064004000904078008b
:1022c0001e089000314898000e08900065004000fc
:1022d000904078001e089000414898000e08900039
:1022e00066004000904078001e0890005148980019
:1022f0000e08900067004000904078001e08900093
:10230000614898007e0090004200de006f4060004f
:10231000804078001e0890006140980010c0b30013
:10232000004f78001e4078000080fa000000060090
:102330000000fa00502080004d00de006140600087
:102340000080fb0000f0a7000000ea000000ea00a7
:102350004f00de00004078000080fa000000060018
:102360000000fa00502080004b00de006140600059
:102370000080fb0000f0a7000000ea000000ea0077
:102380004f00de00004078000080fa0000000600e8
:102390000000fa00502080004c00de006140600028
:1023a0000080fb0000f0a7000000ea000000ea0047
:1023b0004f00de00004078000080fa0000000600b8
:1023c0000600fa000000eb00000f780001218000f9
:1023d000210798002e0090000000e000110032005c
:1023e0000000eb00100798000b0037001e00900063
:1023f000ae0090000008de00610060000040780040
:102400000004e000010032001e0fe8001e009000f2
:102410000000e800100798001e009000ef0f500029
:10242000f2ff360011218000210798002e00900055
:102430000000e000110032000000eb0010079800df
:102440000b0037001e009000ae0090000008de0078
:1024500061006000004078000004e00001003200ec
:102460001e0fe8001e0090000000e8001007980012
:102470001e009000ef0f5000f2ff36001e007800a3
:10248000004078000080fa00000006000000fa001a
:102490000ac4a9000cc4a80001208000f08f2f00fe
:1024a000008060000080a000002088000000000084
:1024b00001208000000e20008080600000022000cb
:1024c000808f5000faff3a000080fa0000000600fa
:1024d0000000fa0021e3a8000080fa0000000600d6
:1024e0000400fa00100798001e009000e10f500051
:1024f00008003200e10f500003003900e20f5000e5
:10250000070032000900370001188000010f780031
:102510000600370011188000010f78000300370013
:1025200021188000010f7800000000001e007800d4
:102530000080fa00000006000000fa00c80607004c
:1025400041030700b902070000e224002048880088
:1025500000e2240070488800907080004c00de008b
:102560006140600080407800907080004e00de0086
:10257000614060000081fb00907080004f00de0031
:10258000004078000080fb00000040000000410097
:102590000000400000017800907080004d00de00d7
:1025a000614060000080fb000000410000407800b6
:1025b0000040400000c0400000c0ea00ef40600062
:1025c0008002210001487800d20307003cfd07008b
:1025d0002efd0700beff0700048ea8004008220061
:1025e000460507004d05070000092200e704070023
:1025f000ee040700046ea9000000eb004082880092
:102600000000eb0010828800400521008040eb00b4
:1026100001487800100120009081880040012000ce
:102620006081880090012000b08188006000b800bf
:1026300070818800818188006000b800d0818800a6
:10264000e18188006000b800f08188000182880084
:102650000000eb00c08188007005210011c0b300ac
:1026600001487800e221ef00e021ef00de21ef00d9
:102670000080eb00e00e880000102700100e88009c
:1026800000802900000e8800010e8000f0f82f0065
:10269000808060000006200001007000000e8800ad
:1026a000c621ef00100ea900102ea9002004210061
:1026b00000838800e0022100f08388006000b800f9
:1026c000b0838800c18388000000200001f8230047
:1026d000108388002183880000002000011224005c
:1026e00050838800618388000000200001122400cc
:1026f000d0838800e18388000080fa000000060093
:102700001000fa00889fbe0003000900001feb00c4
:102710008e00b1007e07980030818000e30f5000ea
:1027200061003200e30f500005003e00e10f500051
:1027300047003200e10f50000b003e000700370059
:10274000e70f500070003200e80f500068003200c0
:10275000e60f5000630032006c00370020002000bc
:102760003081880069003700300e80009081880039
:10277000600e800060818800900e8000c08188001b
:1027800091818000a0818000808f5000040034007f
:102790007005210011c0b300014878000700370020
:1027a00091818000a0818000808f500003003d0057
:1027b0007005210080c0eb0001487800c0818000d6
:1027c0000000e00004003a006000b800708188005a
:1027d00081818800190037007005210010407800c1
:1027e0000000fb00cf80de004bf907000001be00b7
:1027f0006af8070002002000030824009ef9070081
:10280000f2fa230093c023009bf907000004be00e6
:10281000c08180008000eb0042f90700d25b2000fd
:10282000f370230094f907000001be000800be0009
:10283000b7f807007081880081818800908180004e
:10284000a081880010002000308188002f00370010
:102850004005210010407800614060000080fb00ce
:10286000610060004300dd00217080000130a100a4
:102870000100700020708800907080004600de002b
:10288000614060000080fb0061006000a17080007a
:102890000100a10001007000a0708800300020003d
:1028a0003081880019003700600521001040780051
:1028b000e14f500008003a0080052100ab000700fe
:1028c000e0828000f1828000b904070060052100e9
:1028d0008040eb00014878006000200030818800d3
:1028e0000a00370080002000308188000700370090
:1028f0000000eb00fafe0700508188002000200055
:102900003081880001003700000000004f04be0045
:102910000080fa00000006000200fa000000eb0050
:10292000000f780009003700400921001e00400018
:102930008040eb0001487800c00921001e004000e3
:102940008040eb00014878001e0fe8001e00780070
:10295000e70f5000f4ff3400907080004c00de0060
:102960006140600080407800907080004e00de0082
:10297000614060000081fb00907080004f00de002d
:10298000004078000080fb00000040000000410093
:102990000000400000017800907080004d00de00d3
:1029a000614060000080fb000000410000407800b2
:1029b0000040400000c0400000c0ea00ef4060005e
:1029c00020082100014878000080fa00000006007d
:1029d0000000fa004009210050848800c00921004d
:1029e0009084880000848000e10f500008003200cd
:1029f000e10f500003003900e20f500044003200a4
:102a0000580037001000200000848800550037006f
:102a10004bfd07000004e0003a00320040082100ae
:102a2000a9fc07000004e000360032004008210045
:102a3000dc020700410a210080487800400a21009a
:102a4000104078000080fb00eb0f50001f003200a8
:102a5000eb0f500005003c00e50f50002400320051
:102a6000ea0f50001000320026003700110220004b
:102a7000810f500004003200c1022000810f50007d
:102a8000050032001f0037004005210011c0b300cf
:102a9000014878001b003700400521008040eb0012
:102aa00001487800170037004009210010407800e5
:102ab0008080fb0050092100104078000080fb005e
:102ac0004800dd000080400010828800400921009d
:102ad000104078008080fb005009210010407800f1
:102ae0000080fb004800dd0000804000408288003c
:102af0005084800090407800500521000148780003
:102b0000000000002000200000848800150037002d
:102b1000500a210010407800e14f50000e003a00aa
:102b2000708180008181800002002000a347240082
:102b3000d1f807003cf80700800078009081800001
:102b4000c30821000001eb002c020700500a2100fd
:102b50008040eb00014878001000200000848800cd
:102b6000000000000080fa00000006000600fa00e5
:102b7000889fbe00200798006000b800008fbe004c
:102b80002e0090004000900010007800cf80de0002
:102b900061f8070002002000a3472400dcf70700cb
:102ba0000002be002e0090003010900090009000b7
:102bb000100078000001be000400be0076f7070098
:102bc000008fbe002e009000700c900080149000ca
:102bd0002e009000a008900010089000a2702d0018
:102be00033ba2300a4f807001e0178009e0190006c
:102bf000a1f807000001be000800be0067f707004b
:102c00002e01900070099800011198002e0090008c
:102c1000700a9000801290002e009000a01090008a
:102c20001010900018c0b3000001be000400be00e8
:102c3000fbf707000000e00001003c000044eb004f
:102c40000804e000070032002e009000a010900061
:102c5000101090002e01900070099800011198004a
:102c6000170037002e009000700a9000801290002c
:102c70002e009000a01090001010900001f0a20013
:102c800018c0b3000001be000400be00e2f7070058
:102c90000000e000010035000044eb000804e00003
:102ca000070032002e009000a0109000101090003d
:102cb00001f0a2002e019000700998000111980007
:102cc0002e009000e0009000500090001e0178005f
:102cd0009e01900068f807000002be002e009000e0
:102ce00080109000700890000001be000400be003b
:102cf0002af707002e0190000089be002e009000e8
:102d0000900090001000780018c0b3006011b80067
:102d1000c1f707000000e000010034000044eb00b0
:102d20000804e0000d0032002e009000900090009a
:102d300010007800020020008310240016f707001e
:102d4000f2512800b3ee230071f707002e01900026
:102d500020019800310198000c0037002e009000ef
:102d600090009000100078000200200083102400e2
:102d70000af70700f2512800b3ee230064f70700ba
:102d80002e01900020019800310198004f04be00f0
:102d90000080fa00000006000000fa00003a8000ff
:102da0000080fa00000006000200fa00faff0700a7
:102db000000f78001e007800240007000004e000e7
:102dc0000200320000002800710007001e00780099
:102dd0002a0007000004e000020032000000240086
:102de0006b0007001e007800320007000004e000be
:102df0000200320000202000650007001e0078005d
:102e00003a0007000004e000020032000008200041
:102e10005f0007001e007800420007000004e00089
:102e20000200320000042000590007001e00780054
:102e30004a0007000004e000020032000001200008
:102e4000530007000080fa00000006000400fa00aa
:102e5000100798000040eb00004f78001e00900023
:102e60000000e00002003d0010c0b300004f7800f9
:102e70001e4078000080fa00000006000400fa00fe
:102e8000100798000040eb00004f78009e00900073
:102e900000002400008060000000e000020032001a
:102ea00010c0b300004f78001e4078000080fa0088
:102eb000000006000400fa00100798000040eb0034
:102ec000004f78009e0090000020200000806000ed
:102ed0000000e0000200320010c0b300004f780094
:102ee0001e4078000080fa00000006000400fa008e
:102ef000100798000040eb00004f78009e00900003
:102f000000082000008060000000e00002003200a5
:102f100010c0b300004f78001e4078000080fa0017
:102f2000000006000400fa00100798000040eb00c3
:102f3000004f78009e009000000420000080600098
:102f40000000e0000200320010c0b300004f780023
:102f50001e4078000080fa00000006000400fa001d
:102f6000100798000040eb00004f78001e00900012
:102f7000700060000000e0000200320010c0b300ea
:102f8000004f78001e4078000080fa000000060024
:102f90000200fa00000f78009e80ea00003a8000ec
:102fa00000806000003a88000080fa0000000600ff
:102fb0000000fa004027ef000080fa000000060041
:102fc0000000fa0060c0210050488800f001200095
:102fd000604888000e29ef001029ef00504880005b
:102fe00000407800674060000080fb00d0808800cf
:102ff0000080fa00000006000000fa000080fa00dd
:10300000000006000000fa000140800000042000db
:10301000008060000000e00002003200f6ff0700c0
:1030200000c8a9000080fa00000006000000fa00b5
:10303000d080800000407800674060000080fb0086
:10304000670060005248800081ff2f00810061000e
:1030500001007000504888000080fa00000006005f
:103060000000fa005148800080ff2f0000806000bf
:10307000504888000080fa00000006000200fa00b4
:10308000000f78009e007800714888000080fa00e8
:10309000000006000200fa00000f78009e00780091
:1030a000814888000080fa00000006000000fa0055
:1030b000004080004600de00614060000080fb00b0
:1030c00000f0a7000000ea000000ea004f00de0068
:1030d000004078000080fa00000006000400fa00ba
:1030e000100798001e0090000000e000030032006e
:1030f000e10f50000b0032001400370050488000f0
:103100004400de00614060000080fb0000f0a7008a
:103110000000ea000000ea004f00de00004f7800e7
:103120000a003700504880004500de006140600022
:103130000080fb0000f0a7000000ea000000ea00a9
:103140004f00de00004f7800000000001e407800b5
:103150000080fa00000006000200fa00000f78006c
:103160001e0078000000e00003003200e10f500074
:1031700003003200040037000a89a900020037006a
:103180000aa9a900000000000080fa000000060063
:103190000000fa000cc9a8000080fa000000060038
:1031a0000000fa00604880004600de0061406000d8
:1031b0000080fb0000f0a7000000ea000000ea0029
:1031c0004f00de00004078000080fa00000006009a
:1031d0000000fa000cc9a9000080fa0000000600f7
:1031e0000000fa0060c0210000488800f0012000c3
:1031f000104888000429ef000629ef0000488000ed
:1032000000407800674060000080fb00c0808800bc
:103210000080fa00000006000000fa000080fa00ba
:10322000000006000000fa0000408000640060001a
:103230000000e00002003200f7ff07000048a9008c
:103240000080fa00000006000000fa00c080800044
:1032500000407800674060000080fb00670060006d
:103260000248800081ff2f00810061000100700092
:10327000004888000080fa00000006000000fa0004
:103280000148800080ff2f00008060000048880017
:103290000080fa00000006000200fa00000f78002b
:1032a0009e007800214888000080fa000000060097
:1032b0000200fa00000f78009e0078003148880074
:1032c0000080fa00000006000000fa0000408000c4
:1032d0004200de00614060000080fb0000f0a700bb
:1032e0000000ea000000ea004f00de000040780025
:1032f0000080fa00000006000400fa0010079800a1
:103300001e0090000000e00003003200e10f5000ba
:103310000b00320014003700004880004400de003b
:10332000614060000080fb0000f0a7000000ea00a0
:103330000000ea004f00de00004f78000a0037006e
:10334000004880004500de00614060000080fb0016
:1033500000f0a7000000ea000000ea004f00de00d5
:10336000004f7800000000001e4078000080fa0046
:10337000000006000200fa00000f78001e0078002e
:103380000000e00003003200e10f500003003200b3
:10339000040037000089a9000200370000a9a90035
:1033a000000000000080fa00000006000000fa00a3
:1033b00002c9a8000080fa00000006000000fa0020
:1033c000104880004600de00614060000080fb0085
:1033d00000f0a7000000ea000000ea004f00de0055
:1033e000004078000080fa00000006000000fa00ab
:1033f00002c9a9000080fa00000006000800fa00d7
:10340000000f7800110798002207980033079800f2
:103410003e009000300090009e00780081407800cf
:10342000014878003e009000300090000000e80065
:103430009e007800c808de008140780001487800ce
:103440003e009000300090000080e8009e00900058
:1034500081407800014878003e00900030009000e4
:10346000630040009e009000c888de008140780024
:10347000014878003e009000300090006400400059
:10348000ae00900081407800014878003e00900036
:103490003000900065004000ae009000c808de00db
:1034a00081407800014878003e009000a000900024
:1034b0000110a100210098003e009000a0009000a3
:1034c0000100a100210098003e0090002001900022
:1034d00031fc2f00810061008101b30021009800c0
:1034e00020082100104078000080fb004700dd002c
:1034f000e001b300cf80de003e0190000089be00f5
:10350000be00900030002000a7f907000080fa00fc
:10351000000006000000fa000004a800c12080009e
:10352000c0ff2f0000806000c02088008021800044
:10353000ff00600000002f00010070008021880063
:1035400080022100104078000080fb004700dd0071
:1035500080007800f07f2000008060004500dd00e2
:1035600021228000ff80600001007000202288007e
:1035700021228000c0ff2f000080600020228800f0
:103580004624ef004464a90001218000000f2000c0
:1035900001007000002188000004a9000080fa00ea
:1035a000000006000200fa00000f78001e007800fc
:1035b0009000900010007800004078000074a10096
:1035c0000080fa00000006000000fa00000220005f
:1035d000005888002002200010588800062bef00b9
:1035e00000002100205888000a2bef00082bef0074
:1035f0000c2bef0070002000705888000088a90094
:103600000002220080588800600420009058880042
:10361000162bef0000002100a05888001a2bef00a5
:10362000182bef001c2bef0070002000f0588800d2
:1036300001c8a9000002200000598800d000200025
:1036400010598800262bef00000021002059880027
:103650002a2bef00282bef002c2bef00700020000e
:10366000705988000308a900302bef00322bef00bf
:10367000362bef0000002100a05988003a2bef0004
:10368000382bef003c2bef003e2bef000488a90005
:103690000080fa00000006000000fa000080fa0036
:1036a000000006000000fa0000408000700060008a
:1036b0000000e00002003200f7ff07000088a900c8
:1036c0000080fa00000006000000fa000080fa0006
:1036d000000006000000fa00014080000000240005
:1036e000008060000000e00002003200f6ff0700ea
:1036f00001c8a9000080fa00000006000000fa00de
:103700000080fa00000006000000fa00114080006e
:1037100000102000008060000000e0000200320085
:10372000f6ff07000308a9000080fa000000060069
:103730000000fa000080fa00000006000000fa0015
:1037400020408000700060000000e00002003200b5
:10375000f7ff07000488a9000080fa0000000600b7
:103760000000fa0080002000001188002222ef00f3
:10377000a06120004011880021e2a8002342a80097
:103780000080fa00000006000000fa0000000000bf
:1037900010118000610060000000e000fcff3200ba
:1037a00010118000620060000000e00001003200a3
:1037b0002222a90030118000004078000080fa0029
:1037c000000006000200fa00004f78000000000030
:1037d0001111800000202000008060000000e00047
:1037e000fbff3a001e80fb00201188000080fa00d9
:1037f000000006000000fa00101180000040780070
:10380000614060000080fb0000f0a7000000ea00bb
:103810000000ea004f00de00004078000080fa005f
:10382000000006000000fa001111800000202000b6
:10383000008060000000e00007003a0011118000e5
:1038400000402000008060000000e0000200320024
:1038500010002000010037000000eb00004078005d
:103860000080fa00000006000000fa00101180003d
:103870004800de00614060000080fb0000f0a7000f
:103880000000ea000000ea004f00de00004078007f
:103890000080fa00000006000000fa00101180000d
:1038a0000080fa00000006000000fa0021e2a800f3
:1038b0002342a8000080fa00000006000000fa0081
:1038c00021e2a9002342a9000080fa0000000600be
:1038d0000000fa000621ef00c027290060088800d8
:1038e0000001280080088800e08080000000e000df
:1038f00002003a0000cc21002400070000e8a900e3
:1039000020e8a800600c21008040eb00014878000e
:103910000080fa00000006000200fa00000f7800a4
:103920009e00780061088800600c21008040eb0058
:10393000014878000080fa00000006000000fa004c
:10394000600880000080fa00000006000200fa0013
:10395000000f78009e00780031088800600c21007c
:103960008040eb00014878000080fa00000006006b
:103970000000fa00300880000080fa000000060015
:103980000000fa000080fa00000006000200fa00c1
:10399000000f780020e8a9009e007800e1808800f0
:1039a00020e8a8000080fa00000006000000fa00ed
:1039b000600c21008040eb000148780020e8a8005e
:1039c00011e1a8000080fa00000006000000fa00e3
:1039d00011e1a90020e8a9000080fa00000006001b
:1039e0000200fa00600c2100104f78001e407800a1
:1039f0000004e00003003200600c21008040eb0076
:103a0000014878001e4078000080fa00000006009f
:103a10000000fa00700c2100104078000080fb00cc
:103a20000080fa00000006000000fa00700c21007f
:103a30008040eb00014878000080fa00000006009a
:103a40000000fa000a21ef00f0ff23007008880050
:103a50000002280090088800008180000000e0003b
:103a600002003a0080d72100240007000108a900c5
:103a70002108a800800c21008040eb00014878005c
:103a80000080fa00000006000200fa00000f780033
:103a90009e00780071088800800c21008040eb00b7
:103aa000014878000080fa00000006000000fa00db
:103ab000700880000080fa00000006000200fa0092
:103ac000000f78009e00780051088800800c2100cb
:103ad0008040eb00014878000080fa0000000600fa
:103ae0000000fa00500880000080fa000000060084
:103af0000000fa000080fa00000006000200fa0050
:103b0000000f78002108a9009e007800018188003c
:103b10002108a8000080fa00000006000000fa005a
:103b2000800c21008040eb00014878002108a800ab
:103b300013e1a8000080fa00000006000000fa006f
:103b400013e1a9002108a9000080fa000000060086
:103b50000200fa00800c2100104f78001e4078000f
:103b60000004e00003003200800c21008040eb00e4
:103b7000014878001e4078000080fa00000006002e
:103b80000000fa00900c2100104078000080fb003b
:103b90000080fa00000006000000fa00900c2100ee
:103ba0008040eb00014878000080fa000000060029
:103bb0000400fa00881f7800008fbe006011b80072
:103bc0001e0078009e00900013f407000000e00043
:103bd00003003a000629ef001029ef002b00370000
:103be00018c0b3006011b8001e0078009e0090005d
:103bf0000bf407000000e00001003c000044eb0073
:103c00000804e0000c0032001029ef000200200040
:103c1000832c24001e0078009e009000bcf3070057
:103c200002002400c369240093f407001a0007006f
:103c3000304888001500370018c0b3006011b80084
:103c40001e0078009e009000f3f307000000e000e3
:103c5000010035000044eb000804e0000b003200d6
:103c60000629ef0002002000832c24001e007800ab
:103c70009e009000a6f3070002002400c3692c00f8
:103c80007df4070004000700804888004f04780096
:103c90000080fa00000006000400fa00881f780087
:103ca000008fbe0018c0b30002002000a3672400ec
:103cb0001e0078009e009000d9f307000000e0008d
:103cc00001003c000044eb000804e0000200320068
:103cd00000e82300040037001e0078009e009000da
:103ce000f2f30700000078004f0478000080fa002b
:103cf000000006000000fa00042eef00142eef0072
:103d00007000200000708800f01e2f008070880076
:103d10000c2eef001c2eef000a2eef001a2eef00e3
:103d2000062eef00162eef001000200070708800a5
:103d300030002000f0708800113a8000f00b200065
:103d400000816000600420007105200023742000c1
:103d5000804978008149780082497800a136800046
:103d600000f82f00808060008002200001007000b9
:103d7000a03688001134800000fc2f000080600015
:103d80000000a000103488002136800000f82f00c9
:103d90008080600050022000010070002036880002
:103da0004134800000fc2f00008060000040a00033
:103db0004034880041348000f00f2c008080600087
:103dc0000010210001007000403488003134800070
:103dd000f00f2c008080600000e0200001007000e7
:103de0003034880070622200e0358800103a80008c
:103df000000178000260a00060042000710520002e
:103e00002374200080497800814978008249780035
:083e10000080fa00000006002a
:020000040000fa
:103e1800a61000002000000080000000161000001e
:103e28000200000082000000ffff000018100000e0
:103e380002000000800000001a10000002000000cc
:103e480080000000c6100000020000008000000092
:103e58001c1000000200000080000000001200009a
:103e680000020000800000001e1000000200000098
:103e780080000000c8100000020000008000000060
:103e88002010000002000000800000002210000046
:103e98000200000080000000261000005a00000008
:103ea80080000000001000001000000080000000ea
:103eb8002410000002000000820000000a00000038
:103ec8008010000026000000800000001010000094
:0c3ed80006000000800000000000000058
:020000040000fa
:103ee4000000fa0020102300203a88004827ef0041
:103ef4004e27ef00e0052000303a88006027ef00ed
:103f04006227ef006427ef006627ef006a27ef00bf
:103f14006c27ef003200200080072000a109200058
:103f24003374200080497800814978008249780000
:103f3400120020006004200071052000237420007a
:103f440080497800814978008249780000000000a7
:103f5400103a8000610060000000e000fcff3a00bd
:103f640000000000113a8000000220000080600080
:103f74000000e000fbff32000080fa0000000600b1
:103f84000000fa00400e2800001988002223ef00e8
:103f940070a02000201988002823ef0000002c00c6
:103fa4007019880010002000801988003223ef0067
:103fb4002623ef0040fe2100050007000080fa00e0
:103fc400000006000000fa000080fa00000006006d
:103fd4000200fa00000f78001e00780010818800ab
:103fe4000080fa00000006000000fa000140800092
:103ff40000002200008060000000e00006003200a3
:10400400108180000000e000020032001081800076
:104014000000010001a8a9000080fa0000000600c9
:104024000200fa00000f780021028000200f200017
:10403400008060001e007000200288000080fa00ea
:10404400000006000000fa00c3e8a8000000000019
:10405400000000000080fa00000006000000fa00e2
:1040640023ff07009eff07000d000700bbfd0700ac
:104074005afc0700fef5070014fe0700c0ff070006
:104084006efe0700cdfb07004efd0700edff0700a5
:1040940000022000e2ff07000080fa000000060092
:1040a4000000fa002142800080ff2f0000806000a1
:1040b4000000a0002042880011428000f0ff280088
:1040c4000080600000c0a000104288000080fa0058
:1040d400000006000200fa00000f78009e0078003d
:1040e400b1808800ffff37000000fa00600a210059
:1040f40080077800e00b2100000188000080fa00ae
:10410400000006000000fa00500a210011c0b300ac
:10411400014878000080fa00000006000000fa0060
:104124006005210011c0b300014878000080fa0046
:10413400000006000000fa00fef80700f5f9070089
:0c4144006ef9070021fa0700fdff3700ac
:020000040000fa
:020000040005f5
:045fe000cfff0000ef
:020000040000fa
:020000040005f5
:045fe400cfff0000eb
:020000040000fa
:020000040005f5
:045fe8007fff000037
:020000040000fa
:020000040005f5
:045fec0078ff00003a
:020000040000fa
:020000040005f5
:045ff00078ff000036
:020000040000fa
:020000040005f5
:045ff400ffff0000ab
:00000001FF
