:020000040000fa
:080000000002040000000000f2
:020000040000fa
:040008000a030000e7
:020000040000fa
:04000c004c030000a1
:020000040000fa
:04001000ac0300003d
:020000040000fa
:040014002a030000bb
:020000040000fa
:040018006c03000075
:020000040000fa
:04001c008c03000051
:020000040000fa
:04002000cc0300000d
:020000040000fa
:040024006004000074
:020000040000fa
:040028006004000070
:020000040000fa
:04002c00600400006c
:020000040000fa
:040030006004000068
:020000040000fa
:040034006004000064
:020000040000fa
:040038006004000060
:020000040000fa
:04003c00600400005c
:020000040000fa
:040040006004000058
:020000040000fa
:040044006004000054
:020000040000fa
:040048002a04000086
:020000040000fa
:04004c00600400004c
:020000040000fa
:040050006004000048
:020000040000fa
:040054006004000044
:020000040000fa
:040058006004000040
:020000040000fa
:04005c00600400003c
:020000040000fa
:040060006004000038
:020000040000fa
:040064006004000034
:020000040000fa
:040068006004000030
:020000040000fa
:04006c00600400002c
:020000040000fa
:040070006004000028
:020000040000fa
:040074006004000024
:020000040000fa
:040078006004000020
:020000040000fa
:04007c00600400001c
:020000040000fa
:040080006004000018
:020000040000fa
:040084006004000014
:020000040000fa
:040088006004000010
:020000040000fa
:04008c00600400000c
:020000040000fa
:040090006004000008
:020000040000fa
:040094006004000004
:020000040000fa
:040098006004000000
:020000040000fa
:04009c0060040000fc
:020000040000fa
:0400a00060040000f8
:020000040000fa
:0400a40060040000f4
:020000040000fa
:0400a80060040000f0
:020000040000fa
:0400ac0060040000ec
:020000040000fa
:0400b00060040000e8
:020000040000fa
:0400b400f80300004d
:020000040000fa
:0400b80060040000e0
:020000040000fa
:0400bc0060040000dc
:020000040000fa
:0400c00060040000d8
:020000040000fa
:0400c40060040000d4
:020000040000fa
:0400c80060040000d0
:020000040000fa
:0400cc0060040000cc
:020000040000fa
:0400d00060040000c8
:020000040000fa
:0400d40060040000c4
:020000040000fa
:0400d80060040000c0
:020000040000fa
:0400dc0060040000bc
:020000040000fa
:0400e00060040000b8
:020000040000fa
:0400e40060040000b4
:020000040000fa
:0400e80060040000b0
:020000040000fa
:0400ec0060040000ac
:020000040000fa
:0400f00060040000a8
:020000040000fa
:0400f40060040000a4
:020000040000fa
:0400f80060040000a0
:020000040000fa
:0400fc00600400009c
:020000040000fa
:040100006004000097
:020000040000fa
:040104006004000093
:020000040000fa
:04010800600400008f
:020000040000fa
:04010c00600400008b
:020000040000fa
:040110006004000087
:020000040000fa
:040114006004000083
:020000040000fa
:04011800600400007f
:020000040000fa
:04011c00600400007b
:020000040000fa
:040120006004000077
:020000040000fa
:040124006004000073
:020000040000fa
:04012800600400006f
:020000040000fa
:04012c00600400006b
:020000040000fa
:040130006004000067
:020000040000fa
:040134006004000063
:020000040000fa
:04013800600400005f
:020000040000fa
:04013c00600400005b
:020000040000fa
:040140006004000057
:020000040000fa
:040144006004000053
:020000040000fa
:04014800600400004f
:020000040000fa
:04014c00600400004b
:020000040000fa
:040150006004000047
:020000040000fa
:040154006004000043
:020000040000fa
:04015800600400003f
:020000040000fa
:04015c00600400003b
:020000040000fa
:040160006004000037
:020000040000fa
:040164006004000033
:020000040000fa
:04016800600400002f
:020000040000fa
:04016c00600400002b
:020000040000fa
:040170006004000027
:020000040000fa
:040174006004000023
:020000040000fa
:04017800600400001f
:020000040000fa
:04017c00600400001b
:020000040000fa
:040180006004000017
:020000040000fa
:040184006004000013
:020000040000fa
:04018800600400000f
:020000040000fa
:04018c00600400000b
:020000040000fa
:040190006004000007
:020000040000fa
:040194006004000003
:020000040000fa
:0401980060040000ff
:020000040000fa
:04019c0060040000fb
:020000040000fa
:0401a00060040000f7
:020000040000fa
:0401a40060040000f3
:020000040000fa
:0401a80060040000ef
:020000040000fa
:0401ac0060040000eb
:020000040000fa
:0401b00060040000e7
:020000040000fa
:0401b40060040000e3
:020000040000fa
:0401b80060040000df
:020000040000fa
:0401bc0060040000db
:020000040000fa
:0401c00060040000d7
:020000040000fa
:0401c40060040000d3
:020000040000fa
:0401c80060040000cf
:020000040000fa
:0401cc0060040000cb
:020000040000fa
:0401d00060040000c7
:020000040000fa
:0401d40060040000c3
:020000040000fa
:0401d80060040000bf
:020000040000fa
:0401dc0060040000bb
:020000040000fa
:0401e00060040000b7
:020000040000fa
:0401e40060040000b3
:020000040000fa
:0401e80060040000af
:020000040000fa
:0401ec0060040000ab
:020000040000fa
:0401f00060040000a7
:020000040000fa
:0401f40060040000a3
:020000040000fa
:0401f800600400009f
:020000040000fa
:0401fc00600400009b
:020000040000fa
:040200006004000096
:020000040000fa
:040204006004000092
:020000040000fa
:04020800600400008e
:020000040000fa
:04020c00600400008a
:020000040000fa
:040210006004000086
:020000040000fa
:040214006004000082
:020000040000fa
:04021800600400007e
:020000040000fa
:04021c00600400007a
:020000040000fa
:040220006004000076
:020000040000fa
:040224006004000072
:020000040000fa
:04022800600400006e
:020000040000fa
:04022c00600400006a
:020000040000fa
:040230006004000066
:020000040000fa
:040234006004000062
:020000040000fa
:04023800600400005e
:020000040000fa
:04023c00600400005a
:020000040000fa
:040240006004000056
:020000040000fa
:040244006004000052
:020000040000fa
:04024800600400004e
:020000040000fa
:04024c00600400004a
:020000040000fa
:040250006004000046
:020000040000fa
:040254006004000042
:020000040000fa
:04025800600400003e
:020000040000fa
:04025c00600400003a
:020000040000fa
:040260006004000036
:020000040000fa
:040264006004000032
:020000040000fa
:04026800600400002e
:020000040000fa
:04026c00600400002a
:020000040000fa
:040270006004000026
:020000040000fa
:040274006004000022
:020000040000fa
:04027800600400001e
:020000040000fa
:04027c00600400001a
:020000040000fa
:040280006004000016
:020000040000fa
:100400000f4021000eff28000e01880000000000b0
:10041000000020000000e000020032000001200087
:1004200020028800140007003b0107000000e000e4
:1004300003003a00a0bb21000100200002003700a9
:100440000000200001002000810f70000100320038
:100450000f000700000020000000e0000200320052
:100460000000020000000000201d0200000000004b
:100470000040da000000fe00200020000000e00044
:1004800002003200100020009001880000000600e9
:10049000a1028800800478000000eb001f003700f4
:1004a000e284440054a0b4009905ba00e2844400f8
:1004b00054a0b4009906ba00e284440054a0b400e9
:1004c0000006eb00476fde00fd07b200ae018800ba
:1004d000636ce10003003a000ad801000000eb0061
:1004e0000e003700606ce10008003a00004deb00a0
:1004f0000a05e800020039003420ec000af0a000f0
:100500008b05e900f9ff3e00040037006168e10057
:10051000010032000086eb000b00070019c7ba008b
:100520000e04e0001905ba0003003a000a00e000da
:10053000dbff3a0000000600fe07b200ae028800b2
:100540008a047800f5ff37000cd0a300e20f4d00bd
:100550001c00390089027800354dba000a05e80010
:10056000020039003420ec000af0a0008b05e900fd
:100570000f003200254dba000a05e80002003900dc
:100580003420ec000af0a0008b05e90008003200de
:100590000c00e0000600320015cdba000a05e800a4
:1005a000020039003420ec000af0a0008b05e900bd
:1005b0008984e80054a0b4000b00e000e2ff3a0098
:1005c000000006009902ba00055d78008b05e9007d
:1005d000f7ff3200c82ade00055d78008b05e900d0
:1005e000f3ff32000c00e000f1ff320019ddba0029
:1005f000eeff3700e80e0400000000001a1a0400a5
:10060000000000007e1c040000000000141d040017
:10061000000000003600f800809fbe00829fbe00f0
:10062000849fbe00869fbe000000fa00c028a9007b
:100630000000eb00e80c07000080fa004f03be004a
:100640004f02be004f01be004f00be003600f90051
:10065000004006003600f800809fbe00829fbe006a
:10066000849fbe00869fbe000000fa00df0c0700da
:10067000c048a90010002000d70c07000080fa0035
:100680004f03be004f02be004f01be004f00be0030
:100690003600f900004006003600f800809fbe00da
:1006a000829fbe00849fbe00869fbe000000fa00ad
:1006b000c068a90020002000c70c07000080fa00d5
:1006c0004f03be004f02be004f01be004f00be00f0
:1006d0003600f900004006003600f800809fbe009a
:1006e000829fbe00849fbe00869fbe000000fa006d
:1006f000c088a90030002000b70c07000080fa0075
:100700004f03be004f02be004f01be004f00be00af
:100710003600f900004006003600f800809fbe0059
:10072000829fbe00849fbe00869fbe000000fa002c
:10073000c0a8a90040002000a70c07000080fa0014
:100740004f03be004f02be004f01be004f00be006f
:100750003600f900004006003600f800809fbe0019
:10076000829fbe00849fbe00869fbe000000fa00ec
:10077000c608a90070002000970c07000080fa004e
:100780004f03be004f02be004f01be004f00be002f
:100790003600f900004006003600f800809fbe00d9
:1007a000829fbe00849fbe00869fbe000000fa00ac
:1007b0002146800000022000008060000000e00070
:1007c00003003200c4a8a90090002000820c07009a
:1007d00020468000700060000000e000030032004e
:1007e000c488a900a00020007b0c0700ffff370091
:1007f0003600f800809fbe00829fbe00849fbe002e
:10080000869fbe000000fa005120800000042000f6
:10081000008060000000e000060032009080800050
:100820000000e00002003200908080000000010023
:100830000ac4a9000468a9000080fa004f03be00a2
:100840004f02be004f01be004f00be003600f9004f
:10085000004006003600f800809fbe00829fbe0068
:10086000849fbe00869fbe000000fa00a08080002a
:100870000000e00002003200a080800000000100c3
:10088000d0072100104078008040e800d007210008
:1008900001487800c007210011c0b300014878006a
:1008a0000108a9000080fa004f03be004f02be00fd
:1008b0004f01be004f00be003600f90000400600a8
:1008c0000040da000000fe000800fa00100798005f
:1008d0002107980032079800be009000010f7800b1
:1008e000070037002e00900010407800ae00900006
:1008f0008100e800210798005f0a07001e0fe90049
:100900001e0078000000e000f6ff3a003e00900074
:100910000080fa000000060000000500889fbe006d
:100920008a9fbe008c1f78009b000700a200330046
:1009300003866c006450e1002e0032006420e10068
:10094000330032006150e1002f0032006120e100ed
:100950003100320085855500eb07b000090020000a
:1009600008042000050037000804440089844c0076
:100970000a0031000603430087834b000001530047
:1009800081815b00f8ff33000203be000800a00075
:100990000804440089844c00f6ff3900c639dd00a4
:1009a0008301730001003200130020008904d1008c
:1009b0000884d3000998a300050032000800a700ae
:1009c0000300a0008904d1000884d3008b05e8004f
:1009d0008904d1000884d3000001eb000281d20019
:1009e0003200070001f0a1000cf0a70001f0a00008
:1009f0007a0037006420e1007c0032000801be006c
:100a00000200be00f7ff37006120e10077003200ee
:100a10006000b800f3ff37000000200001f8270055
:100a2000f0ff370014002000a7003700f4ff2f006c
:100a3000a50037000001be00420007000470a700b7
:100a400003f0a10003f8a30013003a006509b10008
:100a500010003200090035006928e100020035006d
:100a600001002800000005000000400081804800cf
:100a70008502e900fcff3a0000000600f88f420002
:100a8000050035008100d1000080d3008502e80018
:100a9000fcff3a00000006008000eb0000000500ab
:100aa0004f89de0082017800a2003700810020001b
:100ab000618055000b003d000b00200061fe2f00ff
:100ac0000100e1001d0034008281710061016400b9
:100ad0008904d1000884d3000000e800faff3a003e
:100ae00071002000610064000300700002006000db
:100af0000900320061044400e0844c000988a5002c
:100b0000050032008b05e8006808e10002003a00a9
:100b10008904d1000884d300f20f20000258e100bc
:100b200005003d00c75ddd00f907b2008980750052
:100b300008007800000006000bf827008b00780002
:100b400000000500c70ade00f107b200f50fb20091
:100b500008003200e1cf4200020032000170a00024
:100b600024000500810f7000010032000408050018
:100b700044000500810f700002003a0014000500d7
:100b80008502e9000000400081c04800fcff3b00f6
:100b90000170a000240005000004be00e9ff07006a
:100ba0000003be000405be000200be00e5ff070012
:100bb000844f7500000006000200be006450e10092
:100bc000050036006420e100020036000968a30039
:100bd00001003a000800be000160a0004f06780046
:100be0004f05be004f04be0000000600f0ff2f00be
:100bf000f1ff2700f9ff3700889fbe008a9fbe00e3
:100c00008c1f7800e4ff0700ebff330003866c00c5
:100c10006450e100240032006420e100270032002b
:100c20006150e100220032006120e1002100320029
:100c30008b854200eb07b1000134b800003ab800e0
:100c40000804420089844a00013ab8000030b80024
:100c50008880400009014a00040033000000400081
:100c600081804800020149008b05e900c909dd00c7
:100c7000830170000100320013002000c814de0060
:100c80004814dd004709de001200b200c808de008b
:100c90000884700085ff070001f0a1000cf0a70098
:100ca00001f0a000cdff37006120e100cfff32004e
:100cb0000801be000200be00f7ff37006150e100ee
:100cc000fcff3a00c9ff3700889fbe008a9fbe0024
:100cd000841f7800b0ff07004f0078001100330038
:100ce000f0ff2f00838f6c0006003b0004056500b9
:100cf0000a00a7000800370009f0a6001000200035
:100d000008003700820f5400838f5c000300390015
:100d10001000200001003e000000200009f0a700a4
:100d20000000ea004f05be004f04be000000e000d6
:100d300000000600881f7800030478000300e0002c
:100d400007003d0060001000e080180060011900fd
:100d5000e081190002003b0001f02d000300370084
:100d60000400070008f0a70001f0a0004f0478007d
:100d700000000600889fbe008a9fbe0000827000af
:100d80000402710004827100260032000004be00db
:100d90000200be006011b8006b092000950220001f
:100da0000182cf000a0039000541b1000082cf0066
:100db000070039000541b1000982cf000400390065
:100dc0000541b1000882cf00010039000541b100a2
:100dd00005425200120032000a003b00828171007d
:100de000610164008100d1000080d3008984d300b8
:100df0000884d3008b05e8000442e800f7ff3a00be
:100e0000070037000804440089844c0000004800b3
:100e1000818048008b05e9000442e900f9ff3a00af
:100e200022ff07004f05be004f04be000000060071
:020000040000fa
:100e30000200fa00000f78001e007800e10f500059
:100e400009003200e10f500005003900e20f5000a8
:100e500007003200e30f500007003200080037009f
:100e600001eba8000600370011eba80004003700d2
:100e700021eba8000200370031eba80000000000c1
:100e80000080fa00000006000400fa00000f78005d
:100e9000110798001e007800e10f50000b0032008f
:100ea000e10f500005003900e20f50000b00320046
:100eb000e30f50000d003200100037009e0090003c
:100ec00021588800062bef000c0037009e00900090
:100ed000a1588800162bef00080037009e009000f4
:100ee00021598800262bef00040037009e00900057
:100ef000a1598800362bef00000000000080fa00a6
:100f0000000006000400fa00000f780011079800a6
:100f10001e007800e10f50000a003200e10f50007f
:100f200005003900e20f500009003200e30f5000c5
:100f30000a0032000c0037009e00900061588800c3
:100f4000090037009e009000e15888000600370035
:100f50009e00900061598800030037009e009000b9
:100f6000e1598800000000000080fa00000006003f
:100f70000c00fa00004f9800510798000000eb00a9
:100f8000100798000000eb00000f78006000b80028
:100f900020079800310798000e4890000080fb0061
:100fa000c400dd0000202100008040001000780017
:100fb00061006000100798001e0090000000e00033
:100fc00018003a000e4890000080fb00c400dd00cd
:100fd000002021000080400090007800c0ff210028
:100fe000008060004200de008000eb005e019000a7
:100ff0000089be005e009000a00090000100a100ea
:10100000210098000e4890000080fb00c400dd0025
:10101000002021000080400010007800620f600076
:101020006c0037000e4890000080fb00c400dd001b
:101030000020210000804000100078006101b8000d
:10104000c0ff2100010020000202780003017800a7
:101050008001780001007800030262000000610056
:101060008000eb00c000dd00000020000001be0099
:101070006120b80000017100818171002207980091
:10108000330798002e009000be009000c000dd00e5
:10109000000020005e0190000089be005e0090000c
:1010a00010027800900290000e4890000080fb0033
:1010b0004400dd008080e800002021000080400026
:1010c000100078006101b800f0ff2000010020004e
:1010d00002037800030178008001780001007800a5
:1010e00003036300000061008000eb00c000dd002e
:1010f000000020000001be006130b8000001710056
:10110000818171004618dd00ca10de008100700088
:101110004610dd0004004000858048005e0190001c
:101120000089be005e0090001002780090029000de
:101130000e4890000080fb004400dd00e400400009
:101140000020210000804000100078004a00de00ee
:101150006101b800f0ff2f000100200002037800b9
:101160000301780080017800010078000303630028
:10117000000061008000eb00c000dd0000002000e6
:101180000001be006130b800000171008181710072
:1011900004004100858049005e0190000089be0086
:1011a0005e009000a00090000100a00021009800c7
:1011b0000e4890000080fb004400dd00e400400089
:1011c00000202100008040009000780000202000d6
:1011d000008f60001e0078000000e0000500320073
:1011e0005e009000a00090000110a0002100980077
:1011f0007b0037005e009000a00090000110a1006d
:10120000210098005e009000300090008e48900011
:101210008180fb00c408dd006681400001202100c0
:1012200081004100910078008140780001487800f9
:101230005e009000300090000000e8008e489000b2
:101240008180fb00c408dd00668140000120210090
:101250008100410091007800c808de0081407800dc
:10126000014878005e009000300090000080e800a7
:101270008e4890008180fb00c408dd00688140003a
:101280000120210081004100910078008140780018
:10129000014878005e00900030009000630040003c
:1012a0008e4890008180fb00c408dd00688140000a
:1012b000012021008100410091007800c808de0073
:1012c00081407800014878005e0090003000900076
:1012d000640040008e4890008180fb00c408dd005f
:1012e0006a814000012021008100410091007800c6
:1012f00081407800014878005e0090003000900046
:10130000650040008e4890008180fb00c408dd002d
:101310006a81400001202100810041009100780095
:10132000c808de0081407800014878005e00900027
:1013300030009000660040008e4890008180fb00e5
:10134000c408dd006c8140000120210081004100c3
:101350009100780081407800014878005e0090009c
:1013600030009000670040008e4890008180fb00b4
:10137000c408dd006c814000012021008100410093
:1013800091007800c808de008140780001487800ac
:101390000e4890000080fb004400dd00e4004000a7
:1013a00000202100008040001000780000407800fc
:1013b0006f4060006f4060006f406000de00900092
:1013c0000080fb006f0060004200dd00a101900082
:1013d00032fc2f000281610002007000a000980022
:1013e0000080fa00000006000400fa00000f7800f8
:1013f000110798001e00900020009000610060001e
:101400000000e00015003a001e00900090009000df
:101410001000780080007800f07f200000806000dd
:10142000c200dd001e007800010878001e80e80080
:101430008000eb00010878009e0078006480400086
:101440009e009000a1009000c208de00efc0600086
:101450008180fb0001087800250037001e00900005
:1014600090009000100078004008de0080007800b6
:10147000c0ff210000806000800078000100a00013
:101480001e007800010878001e81e8001e00900010
:101490009000900010007800ca09dd004600de00d0
:1014a00000807100c608de0080007800f0ff200098
:1014b00000806000000978009e0078006481400090
:1014c0001e009000200090004200de006f4060008f
:1014d0008081fb001e0090009000900010007800ba
:1014e000000078004a00dd0000804100000978001b
:1014f0001e009000300090000000e0003b00320031
:101500009e017800668041009e009000b10090002e
:101510008100e800914078008180fb004809dd00ef
:101520009e009000b1009000914078008180fb0007
:1015300081004100010878009e007800688040002a
:101540009e009000b1009000e38040009140780040
:101550008180fb004809dd009e009000b1009000f2
:101560008180e800914078008180fb00810041008b
:10157000010878009e0178006a8041009e0090007a
:10158000b1009000e5804000914078008180fb0030
:101590004809dd009e009000b1009000e48040000a
:1015a000914078008180fb008100410001087800b3
:1015b0009e0078006c8040009e009000b10090007a
:1015c000e7804000914078008180fb004809dd0001
:1015d0009e009000b1009000e680400091407800ad
:1015e0008180fb0081004100010878000080fa0042
:1015f000000006000000fa002468a9000c24ef0097
:1016000001208000f08f2f000080600000a0a0006b
:10161000002088000000000001208000000e200053
:101620008080600000082000808f5000faff3a00a0
:101630005000200080208800801a20009020880020
:1016400040002c003020880020002000a0208800ce
:101650000024ef000004a800c120800030ff2f000c
:1016600000806000c020880080218000ff006000b2
:1016700000a020000100700080218800a0218000cf
:101680007f006000a0218800c02180007f006000f2
:10169000c021880081218000c0ff2f0000806000f1
:1016a00080218800a1218000c0ff2f000080600001
:1016b000a0218800c1218000c0ff2f0000806000b1
:1016c000c02188003224ef003624ef003a24ef00d6
:1016d0003064a9003464a9003864a9002022800085
:1016e000ff006000004622000100700020228800f8
:1016f00021228000c0ff2f0000806000202288008f
:101700004624ef004464a90001218000000f20005e
:1017100001007000002188000004a90030e4a80046
:1017200031e4a80032e4a80033e4a80034e4a900be
:1017300035e4a90036e4a90037e4a900812180003e
:10174000c0ff2f0000806000802188008121800080
:10175000f0cf2f0000806000802188009121800060
:10176000c0ff2f0000806000902188009121800040
:10177000f0cf2f000080600090218800a121800020
:10178000c0ff2f0000806000a0218800a121800000
:10179000f0cf2f0000806000a0218800b1218000e0
:1017a000c0ff2f0000806000b0218800b1218000c0
:1017b000f0cf2f0000806000b02188002024ef00cf
:1017c0002224ef002824ef002a24ef000a24a90095
:1017d00001208000f08f2f00008060000020880032
:1017e0000000000001208000000e2000008060004a
:1017f0000000e000fbff3a0080ee200077010700c8
:101800002468a8000080fa00000006000000fa002a
:10181000204420008000780010002000b9fd07005f
:1018200000202100800078001000200096fd0700b5
:10183000100020007efd07000080fa000000060076
:101840000000fa0000442000800078000000eb0057
:10185000acfd070000202100800078000000eb00b4
:1018600089fd07000000eb0071fd07000080fa0011
:10187000000006000400fa00100798000000eb00ca
:10188000000f780021000700e40f5000060032002e
:101890001e009000e10f5000030032001e00900077
:1018a000e40f500014003a001e0090000040780041
:1018b000674060000080fb00670060004800dd00ba
:1018c00002208000f18f2f00810061000100700074
:1018d0000020880000000000002080004500de009d
:1018e000674060008080fb001e009000808f5000e9
:1018f000f9ff3a000200370010002000000f7800c6
:101900001e0078000080fa00000006000000fa00c7
:10191000002080004500de00674060000080fb0082
:101920000080fa00000006000c00fa004007980052
:10193000510798000000eb00000f780000432000e2
:10194000100798000040eb00604798005e00900090
:10195000200090004200de006f4060000080fb002d
:10196000e80f5000010034001e00a0000000eb0052
:1019700020079800280037001e0090009040780053
:1019800000c8b30000c060000004e0001c0032008a
:101990001e00900010407800684060000004e000e5
:1019a00017003a00012021002e0090004400dd00c5
:1019b00000804000de0090008bfe07004e0090008b
:1019c00000407800e34060001e009000e3c060002b
:1019d00090417800c2cfb30002c161008140710024
:1019e000014878001e009000904078000134a0006b
:1019f0000148780010c0b300604798000900370024
:101a00001e0090000000e800100798002e009000d3
:101a10000000e800200798002e009000e30f50001f
:101a2000d5ff36006e4090000004a2000004e000e4
:101a3000020032009e007800638f70001e00780064
:101a40000080fa00000006000a00fa004007980033
:101a50000040eb00204798005020800064006000a8
:101a60000000e000030032000a44a9002e4090006c
:101a7000390037004e009000300090000000e00078
:101a800002003a002e4090003300370040208000d2
:101a900000407800f043b2000080fb00300798005f
:101aa0003e009000ef0f500005003e000121800035
:101ab00021079800be009000010f78000400370055
:101ac00011218000210798003e009000700f500007
:101ad0001e007800ae0090000008de00610060008b
:101ae000004078000004e0001a0032003e00900040
:101af00000407800ce0090001dfd07003e009000e1
:101b0000ef0f500009003e001e0078001100200079
:101b10000008dd000080ea008000780000218000dd
:101b20000080600000218800080037001e00780057
:101b3000110020000008dd000080ea00800078002d
:101b400010218000008060001021880010c0b300c8
:101b5000204798002e4090000080fa000000060008
:101b60000000fa00502080004d00de00614060005f
:101b70000080fb0000f0a7000000ea000000ea007f
:101b80004f00de00004078000080fa0000000600f0
:101b90000000fa00502080004b00de006140600031
:101ba0000080fb0000f0a7000000ea000000ea004f
:101bb0004f00de00004078000080fa0000000600c0
:101bc0000000fa00502080004900de006140600003
:101bd0000080fb0000f0a7000000ea000000ea001f
:101be0004f00de00004078000080fa000000060090
:101bf0000200fa000040eb00004f78000ec4bf0066
:101c00000004e000050032000ec4bf000004e00044
:101c10000200350010c0b300004f78001e4078006d
:101c20000080fa00000006000000fa00502080004a
:101c30004c00de00614060000080fb0000f0a70067
:101c40000000ea000000ea004f00de0000407800db
:101c50000080fa00000006000000fa00502080001a
:101c60004a00de00614060000080fb0000f0a70039
:101c70000000ea000000ea004f00de0000407800ab
:101c80000080fa00000006000200fa000040eb00ad
:101c9000004f78000fc4bf000004e00005003200d0
:101ca0000fc4bf000004e0000200350010c0b30004
:101cb000004f78001e4078000080fa000000060007
:101cc0000600fa000000eb00000f78000121800000
:101cd000210798002e0090000000e0001100320063
:101ce0000000eb00100798000b0037001e0090006a
:101cf000ae0090000008de00610060000040780047
:101d00000004e000010032001e0fe8001e009000f9
:101d10000000e800100798001e009000ef0f500030
:101d2000f2ff360011218000210798002e0090005c
:101d30000000e000110032000000eb0010079800e6
:101d40000b0037001e009000ae0090000008de007f
:101d500061006000004078000004e00001003200f3
:101d60001e0fe8001e0090000000e8001007980019
:101d70001e009000ef0f5000f2ff36001e007800aa
:101d8000004078000080fa00000006000000fa0021
:101d90000ac4a9000cc4a80001208000f08f2f0005
:101da000008060000080a00000208800000000008b
:101db00001208000000e20008080600000022000d2
:101dc000808f5000faff3a000080fa000000060001
:101dd0000000fa000080fa00000006000200fa008d
:101de000000f78001e007800908088000080fa00c4
:101df000000006001400fa00000f9800110f980070
:101e000003000900001feb008e00b1007e07980060
:101e10001e08900090009000100078004007980085
:101e2000510798001e0890004040900061406000fb
:101e30000080fb0061006000ee0090000100a10046
:101e400001007000600798001e089000504090004c
:101e5000614060000080fb00610060000000400005
:101e6000ee0090000110a1000100700060079800d2
:101e70001e089000604090006f4060000080fb00f2
:101e80006f0060004200dd006e01900031fc2f0009
:101e90008100610001007000600798007e009000e2
:101ea0009e089000f1409000014878007e0090006c
:101eb0000000e8009e0890008148900001487800ea
:101ec0007e0090000080e8009e08900091489000fd
:101ed000014878007e009000630040009e0890005a
:101ee000a1489000014878007e0090006400400006
:101ef0009e089000b1489000014878007e00900054
:101f0000650040009e089000c1489000014878009c
:101f10007e009000660040009e089000d14890002e
:101f2000014878007e009000670040009e08900005
:101f3000e148900001487800680047008000780080
:101f40000e08900078fe070000f0a7000000ea00ed
:101f50000000ea004f00de00004078000080fa0038
:101f6000000006001400fa00100f98000040eb007b
:101f7000004f7800e1004700070009008058eb009f
:101f80000e00e800000f98006a004700aefe070050
:101f90000004e000430032005e009000ee0090007c
:101fa0001e0990000089be007e0090006140600024
:101fb000804078001e089000414098007e0090000c
:101fc000620060000000e000040032001e08900083
:101fd00021c0b30051409800030037001e08900054
:101fe00011c0b300514098000e0890009040780056
:101ff0001e089000714098000e0890000000e80054
:10200000904078001e089000014898000e0890004b
:102010000080e800904078001e0890001148980069
:102020000e08900063004000904078001e08900069
:10203000214898000e08900064004000904078000d
:102040001e089000314898000e089000650040007e
:10205000904078001e089000414898000e089000bb
:1020600066004000904078001e089000514898009b
:102070000e08900067004000904078001e08900015
:10208000614898007e0090004200de006f406000d2
:10209000804078001e0890006140980010c0b30096
:1020a000004f78001e4078000080fa000000060013
:1020b0000000fa00502080004d00de00614060000a
:1020c0000080fb0000f0a7000000ea000000ea002a
:1020d0004f00de00004078000080fa00000006009b
:1020e0000000fa00502080004b00de0061406000dc
:1020f0000080fb0000f0a7000000ea000000ea00fa
:102100004f00de00004078000080fa00000006006a
:102110000000fa00502080004c00de0061406000aa
:102120000080fb0000f0a7000000ea000000ea00c9
:102130004f00de00004078000080fa00000006003a
:102140000600fa000000eb00000f7800012180007b
:10215000210798002e0090000000e00011003200de
:102160000000eb00100798000b0037001e009000e5
:10217000ae0090000008de006100600000407800c2
:102180000004e000010032001e0fe8001e00900075
:102190000000e800100798001e009000ef0f5000ac
:1021a000f2ff360011218000210798002e009000d8
:1021b0000000e000110032000000eb001007980062
:1021c0000b0037001e009000ae0090000008de00fb
:1021d00061006000004078000004e000010032006f
:1021e0001e0fe8001e0090000000e8001007980095
:1021f0001e009000ef0f5000f2ff36001e00780026
:10220000004078000080fa00000006000000fa009c
:102210000ac4a9000cc4a80001208000f08f2f0080
:10222000008060000080a000002088000000000006
:1022300001208000000e200080806000000220004d
:10224000808f5000faff3a000080fa00000006007c
:102250000000fa0021e3a8000080fa000000060058
:102260000400fa00100798001e009000e10f5000d3
:1022700008003200e10f500003003900e20f500067
:10228000070032000900370001188000010f7800b4
:102290000600370011188000010f78000300370096
:1022a00021188000010f7800000000001e00780057
:1022b0000080fa00000006000000fa00b5050700e3
:1022c00030020700a801070000e22400204888002f
:1022d00000e2240070488800907080004c00de000e
:1022e0006140600080407800907080004e00de0009
:1022f000614060000081fb00907080004f00de00b4
:10230000004078000080fb00000040000000410019
:102310000000400000017800907080004d00de0059
:10232000614060000080fb00000041000040780038
:102330000040400000c0400000c0ea00ef406000e4
:102340000006210001487800c10207003cfd07009b
:102350002efd0700beff0700048ea80040d121001b
:10236000370407003e040700046ea9000000eb00dc
:10237000608388000000eb00508388008007210004
:102380008040eb0001487800100120003083880075
:1023900040012000208388009001200040838800b5
:1023a0000080fa00000006001000fa000300090097
:1023b000001feb008e00b1007e079800f0828000c5
:1023c000e30f500021003200e30f500005003e00f3
:1023d000e10f500010003200e10f50000b003e00f2
:1023e00007003700e70f500028003200e80f5000c8
:1023f00020003200e60f50001b003200240037009e
:1024000020002000f082880021003700100020000a
:10241000f08288001e0037008007210010407800fd
:10242000614060000080fb00610060004300dd004f
:10243000217080000130a100010070002070880030
:1024400030002000f08288001100370050838000a7
:10245000cf80de0092f90700100307006000200023
:10246000f08288000a00370080002000f082880097
:10247000070037000000eb0079ff07001083880099
:1024800020002000f08288000100370000000000da
:102490000080fa00000006000200fa000000eb00d5
:1024a000000f780009003700c00221001e00400024
:1024b0008040eb0001487800400321001e004000ee
:1024c0008040eb00014878001e0fe8001e007800f5
:1024d000e70f5000f4ff3400907080004c00de00e5
:1024e0006140600080407800907080004e00de0007
:1024f000614060000081fb00907080004f00de00b2
:10250000004078000080fb00000040000000410017
:102510000000400000017800907080004d00de0057
:10252000614060000080fb00000041000040780036
:102530000040400000c0400000c0ea00ef406000e2
:10254000a0012100014878000080fa000000060088
:102550000000fa00c0022100108188004003210021
:1025600050818800c0808000e10f500008003200d8
:10257000e10f500003003900e20f50004400320028
:102580005200370010002000c08088004f00370044
:10259000cbfd07000004e0003a003200c00121003a
:1025a00029fd07000004e00036003200c0012100d0
:1025b0004b020700c103210080487800c0032100be
:1025c000104078000080fb00eb0f50001f0032002d
:1025d000eb0f500005003c00e50f500024003200d6
:1025e000ea0f5000100032002600370011022000d0
:1025f000810f500004003200c1022000810f500002
:10260000050032001f0037008007210011c0b30011
:10261000014878001b003700800721008040eb0054
:102620000148780017003700c002210010407800f0
:102630008080fb00d0022100104078000080fb0069
:102640004800dd000080400050838800c002210067
:10265000104078008080fb00d002210010407800fc
:102660000080fb004800dd0000804000608388009f
:102670001081800090407800900721000148780088
:102680000000000020002000c08088000f003700fc
:10269000d003210010407800e14f500008003a00bc
:1026a000430221000001eb008000eb000000eb0082
:1026b000a1010700d00321008040eb000148780011
:1026c00010002000c0808800000000000080fa0098
:1026d000000006000000fa00003a80000080fa00c6
:1026e000000006000200fa00faff0700000f780061
:1026f0001e007800240007000004e0000200320001
:1027000000002800710007001e0078002a00070062
:102710000004e00002003200000024006b0007000b
:102720001e007800320007000004e00002003200c2
:1027300000202000650007001e0078003a00070016
:102740000004e00002003200000820005f000700e3
:102750001e007800420007000004e0000200320082
:1027600000042000590007001e0078004a000700fe
:102770000004e000020032000001200053000700c6
:102780000080fa00000006000400fa00100798001c
:102790000040eb00004f78001e0090000000e000b9
:1027a00002003d0010c0b300004f78001e407800ca
:1027b0000080fa00000006000400fa0010079800ec
:1027c0000040eb00004f78009e00900000002400c5
:1027d000008060000000e0000200320010c0b30082
:1027e000004f78001e4078000080fa0000000600cc
:1027f0000400fa00100798000040eb00004f78003a
:102800009e00900000202000008060000000e0009a
:102810000200320010c0b300004f78001e40780064
:102820000080fa00000006000400fa00100798007b
:102830000040eb00004f78009e0090000008200050
:10284000008060000000e0000200320010c0b30011
:10285000004f78001e4078000080fa00000006005b
:102860000400fa00100798000040eb00004f7800c9
:102870009e00900000042000008060000000e00046
:102880000200320010c0b300004f78001e407800f4
:102890000080fa00000006000400fa00100798000b
:1028a0000040eb00004f78001e00900070006000b8
:1028b0000000e0000200320010c0b300004f7800ba
:1028c0001e4078000080fa00000006000200fa00b6
:1028d000000f78009e80ea00003a800000806000cf
:1028e000003a88000080fa00000006000000fa00ac
:1028f0004027ef000080fa00000006000000fa0008
:1029000060c0210050488800f00120006048880025
:102910000e29ef001029ef00504880000040780099
:10292000674060000080fb00808088000080fa0023
:10293000000006000000fa000080fa000000060017
:102940000000fa00014080000004200000806000c8
:102950000000e00002003200f6ff070000c8a900f6
:102960000080fa00000006000000fa00808080006d
:1029700000407800674060000080fb006700600056
:102980005248800081ff2f0081006100010070002b
:10299000504888000080fa00000006000000fa009d
:1029a0005148800080ff2f00008060005048880060
:1029b0000080fa00000006000200fa00000f780014
:1029c0009e007800714888000080fa000000060030
:1029d0000200fa00000f78009e007800814888000d
:1029e0000080fa00000006000000fa0000408000ad
:1029f0004600de00614060000080fb0000f0a700a0
:102a00000000ea000000ea004f00de00004078000d
:102a10000080fa00000006000400fa001007980089
:102a20001e0090000000e00003003200e10f5000a3
:102a30000b00320014003700504880004400de00d4
:102a4000614060000080fb0000f0a7000000ea0089
:102a50000000ea004f00de00004f78000a00370057
:102a6000504880004500de00614060000080fb00af
:102a700000f0a7000000ea000000ea004f00de00be
:102a8000004f7800000000001e4078000080fa002f
:102a9000000006000200fa00000f78001e00780017
:102aa0000000e00003003200e10f5000030032009c
:102ab000040037000a89a900020037000aa9a9000a
:102ac000000000000080fa00000006000000fa008c
:102ad0000cc9a8000080fa00000006000000fa00ff
:102ae000604880004600de00614060000080fb001e
:102af00000f0a7000000ea000000ea004f00de003e
:102b0000004078000080fa00000006000000fa0093
:102b10000cc9a9000080fa00000006000000fa00bd
:102b200060c0210000488800f001200010488800a3
:102b30000429ef000629ef000048800000407800db
:102b4000674060000080fb00708088000080fa0011
:102b5000000006000000fa000080fa0000000600f5
:102b60000000fa0000408000640060000000e00007
:102b700002003200f7ff07000048a9000080fa00b9
:102b8000000006000000fa0070808000004078001d
:102b9000674060000080fb00670060000248800022
:102ba00081ff2f0081006100010070000048880053
:102bb0000080fa00000006000000fa0001488000d2
:102bc00080ff2f0000806000004888000080fa002d
:102bd000000006000200fa00000f78009e00780056
:102be000214888000080fa00000006000200fa0078
:102bf000000f78009e007800314888000080fa00bd
:102c0000000006000000fa00004080004200de00e4
:102c1000614060000080fb0000f0a7000000ea00b7
:102c20000000ea004f00de00004078000080fa005b
:102c3000000006000400fa00100798001e00900033
:102c40000000e00003003200e10f50000b003200f2
:102c500014003700004880004400de00614060003e
:102c60000080fb0000f0a7000000ea000000ea007e
:102c70004f00de00004f78000a0037000048800057
:102c80004500de00614060000080fb0000f0a7000e
:102c90000000ea000000ea004f00de00004f78006c
:102ca000000000001e4078000080fa0000000600ce
:102cb0000200fa00000f78001e0078000000e0001b
:102cc00003003200e10f500003003200040037001f
:102cd0000089a9000200370000a9a9000000000037
:102ce0000080fa00000006000000fa0002c9a800f7
:102cf0000080fa00000006000000fa001048800082
:102d00004600de00614060000080fb0000f0a7008c
:102d10000000ea000000ea004f00de0000407800fa
:102d20000080fa00000006000000fa0002c9a900b5
:102d30000080fa00000006000800fa00000f78008a
:102d40001107980022079800330798003e00900072
:102d5000300090009e0078008140780001487800a3
:102d60003e009000300090000000e8009e007800d7
:102d7000c808de0081407800014878003e009000dd
:102d8000300090000080e8009e00900081407800b4
:102d9000014878003e009000300090006300400041
:102da0009e009000c888de008140780001487800cd
:102db0003e0090003000900064004000ae009000a3
:102dc00081407800014878003e009000300090007b
:102dd00065004000ae009000c808de008140780029
:102de000014878003e009000a00090000110a10072
:102df000210098003e009000a00090000100a1007a
:102e0000210098003e0090002001900031fc2f002e
:102e1000810061008101b30021009800a001210020
:102e2000104078000080fb004700dd00e001b300a7
:102e3000cf80de003e0190000089be00be00900001
:102e400030002000b8fa07000080fa0000000600f9
:102e50000000fa000004a800c1208000c0ff2f007d
:102e600000806000c020880080218000ff0060009a
:102e700000002f0001007000802188000006210062
:102e8000104078000080fb004700dd0080007800e3
:102e9000f07f2000008060004500dd0021228000de
:102ea000ff80600001007000202288002122800045
:102eb000c0ff2f0000806000202288004624ef0021
:102ec0004464a90001218000000f2000010070006f
:102ed000002188000004a9000080fa00000006001c
:102ee0000200fa00000f78001e00780090009000a9
:102ef00010007800004078000074a1000080fa0003
:102f0000000006000000fa000002200000588800bf
:102f10002002200010588800062bef00000021003e
:102f2000205888000a2bef00082bef000c2bef0035
:102f300070002000705888000088a900000222005c
:102f4000805888006004200090588800162bef00fd
:102f500000002100a05888001a2bef00182bef006a
:102f60001c2bef0070002000f058880001c8a90059
:102f70000002200000598800d0002000105988006d
:102f8000262bef0000002100205988002a2bef009b
:102f9000282bef002c2bef007000200070598800c8
:102fa0000308a900302bef00322bef00362bef0087
:102fb00000002100a05988003a2bef00382bef00c9
:102fc0003c2bef003e2bef000488a9000080fa00a4
:102fd000000006000000fa000080fa000000060071
:102fe0000000fa0000408000700060000000e00077
:102ff00002003200f7ff07000088a9000080fa00f5
:10300000000006000000fa000080fa000000060040
:103010000000fa00014080000000240000806000f1
:103020000000e00002003200f6ff070001c8a9001e
:103030000080fa00000006000000fa000080fa009c
:10304000000006000000fa0011408000001020007f
:10305000008060000000e00002003200f6ff070080
:103060000308a9000080fa00000006000000fa0032
:103070000080fa00000006000000fa0020408000f6
:10308000700060000000e00002003200f7ff07005f
:103090000488a9000080fa00000006000400fa007d
:1030a000881f7800008fbe006011b8001e007800f5
:1030b0009e0090005bf607000000e00003003a006d
:1030c0000629ef001029ef002b00370018c0b300cd
:1030d0006011b8001e0078009e00900053f60700b3
:1030e0000000e00001003c000044eb000804e000a8
:1030f0000c0032001029ef0002002000832c240075
:103100001e0078009e00900004f6070002002400d4
:10311000c3692400b8f607001a0007003048880089
:103120001500370018c0b3006011b8001e00780009
:103130009e0090003bf607000000e0000100350013
:103140000044eb000804e0000b0032000629ef0009
:1031500002002000832c24001e0078009e009000b6
:10316000eef5070002002400c3692400a2f6070060
:1031700004000700804888004f0478000080fa00af
:10318000000006000400fa00881f7800008fbe00cf
:1031900018c0b30002002000a36724001e007800be
:1031a0009e00900021f607000000e00001003c00b6
:1031b0000044eb000804e0000200320000e82300b5
:1031c0001100370018c0b30002002000a3672c00d4
:1031d0001e0078009e00900012f607000000e0003c
:1031e000010035000044eb000804e000020032005a
:1031f00000e82300040037001e0078009e009000c5
:103200000cf60700000078004f0478000080fa00f8
:10321000000006000000fa00800020000011880075
:103220002222ef00a06120004011880021e2a800c6
:103230002342a8000080fa00000006000000fa0007
:103240000000000010118000610060000000e0003c
:10325000fcff320010118000620060000000e000fe
:10326000010032002222a9003011800000407800c5
:103270000080fa00000006000200fa00004f78000b
:10328000000000001111800000202000008060007c
:103290000000e000fbff3a001e80fb0020118800c8
:1032a0000080fa00000006000000fa001011800003
:1032b00000407800614060000080fb0000f0a70043
:1032c0000000ea000000ea004f00de000040780045
:1032d0000080fa00000006000000fa0011118000d2
:1032e00000202000008060000000e00007003a009d
:1032f0001111800000402000008060000000e0000c
:103300000200320010002000010037000000eb0036
:10331000004078000080fa00000006000000fa007b
:10332000101180004800de00614060000080fb005a
:1033300000f0a7000000ea000000ea004f00de00f5
:10334000004078000080fa00000006000000fa004b
:10335000101180000080fa00000006000000fa0052
:1033600021e2a8002342a8000080fa000000060025
:103370000000fa0021e2a9002342a9000080fa001f
:10338000000006000000fa000a21ef00f0ff230011
:10339000700888000002280090088800a080800043
:1033a0000000e00002003a00a0a121002400070074
:1033b0000108a9002108a800c00721008040eb00f7
:1033c000014878000080fa00000006000200fa00c0
:1033d000000f78009e00780071088800c007210067
:1033e0008040eb00014878000080fa0000000600f1
:1033f0000000fa00700880000080fa00000006005b
:103400000200fa00000f78009e0078005108880042
:10341000c00721008040eb00014878000080fa00de
:10342000000006000000fa00500880000080fa004a
:10343000000006000000fa000080fa00000006000c
:103440000200fa00000f78002108a9009e00780011
:10345000a18088002108a8000080fa000000060072
:103460000000fa00c00721008040eb00014878000e
:103470002108a80013e1a8000080fa00000006005f
:103480000000fa0013e1a9002108a9000080fa0059
:10349000000006000200fa00c0072100104f78006b
:1034a0001e4078000004e00003003200c007210045
:1034b0008040eb00014878001e4078000080fa0050
:1034c000000006000000fa00d0072100104078003c
:1034d0000080fb000080fa00000006000000fa00f7
:1034e000d00721008040eb00014878000080fa00fe
:1034f000000006000000fa000621ef00f0ff2300a4
:10350000600888000002280080088800a0072100c9
:103510008040eb00014878000080fa0000000600bf
:103520000000fa00014080000008200000806000d8
:103530000000e00009003200b007210010407800d0
:103540008040e800b007210001487800a007210072
:1035500011c0b3000148780000e8a9000080fa001b
:10356000000006000200fa00000f78009e007800bc
:1035700061088800a00721008040eb000148780026
:103580000080fa00000006000000fa0060088000d9
:103590000080fa00000006000200fa00000f780028
:1035a0009e00780031088800a00721008040eb00d1
:1035b000014878000080fa00000006000000fa00d0
:1035c000300880000080fa00000006000000fa00c9
:1035d000a00721008040eb000148780011e1a8001d
:1035e0000080fa00000006000000fa0011e1a900c6
:1035f0000080fa00000006000200fa00a007210087
:10360000104f78001e4078000004e00003003200f4
:10361000a00721008040eb00014878001e407800a0
:103620000080fa00000006000000fa00b007210048
:10363000104078000080fb000080fa0000000600c7
:103640000000fa00b00721008040eb00014878003c
:103650000080fa00000006000000fa00042eef00cf
:10366000142eef007000200000708800f01e2f0064
:10367000807088000c2eef001c2eef000a2eef0049
:103680001a2eef00062eef00162eef00100020007d
:103690007070880030002000f0708800113a8000bf
:1036a000f00b200000816000600420007105200004
:1036b000237420008049780081497800824978008d
:1036c000a136800000f82f0080806000800220007a
:1036d00001007000a03688001134800000fc2f002b
:1036e000008060000000a0001034880021368000b7
:1036f00000f82f0080806000500220000100700060
:10370000203688004134800000fc2f0000806000db
:103710000040a0004034880041348000f00f2c00ad
:10372000808060000010210001007000403488009b
:1037300031348000f00f2c008080600000e0200019
:103740000100700030348800103a800000017800d9
:103750000260a00060042000710520002374200096
:103760008049780081497800824978000080fa0019
:04377000000006004f
:020000040000fa
:103774003e10000020000000800000000c1000003b
:103784000200000082000000ffff00000e10000095
:103794000200000080000000101000000200000081
:1037a400800000007a100000020000008000000089
:1037b400001200000002000080000000121000004f
:1037c40002000000800000007c10000002000000e5
:1037d40080000000141000000200000080000000bf
:1037e4001610000002000000800000005e100000bf
:1037f4001c00000080000000001000000c0000000d
:103804008000000018100000260000008000000066
:0438140000000000b0
:020000040000fa
:103818000000fa0020102300203a88004827ef0013
:103828004e27ef00e0052000303a88006027ef00bf
:103838006227ef006427ef006627ef006a27ef0092
:103848006c27ef003200200080072000a10920002b
:1038580033742000804978008149780082497800d3
:10386800120020006004200071052000237420004d
:10387800804978008149780082497800000000007a
:10388800103a8000610060000000e000fcff3a0090
:1038980000000000113a8000000220000080600053
:1038a8000000e000fbff32000080fa000000060084
:1038b8000000fa00400e2800001988002223ef00bb
:1038c80070a02000201988002823ef0000002c0099
:1038d8007019880010002000801988003223ef003a
:1038e8002623ef00e0c72100050007000080fa004a
:1038f800000006000000fa000080fa000000060040
:103908000200fa00000f78001e007800b0808800de
:103918000080fa00000006000000fa000140800064
:1039280000002200008060000000e0000600320075
:10393800b08080000000e00002003200b08080000b
:103948000000010001a8a9000080fa00000006009c
:103958000200fa00000f780021028000200f2000ea
:10396800008060001e007000200288000080fa00bd
:10397800000006000000fa00c3e8a80000000000ec
:10398800000000000080fa00000006000000fa00b5
:103998002fff07009eff0700190007001bfe070006
:1039a8005cfc070011f70700d0fe0700c0ff070006
:1039b80072fe0700cffb070050fd0700edff070070
:1039c80000022000e2ff07000080fa000000060065
:1039d8000200fa00000f78009e00780061808800dd
:1039e800ffff37000000fa00e0032100800778009d
:1039f80060052100000188000080fa000000060030
:103a08000000fa002142800080ff2f000080600043
:103a18000000a000204288000080fa000000060094
:103a28000000fa00d003210011c0b300014878005b
:103a38000080fa00000006000000fa001cfa0700e7
:0c3a480057fa0700c0fa0700fdff370026
:020000040000fa
:020000040005f5
:045fe000cfff0000ef
:020000040000fa
:020000040005f5
:045fe400cfff0000eb
:020000040000fa
:020000040005f5
:045fe8007fff000037
:020000040000fa
:020000040005f5
:045fec0078ff00003a
:020000040000fa
:020000040005f5
:045ff00078ff000036
:020000040000fa
:020000040005f5
:045ff400ffff0000ab
:00000001FF
